:100000000C9466000C94F1200C941E210C948E002C
:100010000C948E000C948E000C948E000C948E0028
:100020000C948E000C948E000C948E000C948E0018
:100030000C948E000C948E000C948E000C948E0008
:100040000C945A210C948E000C947C1D0C94CA1DA7
:100050000C948E000C948E000C948E000C948E00E8
:100060000C946F010C948E00000000002400270007
:100070002A0000000000250028002B0000000000DE
:1000800023002600290004040404040404040202DA
:100090000202020203030303030301020408102007
:1000A0004080010204081020010204081020000012
:1000B0000007000201000003040600000000000029
:1000C00000006207E408580E9714361F11241FBE63
:1000D000CFEFD8E0DEBFCDBF13E0A0E0B1E0EEECA3
:1000E000F6E402C005900D92AE35B107D9F716E0DF
:1000F000AEE5B3E001C01D92A234B107E1F710E014
:10010000CCECD0E004C02297FE010E946123C23CE7
:10011000D107C9F70E944B210C9465230C94000071
:10012000880F8093BA000895382F413210F040E0D4
:1001300042C080915E038823E1F791E090935E03D3
:10014000209360038FEF8093CB031092860341507E
:10015000409387034F5F90935F0380915F03330F5A
:10016000832B80935F0380916103813041F410926F
:10017000610380915F038093BB0085EC01C085EE35
:100180008093BC0080915E038130E1F3809186030F
:10019000841710F44091860320E030E00AC0FB0190
:1001A000E20FF31FD901AA59BC4F8C9180832F5FB6
:1001B0003F4F2417A0F3842F08950F931F93582FB8
:1001C000122F413210F081E04AC080915E038823F3
:1001D000E1F782E080935E03009360038FEF8093EA
:1001E000CB031092860340938703A6E6B3E0FB019E
:1001F00002C081918D938E2F861B8417D0F31092AD
:100200005F0380915F03550F852B80935F0380917F
:100210006103813041F41092610380915F03809308
:10022000BB0085EC01C085EE8093BC00112321F05A
:1002300080915E038230E1F38091CB038F3F11F414
:1002400080E00DC08091CB03803211F482E007C0C2
:100250008091CB03803311F084E001C083E01F91D3
:100260000F910895482F613210F081E00895809138
:100270005E03843011F082E008956093A903A8E83A
:10028000B3E0842F9C01F90102C081918D938E2FE0
:10029000841B8617D0F380E00895909365038093C4
:1002A0006403089590936303809362030895882301
:1002B00011F085EC01C085E88093BC00089585EDC0
:1002C0008093BC008091BC0084FDFCCF10925E0343
:1002D000089585EC8093BC0010925E0308951F92F0
:1002E0000F920FB60F9211242F933F934F935F936A
:1002F0006F937F938F939F93AF93BF93EF93FF93EE
:100300008091B90090E0887F90708036910509F463
:10031000F2C081369105CCF58832910509F47BC095
:1003200089329105B4F48031910509F46FC08131AF
:1003300091053CF4009709F447C1089709F04FC1B3
:1003400065C08831910509F466C0809709F047C1FE
:1003500082C08034910509F4A4C08134910544F42D
:100360008033910509F482C0C89709F038C189C06B
:100370008035910509F489C08835910509F496C046
:100380008834910509F02BC1AEC08839910509F474
:1003900013C189399105ECF48837910509F4ABC094
:1003A000893791054CF48836910509F4A4C080374B
:1003B000910509F014C19FC08838910509F4FCC06B
:1003C0008039910509F49DC08038910509F007C175
:1003D00098C0803B910509F4C6C0813B91054CF45F
:1003E000803A910509F49FC0883A910509F0F7C059
:1003F000BAC0803C910509F4E3C0883C910509F43A
:10040000DFC0883B910509F0EAC0C2C080915F035C
:100410008093BB00CFC0909186038091870398178B
:1004200068F490918603E92FF0E0EA59FC4F80814F
:100430008093BB009F5F90938603BCC08091600354
:10044000882309F44BC085ED8093BC008091BC00EB
:1004500084FDFCCFC2C080E28093CB0385ED809306
:10046000BC008091BC0084FDFCCFB7C080E38093CA
:10047000CB0385ED8093BC008091BC0084FDFCCF54
:10048000ACC088E38093CB039BC08091860390919E
:10049000BB00E82FF0E0EA59FC4F90838F5F809318
:1004A0008603909186038091870382C080918603A2
:1004B0009091BB00E82FF0E0EA59FC4F90838F5FEA
:1004C0008093860380916003882341F085ED8093BB
:1004D000BC008091BC0084FDFCCF7FC081E0809394
:1004E000610384EA6EC085ED8093BC008091BC00FE
:1004F00084FDFCCF72C083E080935E031092CA0338
:1005000059C08091CA03803208F056C08091CA0356
:100510009091BB00E82FF0E0E655FC4F90838F5F91
:100520008093CA0347C08091CA03803230F4E091BF
:10053000CA03F0E0E655FC4F108285ED8093BC00C5
:100540008091BC0084FDFCCF10925E036091CA03D1
:10055000E0916403F09165038AEA93E070E0099505
:100560001092CA032DC084E080935E031092A8030A
:100570001092A903E0916203F091630309958091C1
:10058000A903882329F481E08093A90310928803AA
:100590009091A803E92FF0E0E857FC4F8081809309
:1005A000BB009F5F9093A8039091A8038091A9033B
:1005B000981710F485EC01C085E88093BC000FC04B
:1005C00085EC8093BC0009C01092CB0385ED80932D
:1005D000BC008091BC0084FDFCCF10925E03FF91B3
:1005E000EF91BF91AF919F918F917F916F915F91AB
:1005F0004F913F912F910F900FBE0F901F90189524
:1006000010925E0381E0809360031092610382E1A7
:1006100061E00E949B2283E161E00E949B22E9EB62
:10062000F0E080818E7F808380818D7F808388E46D
:100630008093B80085E48093BC0008952F923F9288
:100640004F925F926F927F928F929F92AF92BF92E2
:10065000CF92DF92EF92FF920F931F93CF93DF938E
:10066000CDB7DEB72C970FB6F894DEBF0FBECDBF67
:1006700069837A838B839C832D833E834F83588742
:100680008C81992787FD9095A92FB92FBC01CD01A9
:100690000E94EF227B018C018885992787FD909528
:1006A000A92FB92F29813A814B815C815070BC01FF
:1006B000CD010E94EF22DC01CB01E80EF91E0A1FDA
:1006C0001B1F8B81682E7724882499248F81282EE4
:1006D000332444245524C401B301A20191010E9492
:1006E000EF22DC01CB01AA24B82EC92EDA2EAE0CE3
:1006F000BF1CC01ED11E8D819E819C0144275527A1
:1007000029873A874B875C87C401B3010E94EF2297
:100710007B018C0189819A813C0188249924C40140
:10072000B301A20191010E94EF22DC01CB01E80E8E
:10073000F91E0A1F1B1FBB27A12F902F8F2D8A0D7B
:100740009B1DAC1DBD1D37E016950795F794E794EA
:100750003A95D1F721E030E040E050E0E222F32288
:1007600004231523E80EF91E0A1F1B1FC401B30141
:1007700029853A854B855C850E94EF22DC01CB01FF
:100780008B2F9927AA27BB278E0D9F1DA01FB11F56
:10079000BC01CD012C960FB6F894DEBF0FBECDBFC5
:1007A000DF91CF911F910F91FF90EF90DF90CF904D
:1007B000BF90AF909F908F907F906F905F904F9081
:1007C0003F902F900895FF920F931F93CF93DF9345
:1007D00000E010E0FF2497FF02C057FD0AC0161684
:1007E0001706180619063CF4121613061406150609
:1007F00014F4F1E0FF2E97FF07C090958095709557
:1008000061957F4F8F4F9F4F57FF07C05095409581
:10081000309521953F4F4F4F5F4FC0E0D0E06F3F85
:10082000EFEF7E07EFEF8E07EFE39E0744F4660FCE
:10083000771F881F991F2196C831D10584F320FDA9
:1008400008C055954795379527950F5F1F4F20FF97
:10085000F8CF0E944423D095C195DF4FC01BD10B28
:1008600068961C161D0644F404C0220F331F441F53
:10087000551FCA95D2F719C0D7FF17C0C095D0959C
:1008800004C05595479537952795CA95D2F7DA0153
:10089000C901B595A79597958795217030704070DF
:1008A0005070280F391F4A1F5B1FFF2039F45095E5
:1008B0004095309521953F4F4F4F5F4FCA01B90189
:1008C000DF91CF911F910F91FF900895EF92FF92CA
:1008D0000F931F93CF93DF93CDB7DEB72C970FB64F
:1008E000F894DEBF0FBECDBF6D837E838F83988764
:1008F0007A0119861A861B861C8611E0452B21F485
:100900007E010894E11CF11C60E02D813E814F8145
:100910005885263D7EE7370778E4470776E0570796
:10092000FCF0DA01C901865D9E47A844B6406130FB
:1009300041F460E0DA01C901855D9E47A844B640F4
:1009400001C06F5F9C01AD01863DEEE79E07E8E4C4
:10095000AE07E6E0BE072CF78D839E83AF83B88792
:1009600060E08D819E81AF81B885BB23BCF49C0182
:10097000AD012A523148474B594F613031F460E0A4
:10098000215030404040504001C06F5FDA01C90142
:1009900057FDEDCF2D833E834F8358878D819E81F8
:1009A000AF81B8858C36FFE39F07F4E2AF07F3E031
:1009B000BF074CF08B569F43A442B3408D839E8368
:1009C000AF83B88713E02D813E814F815885263B48
:1009D0007FE1370772E9470771E057076CF08BE654
:1009E0009FE3A4E2B3E0821B930BA40BB50B8D83B2
:1009F0009E83AF83B8871F5F8D819E81AF81B8854D
:100A00000097A105B105B1F41250123028F480E02E
:100A100090E0A0E0BFEF04C080E090E0A0E0B1E093
:100A2000F70180839183A283B38360E070E080E06C
:100A300090E055C08CEE94E7ABE9B0E0F70180831D
:100A40009183A283B38300E028E1AE014B5F5F4F47
:100A5000BE01675F7F4FC7010E945206812F992711
:100A60008330910549F0843091051CF4029799F088
:100A700032C0049709F12FC089859A85AB85BC8562
:100A8000B095A095909581959F4FAF4FBF4F8987A7
:100A90009A87AB87BC87F70180819181A281B3815E
:100AA000B095A095909581959F4FAF4FBF4F808394
:100AB0009183A283B3830FC089859A85AB85BC855A
:100AC000B095A095909581959F4FAF4FBF4F898767
:100AD0009A87AB87BC8769857A858B859C852C96A0
:100AE0000FB6F894DEBF0FBECDBFDF91CF911F913F
:100AF0000F91FF90EF9008958F929F92AF92BF92C7
:100B0000CF92DF92EF92FF920F931F93CF93DF93D9
:100B1000CDB7DEB72C970FB6F894DEBF0FBECDBFB2
:100B200069837A838B839C832D833E834F8358878D
:100B300019861A861B861C8659016A012115310502
:100B40004105510519F4CA01B90199C079018A0119
:100B5000E094F09400951095EE2417FDE394FF24A3
:100B6000002711278E2C29813A814B815C81211528
:100B700031054105510561F4EE2029F06FEF7FEF5B
:100B80008FEF9FE77CC061E070E080E090E877C085
:100B9000DA01C90180959095A095B0958827B7FD99
:100BA00083959927AA27BB27982E882359F488274D
:100BB0009927DC01821B930BA40BB50B89839A83C5
:100BC000AB83BC83EE2059F488279927DC018A196E
:100BD0009B09AC09BD098D839E83AF83B8878C8147
:100BE00086FD03C0888586FF18C089819A81AB8104
:100BF000BC81B595A7959795879589839A83AB8393
:100C0000BC838D819E81AF81B885B595A795979559
:100C100087958D839E83AF83B88701E028E1AE017D
:100C2000475F5F4FBE016B5F7F4FCE0101960E9411
:100C30005206882059F069857A858B859C85992094
:100C4000F1F46B54704E8D469E4F19C069857A85BC
:100C50008B859C85992041F0909580957095619544
:100C60007F4F8F4F9F4F0BC09095809570956195EA
:100C70007F4F8F4F9F4F655B7F41824991402C96FC
:100C80000FB6F894DEBF0FBECDBFDF91CF911F919D
:100C90000F91FF90EF90DF90CF90BF90AF909F901B
:100CA0008F9008952F923F924F925F926F927F9212
:100CB0008F929F92AF92BF92CF92DF92EF92FF926C
:100CC0000F931F93CF93DF93CDB7DEB7C756D040B6
:100CD0000FB6F894DEBF0FBECDBF2C011B01A79647
:100CE0004EAF5FAFA797A8962FAFA897602E84E668
:100CF000DE011196E9EDF2E001900D928A95E1F79F
:100D0000F201C080D180E280F380FB0140815181FB
:100D100062817381A796EEADFFADA7978080918029
:100D2000A280B380772497018601662029F01416EB
:100D300015061606170624F4662069F5B7FC2BC0C5
:100D4000E72DFF27DB01CA010E2E04C0B595A7953C
:100D5000979587950A94D2F7C81AD90AEA0AFB0A26
:100D60000E2E04C035952795179507950A94D2F74E
:100D7000400F511F621F731FEE0FFF1FEE0FFF1F6B
:100D8000EC0FFD1F81819281A381B481881A990A99
:100D9000AA0ABB0A2AC0E72DFF27DB01CA010E2ED3
:100DA00004C0B595A795979587950A94D2F7C80E74
:100DB000D91EEA1EFB1E0E2E04C0359527951795E9
:100DC00007950A94D2F7401B510B620B730BEE0F81
:100DD000FF1FEE0FFF1FEC0FFD1F81819281A3818A
:100DE000B481880E991EAA1EBB1E7394A896FFADEF
:100DF000A897F71508F097CFF201C082D182E2825E
:100E0000F382F1014083518362837383A796EEAD31
:100E1000FFADA79780829182A282B382C959DF4F2A
:100E20000FB6F894DEBF0FBECDBFDF91CF911F91FB
:100E30000F91FF90EF90DF90CF90BF90AF909F9079
:100E40008F907F906F905F904F903F902F9008957C
:100E500081E0809311046093EE0310920F041092CE
:100E6000100408952091ED0330E08091EC03281BDD
:100E70003109C90108954091EC038091ED034817B1
:100E800018F02FEF3FEF0AC0E42FF0E0E453FC4FDF
:100E90008081282F30E04F5F4093EC03C901089513
:100EA000E091EC038091ED03E81718F0EFEFFFEF0E
:100EB00006C0F0E0E453FC4F8081E82FF0E0CF0162
:100EC00008950895109215041092140488EE93E08A
:100ED000A0E0B0E08093160490931704A093180448
:100EE000B093190481E493E0909313048093120467
:100EF0000895CF92DF92EF92FF920F931F93CF93BB
:100F0000DF937C016B018A01809111048823A1F099
:100F1000C0E0D0E00DC0D701ED91FC91D601AC0F3F
:100F2000BD1F0190F081E02DC7016C9109952196BC
:100F3000C017D10780F304C0CB01642F0E94320197
:100F4000C801DF91CF911F910F91FF90EF90DF903B
:100F5000CF900895DF93CF930F92CDB7DEB7FC010A
:100F60006983809111048823C9F080911004803234
:100F700038F081E090E09383828320E030E015C078
:100F800080910F04E82FF0E0E151FC4F99819083AC
:100F90008F5F80930F048093100405C0CE010196EB
:100FA00061E00E94320121E030E0C9010F90CF9151
:100FB000DF9108950F93062F8091EE036FEE73E09B
:100FC0004091100421E00E94DD0010920F04109265
:100FD0001004109211040F91089561E00E94DA0745
:100FE0000895413208F040E2862F6CEC73E00E94D5
:100FF00094001092EC038093ED03089521E00E9489
:10100000F10708951092EC031092ED0310920F0473
:10101000109210040E94000308952CB5382F3370ED
:101020002C7F322B3CBD2DB590E0959587959595FD
:10103000879581702E7F822B8DBD08958AE061E0B7
:101040000E949B228AE061E00E945C228CB5806154
:101050008CBD8CB580648CBD8DE061E00E945C220B
:101060008BE061E00E945C220895FC0110821182F5
:1010700012821382148215821682178210861186BC
:10108000128613861486158616861786108A118A8C
:10109000128A138A148A158A168A178A108E118E5C
:1010A000128E138E148E158E168E178E10A211A20C
:1010B00012A213A214A215A216A217A210A611A67C
:1010C00012A613A614A615A616A617A610AA11AA4C
:1010D00012AA13AA14AA15AA16AA17AA11AE10AE1C
:1010E00012AE13AE82E084AF81E085AF0895CF9257
:1010F000DF92EF92FF920F931F93FC0144A355A33D
:1011000066A377A300A711A722A733A7C4A6D5A6D5
:10111000E6A6F7A61F910F91FF90EF90DF90CF907A
:101120000895CF92DF92EF92FF920F931F93FC01ED
:101130004487558766877787008B118B228B338B8B
:10114000C48AD58AE68AF78A1F910F91FF90EF90A3
:10115000DF90CF900895FC0160817181828193813D
:101160000895FC0164817581868197810895FC0151
:1011700060857185828593850895FC01608D718DF0
:10118000828D938D0895FC01648D758D868D978D6C
:101190000895FC0160A171A182A193A10895FC01B1
:1011A00060A971A982A993A90895FC0164A975A9F0
:1011B00086A997A90895FC0182AD089580915804ED
:1011C0008F5F8093580408958EE194E00E94350863
:1011D00008951F93162F106884E060E00E949B2200
:1011E0001EBD0DB407FEFDCF8EB51EBC0DB407FEAF
:1011F000FDCF1EB584E061E00E949B22812F1F91EC
:1012000008957F928F929F92AF92BF92CF92DF927A
:10121000EF92FF920F931F93CF93DF93EC0163E460
:101220000E94E908D82ECE0164E40E94E908FD2C52
:10123000EE2490E0E82AF92A0027F7FC0095102F09
:101240008CAD43E0842E912C9401281B310930EDA4
:10125000A32E35E4B32EC12CD12CD601C50104C078
:10126000B595A795979587952A95D2F79C01AD01DD
:10127000C801B7010E94EF222CA13DA14EA15FA1A0
:10128000260F371F481F591F288F398F4A8F5B8FB2
:10129000CE0165E40E94E908782ECE0166E40E9442
:1012A000E908F72CEE2490E0E82AF92A0027F7FC59
:1012B0000095102F10950095F094E094E11CF11C1E
:1012C000011D111D8CAD9401281B3109D601C501EA
:1012D00004C0B595A795979587952A95D2F79C0157
:1012E000AD01C801B7010E94EF2228A539A54AA582
:1012F0005BA5260F371F481F591F2C8F3D8F4E8F20
:101300005F8FCE0167E40E94E908182FCE0168E4E0
:101310000E94E908312F20E090E0282B392B442748
:1013200037FD4095542F50954095309521953F4F6E
:101330004F4F5F4F8CAD881A910804C0D594C79465
:10134000B794A7948A94D2F7CA01B901A60195016E
:101350000E94EF222CA53DA54EA55FA5260F371FA5
:10136000481F591F28A339A34AA35BA38AAD88232A
:1013700019F08AAD81508AAFDF91CF911F910F9103
:10138000FF90EF90DF90CF90BF90AF909F908F90A5
:101390007F9008950F931F93162F042F84E060E031
:1013A0000E949B221EBD0DB407FEFDCF8EB50EBD63
:1013B0000DB407FEFDCF8EB584E061E00E949B2254
:1013C0001F910F910895EF92FF920F931F93CF9368
:1013D000DF93EC01288539854A855B85EC80FD80AB
:1013E0000E811F8157FD24C0CA01B901A8019701D0
:1013F0000E947C056659704C8B4D9C4F68AB79AB55
:101400008AAB9BAB688579858A859B8528813981E4
:101410004A815B8150954095309521953F4F4F4FC4
:101420005F4F0E947C056659704C8B4D9C4F25C0C8
:1014300066277727CB01621B730B840B950B222742
:101440003327A9012E193F09400B510B0E947C053F
:1014500068AB79AB8AAB9BAB688579858A859B85C0
:1014600090958095709561957F4F8F4F9F4F288104
:1014700039814A815B810E947C056CAB7DAB8EAB70
:101480009FAB88A999A9AAA9BBA98B362FE392077C
:1014900024E2A20723E0B2072CF0855D9E47A84412
:1014A000B6400CC0863920EC92072BEDA2072CEF3A
:1014B000B20744F48B529148A74BB94F88AB99AB14
:1014C000AAABBBAB8CA99DA9AEA9BFA98B362FE354
:1014D000920724E2A20723E0B2072CF0855D9E4725
:1014E000A844B6400CC0863920EC92072BEDA20729
:1014F0002CEFB20744F48B529148A74BB94F8CABF9
:101500009DABAEABBFABDF91CF911F910F91FF9021
:10151000EF9008951F93CF93DF93EC016BE30E944C
:10152000E908182FCE016CE30E94E908282F30E06B
:101530004DAD433081F5912F80E0282B392B87E981
:10154000263938072CF426E737E241E050E816C088
:1015500088E62B3638072CF02AE838ED4EEF5FE7A7
:101560000DC0B901882777FD8095982F21ED39E3CB
:1015700041E050E00E94EF229B01AC018C859D85EB
:10158000AE85BF85820F931FA41FB51F88839983E3
:10159000AA83BB8325C0712F60E0622B732B882741
:1015A00077FD8095982FE3E0F0E0E41BF10921ED51
:1015B00039E341E050E004C05595479537952795AC
:1015C000EA95D2F70E94EF222C853D854E855F85F6
:1015D000260F371F481F591F288339834A835B838F
:1015E000CE016DE30E94E908182FCE016EE30E9440
:1015F000E908282F30E04DAD433009F03FC0912F6E
:1016000080E0822B932BAA2797FDA095BA2F222743
:101610003327A901281B390B4A0B5B0B263987E9B5
:1016200038078FEF48078FEF58072CF426E737E28B
:1016300041E050E816C0CA01B9016B3628E67207CE
:1016400020E0820720E0920724F06AE678E680E056
:1016500090E021ED39E341E050E00E94EF229B0150
:10166000AC0188899989AA89BB89820F931FA41F1D
:10167000B51F8C839D83AE83BF832CC0712F60E028
:10168000622B732B882777FD8095982F90958095F6
:10169000709561957F4F8F4F9F4FE3E0F0E0E41B23
:1016A000F10921ED39E341E050E004C0559547953B
:1016B00037952795EA95D2F70E94EF222889398934
:1016C0004A895B89260F371F481F591F2C833D838A
:1016D0004E835F83CE016FE30E94E908182FCE018D
:1016E00060E40E94E908282F30E04DAD433009F056
:1016F0003FC0912F80E0822B932BAA2797FDA095C6
:10170000BA2F22273327A901281B390B4A0B5B0B61
:10171000263987E938078FEF48078FEF58072CF4F1
:1017200026E737E241E050E816C0CA01B9016B363E
:1017300028E6720720E0820720E0920724F06AE69C
:1017400078E680E090E021ED39E341E050E00E944E
:10175000EF229B01AC018C899D89AE89BF89820FE4
:10176000931FA41FB51F88879987AA87BB872CC0A2
:10177000712F60E0622B732B882777FD8095982F5F
:1017800090958095709561957F4F8F4F9F4FE3E0C7
:10179000F0E0E41BF10921ED39E341E050E004C041
:1017A0005595479537952795EA95D2F70E94EF22F0
:1017B0002C893D894E895F89260F371F481F591F85
:1017C000288739874A875B87CE010E94E3098AAD63
:1017D000882319F08AAD81508AAFDF91CF911F9194
:1017E0000895CF93DF93EC010E948A0A8AAD8F5F40
:1017F0008AAFCE010E9401098AAD8F5F8AAF8AADA0
:10180000882319F08AAD81508AAFDF91CF91089576
:10181000CF92DF92EF92FF920F931F93CF93DF93BC
:10182000EC017B01142FD22EC02E2CAF0DAF84E023
:1018300061E00E945C2284E061E00E949B220E94A1
:101840001E0881E00E940D086AE070E080E090E0F0
:101850000E94C821CE016BE640E80E94CA0964E6F6
:1018600070E080E090E00E94C821CE016BE643E08A
:101870000E94CA0961E070E080E090E00E94C82107
:10188000CE016AE640E10E94CA0961E070E080E0B2
:1018900090E00E94C821CE0165E70E94E9088E779A
:1018A0008BAF1330F1F0143028F4113091F0123076
:1018B000A0F407C01530E9F01530B8F01630A1F5E6
:1018C0001CC0CE016AE140E00E94CA0980E49FE1A9
:1018D0001BC0CE016AE141E013C0CE016AE142E0E3
:1018E0000FC0CE016AE143E00BC0CE016AE144E0E3
:1018F00007C0CE016AE145E003C0CE016AE146E0DF
:101900000E94CA0988EE93E0B7010E940E23611578
:10191000710519F16F3F710519F010F06FEF70E06C
:10192000162F115001E01BC0CE016AE140E00E9479
:10193000CA0980E49FE1B7010E940E236115710579
:1019400011F400E00BC06F3F710519F010F06FEF5C
:1019500070E0162F115000E002C001E010E061E0DD
:1019600070E080E090E00E94C821CE0169E1412F43
:101970000E94CA0961E070E080E090E00E94C82106
:1019800081E0D81669F0D81638F082E0D81671F0E8
:1019900083E0D81699F40EC0CE016BE140E003C09D
:1019A000CE016BE148E00E94CA0910C0CE016BE194
:1019B00040E1F9CFCE016BE148E1F5CFCE016BE11B
:1019C00040E10E94CA0982E08CAF00E061E070E073
:1019D00080E090E00E94C82181E0C81669F0C81636
:1019E00038F082E0C81671F083E0C81699F40EC092
:1019F000CE016CE140E003C0CE016CE148E00E9402
:101A0000CA0910C0CE016CE140E1F9CFCE016CE112
:101A100048E1F5CFCE016CE148E00E94CA0981E0BF
:101A20008DAF00E061E070E080E090E00E94C821AE
:101A3000CE0168E341E00E94CA0961E070E080E005
:101A400090E00E94C821CE0167E340E10E94CA09EC
:101A500061E070E080E090E00E94C82180E06EEDDF
:101A600078E043E050E00E94CE20802FDF91CF91BC
:101A70001F910F91FF90EF90DF90CF900895FC01A0
:101A8000148215821682178214861586168617868A
:101A9000108211821282138210861186128613869A
:101AA00010AA11AA12AA13AA10AE11AE12AE13AE4A
:101AB00014AA15AA16AA17AA14AE15AE16AE17AE1A
:101AC000108A118A128A138A148A158A168A178A2A
:101AD000108E118E128E138E148E158E168E178EFA
:101AE00010A211A212A213A214A215A216A217A24A
:101AF00010A611A612A613A614A615A616A617A61A
:101B000008954F925F926F927F928F929F92AF92C1
:101B1000BF92CF92DF92EF92FF920F931F93DF93CA
:101B2000CF93CDB7DEB7FC014083518362837383CB
:101B30008B899C89AD89BE894F88588C698C7A8C39
:101B4000048315832683378384869586A686B78685
:101B5000C086D186E286F38680AB91ABA2ABB3ABF5
:101B600080AF91AFA2AFB3AF44AA55AA66AA77AA35
:101B700044AE55AE66AE77AE2B8D3C8D4D8D5E8DF1
:101B8000208B318B428B538B148A158A168A178AC5
:101B9000108E118E128E138E4F8D58A169A17AA1CD
:101BA000448F558F668F778F6B8D7C8D8D8D9E8D3D
:101BB00060A371A382A393A314A215A216A217A2D5
:101BC00010A611A612A613A68F8D98A1A9A1BAA13D
:101BD00084A795A7A6A7B7A7CF91DF911F910F91D3
:101BE000FF90EF90DF90CF90BF90AF909F908F903D
:101BF0007F906F905F904F900895FC0160AD71AD44
:101C000082AD93AD0895FC0164AD75AD86AD97AD21
:101C10000895FC0120A931A942A953A920AF31AFF1
:101C200042AF53AF84A995A9A6A9B7A984AF95AF30
:101C3000A6AFB7AF2B368FE3380784E2480783E0BF
:101C400058072CF0255D3E47484456400CC02639C5
:101C500080EC38078BED48078CEF580744F42B5283
:101C60003148474B594F20AF31AF42AF53AF808916
:101C70009189A289B38980A391A3A2A3B3A38489E4
:101C80009589A689B78984A395A3A6A3B7A3808DB8
:101C9000918DA28DB38D80A791A7A2A7B3A7848DA4
:101CA000958DA68DB78D84A795A7A6A7B7A70895EC
:101CB0008CE594E00E943F0D8CE994E00E943F0D7A
:101CC0008CED94E00E943F0D08952F923F924F9229
:101CD0005F926F927F928F929F92AF92BF92CF92BC
:101CE000DF92EF92FF920F931F93DF93CF9300D079
:101CF00000D000D0CDB7DEB79E838D8378018901F7
:101D000014161506160617062CF020E130E040E008
:101D100050E01AC0493332E453073FE0630730E034
:101D2000730724F048E352E46FE070E0CB01BA019E
:101D300027EC30E140E050E00E94EF22272F382FBF
:101D4000492F552747FD5A9529833A834B835C8356
:101D5000E114F1040105110519F5AD81BE81D89694
:101D6000ED90FD900D911C91DB97DC966D917D912E
:101D70008D919C91DF9729813A814B815C810E94F2
:101D80001E03E60EF71E081F191FED81FE81E0AA53
:101D9000F1AA02AB13AB84AD95ADA6ADB7AD3EC015
:101DA000C801B70129813A814B815C810E941E03E1
:101DB0003B014C01AD81BE81D896AD90BD90CD90D8
:101DC000DC90DB97DC966D917D918D919C91DF97F6
:101DD00029813A814B815C810E941E037B018C0129
:101DE000C401B30129813A814B815C810E941E03A9
:101DF000E60EF71E081F191FAE0CBF1CC01ED11E19
:101E0000ED81FE81A0AAB1AAC2AAD3AA84AD95ADE4
:101E1000A6ADB7AD860D971DA81DB91D84AB95ABBA
:101E2000A6ABB7ABED81FE8180A991A9A2A9B3A908
:101E30008B36FFE39F07F4E2AF07F3E0BF072CF018
:101E4000855D9E47A844B6400CC08639F0EC9F07DC
:101E5000FBEDAF07FCEFBF0754F48B529148A74B43
:101E6000B94FED81FE8180AB91ABA2ABB3ABAD813D
:101E7000BE819C966D917D918D919C919F972981BA
:101E80003A814B815C810E941E035B016C01ED81F4
:101E9000FE81E0A0F1A002A113A164A175A186A119
:101EA00097A129813A814B815C810E941E031B010D
:101EB0002C01AD81BE8198966D917D918D919C9103
:101EC0009B9729813A814B815C810E941E033B01D3
:101ED0004C0169817A818B819C81A60195010E94C8
:101EE0001E03ED81FE812081318142815381E20E0A
:101EF000F31E041F151FE20CF31C041D151DE60C38
:101F0000F71C081D191DE60EF71E081F191FE08A91
:101F1000F18A028B138B84A195A1A6A1B7A18A0D8A
:101F20009B1DAC1DBD1D848B958BA68BB78B80A58F
:101F300091A5A2A5B3A58A0D9B1DAC1DBD1D808FCB
:101F4000918FA28FB38F84819581A681B78124A5BB
:101F500035A546A557A5820F931FA41FB51F848FD3
:101F6000958FA68FB78F26960FB6F894DEBF0FBE5B
:101F7000CDBFCF91DF911F910F91FF90EF90DF9038
:101F8000CF90BF90AF909F908F907F906F905F9019
:101F90004F903F902F9008950F931F9300E010E013
:101FA00020E030E00E94650E1F910F9108950F937D
:101FB0001F938C010E94CC0FC8010E94090E1F9133
:101FC0000F9108952F923F924F925F926F927F925E
:101FD0008F929F92AF92BF92CF92DF92EF92FF9239
:101FE0000F931F93DF93CF93CDB7DEB7A2970FB6B2
:101FF000F894DEBF0FBECDBF9AA389A31A012B01AF
:10200000FC0180A991A9A2A9B3A9281A390A4A0AF0
:102010005B0A84A995A9A6A9B7A9A9019801281BBB
:10202000390B4A0B5B0B2D8F3E8F4F8F58A360856A
:102030007185828593852089318942895389620F10
:10204000731F841F951F2485358546855785E48C2D
:10205000F58C068D178D2E0D3F1D401F511F0E94C0
:102060001E037B018C01A9A1BAA154966D917D91AB
:102070008D919C91579758962D913D914D915C91E2
:102080005B970E941E03E61AF70A080B190B60E023
:1020900070E080E091E0A80197010E94E3033B011A
:1020A0004C01E9A1FAA16089718982899389248D03
:1020B000358D468D578D0E941E035B016C01A9A1D1
:1020C000BAA154966D917D918D919C915797589698
:1020D0002D913D914D915C915B970E941E037B0178
:1020E0008C01E9A1FAA1608971898289938924858B
:1020F0003585468557850E941E039B01AC012A0D3C
:102100003B1D4C1D5D1D2E193F09400B510BC40199
:10211000B3010E941E03698F7A8F8B8F9C8F698316
:102120007A838B839C83A9A1BAA154966D917D91EA
:102130008D919C91579718962D913D914D915C9161
:102140001B970E941E039B01AC01C401B3010E94B6
:102150001E036D8B7E8B8F8B988F6D837E838F8319
:102160009887E9A1FAA1608D718D828D938D248568
:102170003585468557850E941E039B01AC01C4012D
:10218000B3010E941E03698B7A8B8B8B9C8B6987B2
:102190007A878B879C87A9A1BAA150966D917D9172
:1021A0008D919C9153975C962D913D914D915C91B1
:1021B0005F970E941E035B016C01E9A1FAA164898B
:1021C000758986899789208D318D428D538D0E9426
:1021D0001E037B018C01A9A1BAA15C966D917D9132
:1021E0008D919C915F9718962D913D914D915C91A9
:1021F0001B970E941E039B01AC012A0D3B1D4C1D29
:102200005D1D2E193F09400B510BC401B3010E9403
:102210001E033B014C016D877E878F87988BE9A158
:10222000FAA1A0A8B1A8C2A8D3A8698D7A8D8B8D78
:102230009C8DA20191010E941E037B018C016D897E
:102240007E898F89988D2D8D3E8D4F8D58A10E944E
:102250001E03E60EF71E081F191FAE0CBF1CC01E82
:10226000D11EA9A1BAA1D896AD92BD92CD92DC9211
:10227000DB97D496AD90BD90CD90DC90D797C401FC
:10228000B301A20191010E941E037B018C016989A7
:102290007A898B899C892D8D3E8D4F8D58A10E9406
:1022A0001E03E60EF71E081F191FAE0CBF1CC01E32
:1022B000D11EE9A1FAA1A4AEB5AEC6AED7AE80AD2F
:1022C00091ADA2ADB3AD8B36FFE39F07F4E2AF074C
:1022D000F3E0BF072CF0855D9E47A844B6400CC0D4
:1022E0008639F0EC9F07FBEDAF07FCEFBF0754F416
:1022F0008B529148A74BB94FE9A1FAA180AF91AF9A
:10230000A2AFB3AFA9A1BAA15096ED90FD900D91E7
:102310001C915397C801B701298D3A8D4B8D5C8D67
:102320000E941E035B016C01E9A1FAA1608D718D11
:10233000828D938D2D893E894F89588D0E941E0371
:10234000EA18FB080C091D09E61AF70A080B190B15
:10235000A9A1BAA19096ED92FD920D931C9393972B
:102360005496ED90FD900D911C915797C801B701BF
:10237000298D3A8D4B8D5C8D0E941E035B016C0193
:10238000E9A1FAA1648D758D868D978D2D893E8981
:102390004F89588D0E941E03EA18FB080C091D097D
:1023A000E61AF70A080B190BA9A1BAA19496ED92A7
:1023B000FD920D931C9397975896ED90FD900D917B
:1023C0001C915B9750966D917D918D919C91539747
:1023D00029893A894B895C890E941E035B016C0143
:1023E000E9A1FAA1608D718D828D938DA401930175
:1023F0000E941E03EA18FB080C091D09E61AF70AD9
:10240000080B190BA9A1BAA19896ED92FD920D9314
:102410001C939B975C96ED90FD900D911C915F979E
:1024200054966D917D918D919C91579729893A8908
:102430004B895C890E941E035B016C01E9A1FAA132
:10244000648D758D868D978DA40193010E941E0366
:10245000EA18FB080C091D09E61AF70A080B190B04
:10246000A9A1BAA19C96ED92FD920D931C939F9702
:10247000A2960FB6F894DEBF0FBECDBFCF91DF910D
:102480001F910F91FF90EF90DF90CF90BF90AF9092
:102490009F908F907F906F905F904F903F902F9084
:1024A00008956F927F928F929F92AF92BF92CF9238
:1024B000DF92EF92FF920F931F933C014801590165
:1024C0000E94CC0FC301B501A401970186010E94AF
:1024D000E20F1F910F91FF90EF90DF90CF90BF9090
:1024E000AF909F908F907F906F9008952F923F9222
:1024F0004F925F926F927F928F929F92AF92BF9214
:10250000CF92DF92EF92FF920F931F93CF93DF93BF
:10251000EC015A016B018CA99DA9AEA9BFA9A81A0B
:10252000B90ACA0ADB0A2C853D854E855F858C8DEC
:102530009D8DAE8DBF8D280F391F4A1F5B1F60E038
:1025400070E080E091E00E94E3037B018C012C8924
:102550003D894E895F890E941E033B014C012C8DF1
:102560003D8D4E8D5F8DC801B7010E941E031B017A
:102570002C01E8A8F9A80AA91BA9C401B301A60166
:1025800095010E941E03E60EF71E081F191FE8AEF4
:10259000F9AE0AAF1BAFECA8FDA80EA91FA9C20196
:1025A000B101A60195010E941E03E60EF71E081F49
:1025B000191FECAEFDAE0EAF1FAF88AD99ADAAAD41
:1025C000BBAD8B362FE3920724E2A20723E0B207CC
:1025D0002CF0855D9E47A844B6400CC0863920EC9F
:1025E00092072BEDA2072CEFB20744F48B529148CF
:1025F000A74BB94F88AF99AFAAAFBBAFE888F988AE
:102600000A891B89688D798D8A8D9B8DA401930120
:102610000E941E03E61AF70A080B190BE8A2F9A29A
:102620000AA31BA3EC88FD880E891F896C8D7D8D04
:102630008E8D9F8DA40193010E941E03E61AF70A56
:10264000080B190BECA2FDA20EA31FA3E88CF98CBA
:102650000A8D1B8DC801B701A20191010E941E03C2
:10266000E61AF70A080B190BE8A6F9A60AA71BA792
:10267000EC8CFD8C0E8D1F8DC801B701A20191015C
:102680000E941E03E61AF70A080B190BECA6FDA61A
:102690000EA71FA7DF91CF911F910F91FF90EF9091
:1026A000DF90CF90BF90AF909F908F907F906F9072
:1026B0005F904F903F902F900895AF92BF92CF922E
:1026C000DF92EF92FF920F931F937C0158016901F3
:1026D0000E94CC0FC701B601A5010E9476121F917E
:1026E0000F91FF90EF90DF90CF90BF90AF90089543
:1026F0002F923F924F925F926F927F928F929F9212
:10270000AF92BF92CF92DF92EF92FF920F931F93FF
:10271000CF93DF93EC015A016B0188A999A9AAA96B
:10272000BBA9A81AB90ACA0ADB0A288539854A85CD
:102730005B8588899989AA89BB89280F391F4A1F17
:102740005B1F60E070E080E091E00E94E3037B01AA
:102750008C01288939894A895B890E941E033B01C3
:102760004C01288D398D4A8D5B8DC801B7010E94BF
:102770001E031B012C01E8A8F9A80AA91BA9C40182
:10278000B301A60195010E941E03E60EF71E081F65
:10279000191FE8AEF9AE0AAF1BAFECA8FDA80EA951
:1027A0001FA9C201B101A60195010E941E03E60EF8
:1027B000F71E081F191FECAEFDAE0EAF1FAF88ADA0
:1027C00099ADAAADBBAD8B362FE3920724E2A207E9
:1027D00023E0B2072CF0855D9E47A844B6400CC0AC
:1027E000863920EC92072BEDA2072CEFB20744F4B8
:1027F0008B529148A74BB94F88AF99AFAAAFBBAFE7
:10280000E888F9880A891B89C801B701A4019301E6
:102810000E941E03E61AF70A080B190BE8A2F9A298
:102820000AA31BA3EC88FD880E891F89C801B70184
:10283000A40193010E941E03E61AF70A080B190B64
:10284000ECA2FDA20EA31FA3E88CF98C0A8D1B8DB0
:10285000688979898A899B89A20191010E941E0356
:10286000E61AF70A080B190BE8A6F9A60AA71BA790
:10287000EC8CFD8C0E8D1F8D6C897D898E899F89D6
:10288000A20191010E941E03E61AF70A080B190B18
:10289000ECA6FDA60EA71FA7DF91CF911F910F9168
:1028A000FF90EF90DF90CF90BF90AF909F908F9070
:1028B0007F906F905F904F903F902F900895AF92D0
:1028C000BF92CF92DF92EF92FF920F931F937C0102
:1028D000580169010E94CC0FC701B601A5010E94F1
:1028E00078131F910F91FF90EF90DF90CF90BF90E2
:1028F000AF900895CF92DF92EF92FF92FC01C786CE
:10290000D08AE18AF28AFF90EF90DF90CF9008950D
:10291000FC0143A354A365A376A30895FC0187A1FA
:102920000895809143058F5F809343050895109229
:102930001C0510921D0510921E0510922B05109279
:102940002C0510922D0510922E0510922F05109235
:102950003005109231051092320510923305109215
:102960003405109235051092360510921F0510920D
:102970002005109221051092220510922305109235
:102980002405109225051092260510922705109215
:1029900028051092290510922A0510923F051092E1
:1029A0004005109241051092420510923B0510928D
:1029B0003C0510923D0510923E058FE19CE3A0E09E
:1029C000B0E08093370590933805A0933905B09314
:1029D0003A05109243050895EF92FF920F931F93CB
:1029E000162F042F82E1E82E84E0F82EC7016EE155
:1029F00070E00E942807C701612F0E94AA07C70143
:102A0000602F0E94AA07C7010E94ED071F910F9136
:102A1000FF90EF9008950F931F93CF93DF93162F9E
:102A2000042FE90182E194E06EE170E00E94280742
:102A300082E194E0612F0E94AA0782E194E00E9463
:102A4000ED0782E194E06EE1402F0E94FE0710E066
:102A500009C082E194E00E943B07FE01E10FF11DF5
:102A600080831F5F82E194E00E943207892B89F7FF
:102A700082E194E00E94ED0780E0101709F481E004
:102A8000DF91CF911F910F910895BF92CF92DF9266
:102A9000EF92FF920F931F93DF93CF9300D000D05C
:102AA00000D0CDB7DEB76C0163E046E09E012F5F3A
:102AB0003F4F0E940B15882309F480C0998180E064
:102AC0002A8130E0822B932B22273327281B390BB6
:102AD000C9018050984F8050904110F0BB241BC01A
:102AE000B901882777FD8095982FF601238D348DC5
:102AF000458D568D0E94EF22F60127853089418948
:102B00005289260F371F481F591F2383348345835B
:102B10005683BB24B394F601E388F48805891689AB
:102B20009D8180E02E8130E0282B392B2E0D3F1D1A
:102B3000C9018050984F8050904110F0BB2415C0BF
:102B4000B901882777FD8095982FF601238D348D64
:102B5000458D568D0E94EF22E60EF71E081F191FA5
:102B6000F601E782F08601871287F601E788F08C8C
:102B7000018D128D9B8180E02C8130E0282B392B38
:102B80002E0D3F1DC9018050984F80509041B0F4E8
:102B9000B901882777FD8095982FF601238D348D14
:102BA000458D568D0E94EF22E60EF71E081F191F55
:102BB000F601E386F4860587168701C0BB24F6017B
:102BC00087A1882319F087A1815087A38B2D269692
:102BD0000FB6F894DEBF0FBECDBFCF91DF911F912E
:102BE0000F91FF90EF90DF90CF90BF9008952F92BC
:102BF0003F924F925F926F927F928F929F92AF928D
:102C0000BF92CF92DF92EF92FF920F931F93DF93C9
:102C1000CF93CDB7DEB72E970FB6F894DEBF0FBEB9
:102C2000CDBF9E878D8778018901CB01BA01AE01A6
:102C30004F5F5F4F0E94660469877A878B879C8706
:102C4000C801B701AE014B5F5F4F0E9466041B01D4
:102C50002C01ED85FE85278130854185528569856A
:102C60007A858B859C850E941E033B014C016981FE
:102C70007A818B819C81ED85FE8523853485458510
:102C800056850E941E035B016C01ED85FE85638104
:102C90007481858196812D813E814F8158850E9466
:102CA0001E037B018C01C401B301A20191010E94AA
:102CB0001E033B014C01C601B501A20191010E9416
:102CC0001E036E0C7F1C801E911E660E771E881ED2
:102CD000991EED85FE8567817085818592852981A4
:102CE0003A814B815C810E941E037B018C01ED8542
:102CF000FE85638574858585968529853A854B850E
:102D00005C850E941E03E61AF70A080B190B97FC54
:102D100016C022273327A9012E193F09400B510B5A
:102D2000C401B3010E947C05ED85FE8523A134A179
:102D300045A156A1621B730B840B950B19C0662726
:102D40007727CB016619770988099909A8019701A6
:102D50000E947C05ED85FE8523A134A145A156A1E5
:102D6000621B730B840B950B6659704C8B4D9C4FFB
:102D7000678F70A381A392A3ED85FE85878D90A1B7
:102D8000A1A1B2A18639F0EC9F07FBEDAF07FCEFE4
:102D9000BF072CF48B529148A74BB94F0CC08B3610
:102DA000FFE39F07F4E2AF07F3E0BF0754F0855D50
:102DB0009E47A844B640ED85FE85878F90A3A1A3CA
:102DC000B2A3ED85FE85678D70A181A192A12E969B
:102DD0000FB6F894DEBF0FBECDBFCF91DF911F912C
:102DE0000F91FF90EF90DF90CF90BF90AF909F90AA
:102DF0008F907F906F905F904F903F902F900895AD
:102E0000DF92EF92FF920F931F93CF93DF93EC012A
:102E1000F62E142FD22E82E194E00E9402086AE07E
:102E200070E080E090E00E94C821CE016AE043E0BB
:102E30009E010E940B15682F90E08881883409F06C
:102E400091E020E08981843309F021E0922B292F41
:102E500030E040E050E08A81833311F041E050E0FF
:102E6000242B352B232B11F0EE2404C0862F611167
:102E700081E0E82E81E0F81649F0F81648F082E08B
:102E8000F81641F083E0F81639F407C040E206C0B6
:102E900040E004C040E402C0EE2440E6133099F064
:102EA000143028F4113059F0123058F413C0153092
:102EB00071F0153050F04861163059F40BC0446081
:102EC00009C0486007C04C6005C0406103C0446150
:102ED00001C0EE2481E0D81639F0D81640F082E027
:102EE000D81621F0EE2403C0416001C04260CE013B
:102EF00060E00E94EC1462E370E080E090E00E94E9
:102F0000C821033079F1043028F40130C1F00230D7
:102F1000F8F40BC00530D1F1053070F1063009F43A
:102F20003FC0073009F050C045C086ED9FE2A0E0E9
:102F3000B0E08B8F9C8FAD8FBE8F40E04FC08FE194
:102F40009CE3A0E0B0E08B8F9C8FAD8FBE8F45C01F
:102F50008CEE9FE4A0E0B0E08B8F9C8FAD8FBE8F96
:102F600040E43CC08CE493E6A0E0B0E08B8F9C8F03
:102F7000AD8FBE8F40E632C082EF94E9A0E0B0E0B2
:102F80008B8F9C8FAD8FBE8F40E828C08AE098EA77
:102F9000A0E0B0E08B8F9C8FAD8FBE8F40EA1EC04B
:102FA00088E996ECA0E0B0E08B8F9C8FAD8FBE8F50
:102FB00040EC14C080EF9CE1A1E0B0E08B8F9C8FCF
:102FC000AD8FBE8F40EE0AC08FE19CE3A0E0B0E081
:102FD0008B8F9C8FAD8FBE8FEE2440E2CE0161E0DF
:102FE0000E94EC1462E370E080E090E00E94C8214F
:102FF000CE0162E040E00E94EC1462E370E080E009
:1030000090E00E94C82181E061E974E143E050E072
:103010000E94CE208E2DDF91CF911F910F91FF90B6
:10302000EF90DF9008950E94A221209144053091F5
:1030300045054091460550914705621B730B840B73
:10304000950B60547F418040904030F10E94A22156
:103050002091440530914505409146055091470522
:10306000621B730B840B950B6093480570934905A5
:1030700080934A0590934B050E94A22160934405DA
:103080007093450580934605909347050E94D11C97
:103090000E948C1B0E945D1908954F925F926F925F
:1030A0007F928F929F92AF92BF92CF92DF92EF92D8
:1030B000FF920F931F9383E196E040E056E960E0B2
:1030C00070E00E94051E8EE194E060E971E040E04E
:1030D00022E001E00E94080C882329F083E196E0B9
:1030E00060E071E004C083E196E064E271E00E9478
:1030F000BB208EE194E040E050E060E070E000E052
:1031000010E020E030E0CC24DD2476010E94770836
:103110008EE194E040E050E060E070E000E010E01C
:1031200020E030E00E9491088CE195E063E046E009
:1031300020E001E00E940017882329F083E196E057
:1031400065E471E004C083E196E069E671E00E9405
:10315000BB208CE195E040E050E060E070E000E0F2
:1031600010E020E030E0CC24DD2476010E947A14C7
:103170008CE195E040E050E060E070E00E9488144F
:103180008DB79EB740970FB6F8949EBF0FBE8DBF08
:10319000EDB7FEB73196ADB7BEB711961D921D9231
:1031A0001D921C9214971482158216821782412C4C
:1031B000512CA0E46A2E712C40865186628673865B
:1031C00044865586668677868CE594E040E050E03C
:1031D00060E470E000E010E020E430E0C12CD12C8D
:1031E000F0E4EF2EF12C812C912CE0E4AE2EB12CEA
:1031F0000E94810DEDB7FEB73196ADB7BEB71196FF
:103200001D921D921D921C92149714821582168293
:103210001782408651866286738644865586668606
:1032200077868CE994E040E050E060E470E000E0F4
:1032300010E020E430E00E94810DEDB7FEB731963A
:10324000ADB7BEB711961D921D921D921C92149798
:103250001482158216821782408651866286738692
:1032600044865586668677868CED94E040E050E093
:1032700060E470E000E010E020E430E00E94810DA6
:103280008DB79EB740960FB6F8949EBF0FBE8DBF08
:1032900083E196E06AE871E00E94BB201F910F91E4
:1032A000FF90EF90DF90CF90BF90AF909F908F9066
:1032B0007F906F905F904F90089580918A058F5F07
:1032C00080938A05893108F426C210928A0583E129
:1032D00096E06BE871E00E94BB2040914805509158
:1032E000490560914A0570914B0583E196E02AE01B
:1032F00030E00E94562083E196E063E872E00E948D
:10330000B82060914E0570914F05809150059091C5
:103310005105AFE09595879577956795AA95D1F773
:1033200027E932E740E050E00E94EF229B01AC0128
:10333000F2E15595479537952795FA95D1F783E1B1
:1033400096E0B9014AE050E00E94A52083E196E0B2
:103350006AE872E00E94B8206091520570915305AE
:103360008091540590915505EFE095958795779557
:103370006795EA95D1F727E932E740E050E00E94EF
:10338000EF229B01AC0162E1559547953795279552
:103390006A95D1F783E196E0B9014AE050E00E94D6
:1033A000A52083E196E06AE872E00E94B82060916F
:1033B00056057091570580915805909159052FE059
:1033C00095958795779567952A95D1F727E932E7FF
:1033D00040E050E00E94EF229B01AC01B2E1559524
:1033E000479537952795BA95D1F783E196E0B901CE
:1033F0004AE050E00E94A52083E196E06AE872E08E
:103400000E94B820609166057091670580916805FB
:1034100090916905AFE09595879577956795AA9501
:10342000D1F727E932E740E050E00E94EF229B010C
:10343000AC01F2E15595479537952795FA95D1F767
:1034400083E196E0B9014AE050E00E94A52083E1C3
:1034500096E066E972E00E94B82060916A0570917A
:103460006B0580916C0590916D05EFE095958795C2
:1034700077956795EA95D1F727E932E740E050E084
:103480000E94EF229B01AC0162E15595479537956B
:1034900027956A95D1F783E196E0B9014AE050E0BB
:1034A0000E94A52083E196E066E972E00E94B820C0
:1034B00060916E0570916F05809170059091710516
:1034C0002FE095958795779567952A95D1F727E908
:1034D00032E740E050E00E94EF229B01AC01B2E1F4
:1034E0005595479537952795BA95D1F783E196E09D
:1034F000B9014AE050E00E94A52083E196E06FE91F
:1035000072E00E94B82060917E0570917F058091E5
:10351000800590918105AFE09595879577956795A2
:10352000AA95D1F727E932E740E050E00E94EF2268
:103530009B01AC01F2E15595479537952795FA9592
:10354000D1F783E196E0B9014AE050E00E94A5205E
:1035500083E196E067EA72E00E94B82060918205FC
:10356000709183058091840590918505EFE0959594
:10357000879577956795EA95D1F727E932E740E097
:1035800050E00E94EF229B01AC0162E15595479506
:10359000379527956A95D1F783E196E0B9014AE01E
:1035A00050E00E94A52083E196E06AE872E00E9464
:1035B000B82060918605709187058091880590916B
:1035C00089052FE095958795779567952A95D1F789
:1035D00027E932E740E050E00E94EF229B01AC0176
:1035E000B2E15595479537952795BA95D1F783E17F
:1035F00096E0B9014AE050E00E94A52083E196E000
:1036000061EB72E00E94B8206091720570917305C1
:103610008091740590917505AFE0959587957795A4
:103620006795AA95D1F727E932E740E050E00E947C
:10363000EF229B01AC01F2E155954795379527950F
:10364000FA95D1F783E196E0B9014AE050E00E9493
:10365000A52083E196E066E972E00E94B8206091BF
:103660007605709177058091780590917905EFE066
:103670009595879577956795EA95D1F727E932E78C
:1036800040E050E00E94EF229B01AC0162E15595C1
:103690004795379527956A95D1F783E196E0B9016B
:1036A0004AE050E00E94A52083E196E067EA72E0DC
:1036B0000E94B82060917A0570917B0580917C050D
:1036C00090917D052FE095958795779567952A953B
:1036D000D1F727E932E740E050E00E94EF229B015A
:1036E000AC0182E155954795379527958A95D1F795
:1036F00083E196E0B9014AE050E00E94A52083E111
:1037000096E06CEB72E00E94BB2083E196E06CEBEC
:1037100072E00E94BB200895CF92DF92EF92FF9259
:103720000F931F9380914C0590914D05882309F4C8
:103730007DC0409148055091490560914A057091BE
:103740004B05992309F44DC000916605109167055A
:103750002091680530916905C0904E05D0904F05C5
:10376000E0905005F09051058CE594E00E945112D4
:10377000409148055091490560914A0570914B056B
:1037800000916A0510916B0520916C0530916D05D3
:10379000C0905205D0905305E0905405F090550527
:1037A0008CE994E00E9451124091480550914905DE
:1037B00060914A0570914B0500916E0510916F055F
:1037C0002091700530917105C0905605D090570535
:1037D000E0905805F09059058CED94E00E9451124C
:1037E00091C08CE594E00E94D70F4091480550911C
:1037F000490560914A0570914B058CE994E00E945F
:10380000D70F409148055091490560914A05709144
:103810004B0500916E0510916F0520917005309158
:1038200071058CED94E00E945F146CC040914805D6
:103830005091490560914A0570914B05992309F40F
:1038400045C000916605109167052091680530918B
:103850006905C0904E05D0904F05E0905005F0905E
:1038600051058CE594E00E94511240914805509119
:10387000490560914A0570914B0500916A051091C8
:103880006B0520916C0530916D05C0905205D0906C
:103890005305E0905405F09055058CE994E00E94A2
:1038A0005112409148055091490560914A05709127
:1038B0004B05009156051091570520915805309100
:1038C00059058CED94E00E945D131CC08CE594E0DA
:1038D0000E94D70F409148055091490560914A05D3
:1038E00070914B058CE994E00E94D70F40914805F8
:1038F0005091490560914A0570914B058CED94E01B
:103900000E94D70F8CE594E00E94FD0D6093720534
:103910007093730580937405909375058CE994E01A
:103920000E94FD0D6093760570937705809378056E
:10393000909379058CED94E00E94FD0D60937A05DB
:1039400070937B0580937C0590937D058CE594E0D6
:103950000E94030E60937E0570937F05809380051F
:10396000909381058CE994E00E94030E6093820598
:103970007093830580938405909385058CED94E086
:103980000E94030E609386057093870580938805D7
:10399000909389051F910F91FF90EF90DF90CF904A
:1039A00008950F931F938CE195E00E948E14882355
:1039B00061F18CE195E00E944515882301F1409169
:1039C00072055091730560917405709175050091B1
:1039D00076051091770520917805309179058CE175
:1039E00095E00E94F71560936E0570936F058093C4
:1039F00070059093710581E080934C0508C083E1C8
:103A000096E06DEB72E00E94BB2010924C058EE1B7
:103A100094E00E94DB08882309F468C08EE194E0FA
:103A20000E94F10B8EE194E00E94BD0860934E0568
:103A300070934F0580935005909351058EE194E06B
:103A40000E94C308609352057093530580935405F8
:103A5000909355058EE194E00E94C9086093560545
:103A60007093570580935805909359058EE194E023
:103A70000E94AB0860935A0570935B0580935C05C8
:103A800090935D058EE194E00E94B10860935E051D
:103A900070935F0580936005909361058EE194E0DB
:103AA0000E94B70860936205709363058093640574
:103AB000909365058EE194E00E94CF0860936605BF
:103AC0007093670580936805909369058EE194E093
:103AD0000E94D50860936A0570936B0580936C050E
:103AE00090936D0581E080934D0502C010924D05C5
:103AF0001F910F91089508951F920F920FB60F9284
:103B000011242F933F934F938F939F93EF93FF93A2
:103B10008091C00082FD1DC04091C6002091CB0560
:103B20003091CC052F5F3F4F2F7330708091CD05C2
:103B30009091CE052817390771F0E091CB05F091EF
:103B4000CC05E557FA4F40833093CC052093CB0545
:103B500002C08091C600FF91EF919F918F914F918C
:103B60003F912F910F900FBE0F901F901895E091ED
:103B70001F06F0912006E05CFF4F8191919120811A
:103B80003181821B930B8F739070892B11F00E94EF
:103B90007B1D08951F920F920FB60F9211242F9341
:103BA0003F938F939F93EF93FF9320910F06309154
:103BB000100680911106909112062817390731F4EA
:103BC0008091C1008F7D8093C10014C0E0911106E7
:103BD000F0911206E153FA4F2081809111069091E5
:103BE000120601968F7390709093120680931106BF
:103BF0002093C600FF91EF919F918F913F912F915C
:103C00000F900FBE0F901F901895AF92BF92DF924A
:103C1000EF92FF920F931F93CF93DF93EC017A0102
:103C20008B01DD24403081EE580780E0680780E09A
:103C3000780711F0DD24D39491E0A92EB12CEC8902
:103C4000FD89DD2069F0C50108A002C0880F991F19
:103C50000A94E2F7808360E079E08DE390E005C0AC
:103C6000108260E874E88EE190E0A80197010E945C
:103C7000222321503040404050405695479537957B
:103C8000279580E12030380720F0DD2011F0DD2479
:103C9000D6CFE889F9893083EA89FB89208319A284
:103CA000EE89FF89408121E030E0C9010C8C02C01F
:103CB000880F991F0A94E2F7482B4083EE89FF8909
:103CC0004081C9010D8C02C0880F991F0A94E2F748
:103CD000482B4083EE89FF894081C9010E8C02C0C8
:103CE000880F991F0A94E2F7482B4083EE89FF89D9
:103CF00080810F8C02C0220F331F0A94E2F72095B7
:103D000028232083DF91CF911F910F91FF90EF9097
:103D1000DF90BF90AF900895DC011C96ED91FC916F
:103D20001D97E05CFF4F2191319180819181281B8B
:103D3000390B2F733070C9010895DC011C96ED9189
:103D4000FC911D97E05CFF4F20813181E054F040F1
:103D5000DF01AE5BBF4F8D919C91119728173907FA
:103D600019F42FEF3FEF07C08D919C91E80FF91FD9
:103D70008081282F30E0C9010895DC011C96ED9167
:103D8000FC911D97E05CFF4F20813181E054F040B1
:103D9000DF01AE5BBF4F8D919C91119728173907BA
:103DA00019F42FEF3FEF10C08D919C911197E80F00
:103DB000F91F20818D919C91119701968F739070BE
:103DC00011969C938E9330E0C9010895DC01919681
:103DD0008C919197882339F05496ED91FC915597E9
:103DE000808186FFF9CF91961C920895CF93DF933F
:103DF000EC01EE85FF85E05CFF4F20813181E054CE
:103E0000F0402F5F3F4F2F733070DF01AE5BBF4F2D
:103E10008D919C91119728173907D1F3E05CFF4FE2
:103E200080819181E054F040E80FF91F6083EE85B6
:103E3000FF85E05CFF4F31832083EE89FF8920817D
:103E400081E090E00F8C02C0880F991F0A94E2F77E
:103E5000282B208381E089A3EC89FD8980818064FF
:103E6000808381E090E0DF91CF9108951092160653
:103E70001092150688EE93E0A0E0B0E0809317065C
:103E800090931806A0931906B0931A0681E593E063
:103E900090931406809313068BE895E09093200688
:103EA00080931F068FEC95E0909322068093210665
:103EB00085EC90E0909324068093230684EC90E0B8
:103EC000909326068093250680EC90E09093280638
:103ED0008093270681EC90E090932A068093290630
:103EE00082EC90E090932C0680932B0686EC90E079
:103EF00090932E0680932D0684E080932F0683E016
:103F00008093300687E08093310685E08093320607
:103F100081E0809333060895CF92DF92EF92FF9273
:103F20000F931F93CF93DF937C016B018A01C0E055
:103F3000D0E00FC0D6016D916D01D701ED91FC91DC
:103F40000190F081E02DC7010995C80FD91F0150DC
:103F500010400115110571F7CE01DF91CF911F912E
:103F60000F91FF90EF90DF90CF900895EF92FF9226
:103F70000F931F938C01DC01ED91FC910190F08176
:103F8000E02D6DE009957C01D801ED91FC91019047
:103F9000F081E02DC8016AE009959C012E0D3F1DBE
:103FA000C9011F910F91FF90EF900895CF93DF9378
:103FB000EC016115710519F420E030E00FC0DB0160
:103FC0000D900020E9F71197A61BB70BE881F98146
:103FD0000280F381E02DAD0109959C01C901DF91BB
:103FE000CF9108954F925F927F928F929F92AF925E
:103FF000BF92CF92DF92EF92FF920F931F93DF93C6
:10400000CF93CDB7DEB7A1970FB6F894DEBF0FBE42
:10401000CDBF2C01742ECB01223008F42AE019A266
:1040200031E2C32ED12CCC0EDD1E822E9924AA247F
:10403000BB24672D752FA50194010E9422237901CD
:104040008A01C801B701A50194010E94EF22472D02
:10405000461B0894C108D1084A3014F4405D01C0E1
:10406000495CF6014083E114F1040105110521F0DA
:104070007E2C5F2DC801DDCFC201B6010E94D61F84
:10408000A1960FB6F894DEBF0FBECDBFCF91DF91E2
:104090001F910F91FF90EF90DF90CF90BF90AF9066
:1040A0009F908F907F905F904F900895DC01211535
:1040B000310541F4ED91FC910190F081E02D642FE8
:1040C000099508950E94F21F0895CF92DF92EF9212
:1040D000FF920F931F93CF93DF93EC016A017B0153
:1040E0002115310541F4E881F9810190F081E02D3D
:1040F000642F09951FC02A303105D1F477FF17C00E
:10410000E881F9810190F081E02D6DE209958C0143
:1041100044275527BA014C195D096E097F09CE0164
:104120002AE00E94F21F9801280F391F04C02AE0DC
:104130000E94F21F9C01C901DF91CF911F910F9145
:10414000FF90EF90DF90CF900895EF92FF920F9342
:104150001F937B019A010027F7FC0095102FB801EF
:10416000A7010E9465201F910F91FF90EF90089585
:104170000E94D61F0895EF92FF920F931F937C0128
:104180000E94D61F8C01C7010E94B61F080F191F7D
:10419000C8011F910F91FF90EF900895823000F5B4
:1041A000E82FF0E0EE0FFF1FEB5CF94F71836083A7
:1041B000882319F08130A1F408C0809169008C7FB8
:1041C000842B80936900E89A089580916900440FD8
:1041D000551F440F551F837F842B80936900E99AF4
:1041E00008951F920F920FB60F9211242F933F93B1
:1041F0004F935F936F937F938F939F93AF93BF93EF
:10420000EF93FF938091350690913606892B29F024
:10421000E0913506F09136060995FF91EF91BF9137
:10422000AF919F918F917F916F915F914F913F914E
:104230002F910F900FBE0F901F9018951F920F9205
:104240000FB60F9211242F933F934F935F936F9369
:104250007F938F939F93AF93BF93EF93FF9380913F
:10426000370690913806892B29F0E0913706F091B6
:1042700038060995FF91EF91BF91AF919F918F9172
:104280007F916F915F914F913F912F910F900FBE52
:104290000F901F901895CF93DF930E9421220E94C8
:1042A0004D18C7EBDDE10E9413182097E1F30E943F
:1042B000B71DF9CF1F920F920FB60F9211242F93B3
:1042C0003F938F939F93AF93BF9380913D069091BF
:1042D0003E06A0913F06B0914006309141060196FE
:1042E000A11DB11D232F2D5F2D3720F02D570196D5
:1042F000A11DB11D2093410680933D0690933E067B
:10430000A0933F06B09340068091390690913A06FB
:10431000A0913B06B0913C060196A11DB11D809372
:10432000390690933A06A0933B06B0933C06BF91A2
:10433000AF919F918F913F912F910F900FBE0F9052
:104340001F9018959FB7F8942091390630913A063E
:1043500040913B0650913C0686B5A89B06C08F3F16
:1043600021F02F5F3F4F4F4F5F4F9FBF542F432F81
:10437000322F2227280F311D411D511D82E0220FAF
:10438000331F441F551F8A95D1F7B901CA010895FB
:104390009B01AC017FB7F8948091390690913A0661
:1043A000A0913B06B0913C0666B5A89B05C06F3F47
:1043B00019F00196A11DB11D7FBFBA2FA92F982F0B
:1043C0008827860F911DA11DB11D62E0880F991FDE
:1043D000AA1FBB1F6A95D1F7BC012DC0FFB7F89487
:1043E0008091390690913A06A0913B06B0913C0627
:1043F000E6B5A89B05C0EF3F19F00196A11DB11DC0
:10440000FFBFBA2FA92F982F88278E0F911DA11DAE
:10441000B11DE2E0880F991FAA1FBB1FEA95D1F7D3
:10442000861B970B885E9340C8F221503040404075
:10443000504068517C4F211531054105510571F6F9
:104440000895789484B5826084BD84B5816084BD0C
:1044500085B5826085BD85B5816085BDEEE6F0E0FD
:10446000808181608083E1E8F0E010828081826059
:104470008083808181608083E0E8F0E080818160DA
:104480008083E1EBF0E0808184608083E0EBF0E00A
:10449000808181608083EAE7F0E0808184608083AE
:1044A0008081826080838081816080838081806858
:1044B00080831092C1000895CF93DF93482F50E07E
:1044C000CA0186569F4FFC0134914A575F4FFA014B
:1044D0008491882369F190E0880F991FFC01E859C5
:1044E000FF4FA591B491FC01EE58FF4FC591D491B7
:1044F000662351F42FB7F8948C91932F90958923CC
:104500008C93888189230BC0623061F42FB7F894B3
:104510008C91932F909589238C938881832B88830A
:104520002FBF06C09FB7F8948C91832B8C939FBFAD
:10453000DF91CF910895482F50E0CA0182559F4FD7
:10454000FC012491CA0186569F4FFC0194914A5761
:104550005F4FFA013491332309F440C0222351F113
:10456000233071F0243028F42130A1F0223011F5ED
:1045700014C02630B1F02730C1F02430D9F404C083
:10458000809180008F7703C0809180008F7D809321
:10459000800010C084B58F7702C084B58F7D84BD44
:1045A00009C08091B0008F7703C08091B0008F7DEB
:1045B0008093B000E32FF0E0EE0FFF1FEE58FF4FA7
:1045C000A591B4912FB7F894662321F48C9190951E
:1045D000892302C08C91892B8C932FBF0895629FF1
:1045E000D001739FF001829FE00DF11D649FE00DEB
:1045F000F11D929FF00D839FF00D749FF00D659F4C
:10460000F00D9927729FB00DE11DF91F639FB00D4A
:10461000E11DF91FBD01CF0111240895AA1BBB1B89
:1046200051E107C0AA1FBB1FA617B70710F0A61BB2
:10463000B70B881F991F5A95A9F780959095BC01D3
:10464000CD010895A1E21A2EAA1BBB1BFD010DC0CE
:10465000AA1FBB1FEE1FFF1FA217B307E407F50732
:1046600020F0A21BB30BE40BF50B661F771F881F0E
:10467000991F1A9469F760957095809590959B01A4
:10468000AC01BD01CF01089597FB092E05260ED080
:1046900057FD04D0D7DF0AD0001C38F45095409560
:1046A000309521953F4F4F4F5F4F0895F6F7909506
:1046B0008095709561957F4F8F4F9F4F0895EE0FB6
:0E46C000FF1F0590F491E02D0994F894FFCFB0
:1046CE0053756363657366756C6C7920496E697496
:1046DE0069616C697A656420746865204D50553641
:1046EE00303030004661696C656420746F20496E0D
:1046FE00697469616C697A6520746865204D5055DE
:10470E00363030300053756363657366756C6C7943
:10471E0020496E697469616C697A65642074686594
:10472E0020484D4335383833004661696C65642046
:10473E00746F20496E697469616C697A652074685A
:10474E006520484D4335383833000054696D655344
:10475E007465702028757329090952617720526F8C
:10476E006C6C7261746520286465672F7329090962
:10477E005261772050697463687261746520286491
:10478E0065672F7329090952617720596177726124
:10479E00746520286465672F732909095261772093
:1047AE00526F6C6C20286465672909095261772065
:1047BE005069746368202864656729090952617716
:1047CE0020596177202864656729090946696C7448
:1047DE0020526F6C6C7261746520286465672F734C
:1047EE0029090946696C7420506974636872617492
:1047FE006520286465672F7329090946696C742042
:10480E005961777261746520286465672F73290971
:10481E000946696C7420526F6C6C20286465672998
:10482E00090946696C7420506974636820286465B0
:10483E006729090946696C742059617720286465D7
:10484E00672900090909090909000909090909095E
:10485E0009090909090009090909090909090009CC
:10486E0009090909090900090909090909090909B3
:10487E0000090909090909090909090000457272A7
:10488E006F722072656164696E67206D61676E6517
:10489E00746963206461746100DB0FC9009CB1769A
:1048AE0000ECB63E00BBD51F00AEFA0F0055FF0759
:1048BE0000EBFF0300FDFF0100000001000080007F
:1048CE000000400000002000000010000000080062
:1048DE000000040000000200000001000080000043
:1048EE000040000000200000001000000008000042
:1048FE0000040000000200000001000000000000A3
:10490E0000AA07790732073B07500761070000002E
:0E491E0000F61E8C1F8C1EBD1E9D1EE61E0088
:00000001FF
