:100000000C9466000C940E0D0C943B0D0C948E0019
:100010000C948E000C948E000C948E000C948E0028
:100020000C948E000C948E000C948E000C948E0018
:100030000C948E000C948E000C948E000C948E0008
:100040000C94770D0C948E000C94BB090C94090A47
:100050000C948E000C948E000C948E000C948E00E8
:100060000C946F010C948E00000000002400270007
:100070002A0000000000250028002B0000000000DE
:1000800023002600290004040404040404040202DA
:100090000202020203030303030301020408102007
:1000A0004080010204081020010204081020000012
:1000B0000007000201000003040600000000000029
:1000C0000000DB032205D106F806750B11241FBEC4
:1000D000CFEFD8E0DEBFCDBF11E0A0E0B1E0E8E0B7
:1000E000FFE102C005900D92AC3CB107D9F714E0D6
:1000F000ACECB1E001C01D92A137B107E1F710E00F
:10010000CCECD0E004C02297FE010E947E0FC23CDE
:10011000D107C9F70E94680D0C94820F0C9400005F
:10012000880F8093BA000895382F413210F040E0D4
:1001300042C08091CC018823E1F791E09093CC01FB
:100140002093CE018FEF809339021092F401415039
:100150004093F5014F5F9093CD018091CD01330F16
:10016000832B8093CD018091CF01813041F4109297
:10017000CF018091CD018093BB0085EC01C085EE5D
:100180008093BC008091CC018130E1F38091F40137
:10019000841710F44091F40120E030E00AC0FB0124
:1001A000E20FF31FD901AC52BE4F8C9180832F5FB9
:1001B0003F4F2417A0F3842F08950F931F93582FB8
:1001C000122F413210F081E04AC08091CC01882387
:1001D000E1F782E08093CC010093CE018FEF809312
:1001E00039021092F4014093F501A4EDB1E0FB0156
:1001F00002C081918D938E2F861B8417D0F31092AD
:10020000CD018091CD01550F852B8093CD0180913B
:10021000CF01813041F41092CF018091CD018093C4
:10022000BB0085EC01C085EE8093BC00112321F05A
:100230008091CC018230E1F3809139028F3F11F43B
:1002400080E00DC080913902803211F482E007C055
:1002500080913902803311F084E001C083E01F9166
:100260000F910895482F613210F081E00895809138
:10027000CC01843011F082E0089560931702A6EF5C
:10028000B1E0842F9C01F90102C081918D938E2FE2
:10029000841B8617D0F380E008959093D301809358
:1002A000D20108959093D1018093D00108958823BD
:1002B00011F085EC01C085E88093BC00089585EDC0
:1002C0008093BC008091BC0084FDFCCF1092CC01D7
:1002D000089585EC8093BC001092CC0108951F9284
:1002E0000F920FB60F9211242F933F934F935F936A
:1002F0006F937F938F939F93AF93BF93EF93FF93EE
:100300008091B90090E0887F90708036910509F463
:10031000F2C081369105CCF58832910509F47BC095
:1003200089329105B4F48031910509F46FC08131AF
:1003300091053CF4009709F447C1089709F04FC1B3
:1003400065C08831910509F466C0809709F047C1FE
:1003500082C08034910509F4A4C08134910544F42D
:100360008033910509F482C0C89709F038C189C06B
:100370008035910509F489C08835910509F496C046
:100380008834910509F02BC1AEC08839910509F474
:1003900013C189399105ECF48837910509F4ABC094
:1003A000893791054CF48836910509F4A4C080374B
:1003B000910509F014C19FC08838910509F4FCC06B
:1003C0008039910509F49DC08038910509F007C175
:1003D00098C0803B910509F4C6C0813B91054CF45F
:1003E000803A910509F49FC0883A910509F0F7C059
:1003F000BAC0803C910509F4E3C0883C910509F43A
:10040000DFC0883B910509F0EAC0C2C08091CD01F0
:100410008093BB00CFC09091F4018091F5019817B3
:1004200068F49091F401E92FF0E0EC52FE4F8081E6
:100430008093BB009F5F9093F401BCC08091CE017C
:10044000882309F44BC085ED8093BC008091BC00EB
:1004500084FDFCCFC2C080E28093390285ED809399
:10046000BC008091BC0084FDFCCFB7C080E38093CA
:10047000390285ED8093BC008091BC0084FDFCCFE7
:10048000ACC088E3809339029BC08091F4019091C5
:10049000BB00E82FF0E0EC52FE4F90838F5F80931B
:1004A000F4019091F4018091F50182C08091F401F2
:1004B0009091BB00E82FF0E0EC52FE4F90838F5FED
:1004C0008093F4018091CE01882341F085ED8093E3
:1004D000BC008091BC0084FDFCCF7FC081E0809394
:1004E000CF0184EA6EC085ED8093BC008091BC0092
:1004F00084FDFCCF72C083E08093CC01109238025F
:1005000059C080913802803208F056C0809138027C
:100510009091BB00E82FF0E0E85EFD4F90838F5F85
:100520008093380247C080913802803230F4E091E5
:100530003802F0E0E85EFD4F108285ED8093BC004C
:100540008091BC0084FDFCCF1092CC0160913802F8
:10055000E091D201F091D30188E192E070E0099539
:10056000109238022DC084E08093CC0110921602C4
:1005700010921702E091D001F091D101099580917C
:100580001702882329F481E0809317021092F60164
:1005900090911602E92FF0E0EA50FE4F808180939F
:1005A000BB009F5F909316029091160280911702F4
:1005B000981710F485EC01C085E88093BC000FC04B
:1005C00085EC8093BC0009C01092390285ED8093C0
:1005D000BC008091BC0084FDFCCF1092CC01FF9147
:1005E000EF91BF91AF919F918F917F916F915F91AB
:1005F0004F913F912F910F900FBE0F901F90189524
:100600001092CC0181E08093CE011092CF0182E163
:1006100061E00E94B80E83E161E00E94B80EE9EB50
:10062000F0E080818E7F808380818D7F808388E46D
:100630008093B80085E48093BC000895FF920F93E7
:100640001F93CF93DF9300E010E0FF2497FF02C0D9
:1006500057FD0AC016161706180619063CF412169E
:1006600013061406150614F4F1E0FF2E97FF07C0D9
:1006700090958095709561957F4F8F4F9F4F57FF55
:1006800007C050954095309521953F4F4F4F5F4F94
:10069000C0E0D0E06F3FEFEF7E07EFEF8E07EFE3B4
:1006A0009E0744F4660F771F881F991F2196C83153
:1006B000D10584F320FD08C05595479537952795BA
:1006C0000F5F1F4F20FFF8CF0E94610FD095C1959B
:1006D000DF4FC01BD10B68961C161D0644F404C0E6
:1006E000220F331F441F551FCA95D2F719C0D7FFD9
:1006F00017C0C095D09504C0559547953795279557
:10070000CA95D2F7DA01C901B595A795979587954E
:100710002170307040705070280F391F4A1F5B1FC6
:10072000FF2039F450954095309521953F4F4F4F1C
:100730005F4FCA01B901DF91CF911F910F91FF90D7
:10074000089581E080937F0260935C0210927D02A5
:1007500010927E02089520915B0230E080915A024F
:10076000281B3109C901089540915A0280915B020A
:10077000481718F02FEF3FEF0AC0E42FF0E0E65CD7
:10078000FD4F8081282F30E04F5F40935A02C9010E
:100790000895E0915A0280915B02E81718F0EFEF9C
:1007A000FFEF06C0F0E0E65CFD4F8081E82FF0E04F
:1007B000CF0108950895109283021092820288EE6C
:1007C00093E0A0E0B0E08093840290938502A09330
:1007D0008602B093870280EB91E090938102809330
:1007E00080020895CF92DF92EF92FF920F931F93B2
:1007F000CF93DF937C016B018A0180917F02882374
:10080000A1F0C0E0D0E00DC0D701ED91FC91D60180
:10081000AC0FBD1F0190F081E02DC7016C910995CF
:100820002196C017D10780F304C0CB01642F0E942A
:100830003201C801DF91CF911F910F91FF90EF908E
:10084000DF90CF900895DF93CF930F92CDB7DEB7AF
:10085000FC01698380917F028823C9F080917E0228
:10086000803238F081E090E09383828320E030E0B2
:1008700015C080917D02E82FF0E0E35AFD4F998189
:1008800090838F5F80937D0280937E0205C0CE01AE
:10089000019661E00E94320121E030E0C9010F9031
:1008A000CF91DF9108950F93062F80915C026DE543
:1008B00072E040917E0221E00E94DD0010927D02F4
:1008C00010927E0210927F020F91089561E00E94C3
:1008D00053040895413208F040E2862F6AE372E043
:1008E0000E94940010925A0280935B02089521E0C6
:1008F0000E946A04089510925A0210925B021092AC
:100900007D0210927E020E94000308952CB5382FBC
:1009100033702C7F322B3CBD2DB590E0959587959B
:100920009595879581702E7F822B8DBD08958AE0E5
:1009300061E00E94B80E8AE061E00E94790E8CB5F9
:1009400080618CBD8CB580648CBD8DE061E00E94BF
:10095000790E8BE061E00E94790E0895FC0110820F
:1009600011821282138214821582168217821086D7
:100970001186128613861486158616861786108AA7
:10098000118A128A138A148A158A168A178A108E77
:10099000118E128E138E148E158E168E178E10A237
:1009A00011A212A213A214A215A216A217A210A697
:1009B00011A612A613A614A615A616A617A611AA66
:1009C00010AA12AA13AA82E084AB81E085AB089535
:1009D000CF92DF92EF92FF920F931F93FC0144A3FB
:1009E00055A366A377A300A711A722A733A7C4A680
:1009F000D5A6E6A6F7A61F910F91FF90EF90DF9086
:100A0000CF900895CF92DF92EF92FF920F931F93B2
:100A1000FC014487558766877787008B118B228B73
:100A2000338BC48AD58AE68AF78A1F910F91FF908B
:100A3000EF90DF90CF9008958091BE028F5F8093FA
:100A4000BE0208958CE892E00E94AE0408951F93C0
:100A5000162F106884E060E00E94B80E1EBD0DB431
:100A600007FEFDCF8EB51EBC0DB407FEFDCF1EB533
:100A700084E061E00E94B80E812F1F9108950F93CA
:100A80001F93162F042F84E060E00E94B80E1EBD55
:100A90000DB407FEFDCF8EB50EBD0DB407FEFDCF24
:100AA0008EB584E061E00E94B80E1F910F91089509
:100AB000CF92DF92EF92FF920F931F93CF93DF932A
:100AC000EC017B01142FD22EC02E2CAB0DAB84E099
:100AD00061E00E94790E84E061E00E94B80E0E94FD
:100AE000970481E00E9486046AE070E080E090E074
:100AF0000E94E50DCE016BE640E80E943F0564E6EA
:100B000070E080E090E00E94E50DCE016BE643E0EE
:100B10000E943F0561E070E080E090E00E94E50DFA
:100B2000CE016AE640E10E943F0561E070E080E0AE
:100B300090E00E94E50DCE0165E70E9427058E77C3
:100B40008BAB1330F1F0143028F4113091F01230E7
:100B5000A0F407C01530E9F01530B8F01630A1F553
:100B60001CC0CE016AE140E00E943F0580E49FE1A5
:100B70001BC0CE016AE141E013C0CE016AE142E050
:100B80000FC0CE016AE143E00BC0CE016AE144E050
:100B900007C0CE016AE145E003C0CE016AE146E04C
:100BA0000E943F0588EE93E0B7010E942B0F61156C
:100BB000710519F16F3F710519F010F06FEF70E0DA
:100BC000162F115001E01BC0CE016AE140E00E94E7
:100BD0003F0580E49FE1B7010E942B0F611571056D
:100BE00011F400E00BC06F3F710519F010F06FEFCA
:100BF00070E0162F115000E002C001E010E061E04B
:100C000070E080E090E00E94E50DCE0169E1412FA7
:100C10000E943F0561E070E080E090E00E94E50DF9
:100C200081E0D81669F0D81638F082E0D81671F055
:100C300083E0D81699F40EC0CE016BE140E003C00A
:100C4000CE016BE148E00E943F0510C0CE016BE190
:100C500040E1F9CFCE016BE148E1F5CFCE016BE188
:100C600040E10E943F0582E08CAB00E061E070E073
:100C700080E090E00E94E50D81E0C81669F0C8169A
:100C800038F082E0C81671F083E0C81699F40EC0FF
:100C9000CE016CE140E003C0CE016CE148E00E946F
:100CA0003F0510C0CE016CE140E1F9CFCE016CE10F
:100CB00048E1F5CFCE016CE148E00E943F0581E0BC
:100CC0008DAB00E061E070E080E090E00E94E50D17
:100CD000CE0168E341E00E943F0561E070E080E002
:100CE00090E00E94E50DCE0167E340E10E943F05E0
:100CF00061E070E080E090E00E94E50D80E06CE152
:100D000075E043E050E00E94EB0C802FDF91CF9123
:100D10001F910F91FF90EF90DF90CF900895FC010D
:100D200014821582168217821486158616861786F7
:100D30001082118212821382108611861286138607
:100D400010AA11AA12AA13AA10AE11AE12AE13AEB7
:100D500014AA15AA16AA17AA14AE15AE16AE17AE87
:100D6000108A118A128A138A148A158A168A178A97
:100D7000108E118E128E138E148E158E168E178E67
:100D800010A211A212A213A214A215A216A217A2B7
:100D900010A611A612A613A614A615A616A617A687
:100DA000089582EC92E00E948F0682E093E00E9418
:100DB0008F0682E493E00E948F060895CF92DF921F
:100DC000EF92FF92FC01C786D08AE18AF28AFF90F7
:100DD000EF90DF90CF900895FC0143A354A365A347
:100DE00076A308958091A9038F5F8093A903089546
:100DF0001092820310928303109284031092910345
:100E00001092920310929303109294031092950300
:100E100010929603109297031092980310929903E0
:100E200010929A0310929B0310929C0310928503D8
:100E30001092860310928703109288031092890300
:100E400010928A0310928B0310928C0310928D03E0
:100E500010928E0310928F03109290031092A503AC
:100E60001092A6031092A7031092A8031092A10358
:100E70001092A2031092A3031092A4038FE19CE3AB
:100E8000A0E0B0E080939D0390939E03A0939F0306
:100E9000B093A0031092A9030895EF92FF920F93CD
:100EA0001F93162F042F80E8E82E82E0F82EC7014A
:100EB0006EE170E00E94A103C701612F0E9423042C
:100EC000C701602F0E942304C7010E9466041F917E
:100ED0000F91FF90EF9008950F931F93CF93DF939F
:100EE000162F042FE90180E892E06EE170E00E9485
:100EF000A10380E892E0612F0E94230480E892E041
:100F00000E94660480E892E06EE1402F0E94770420
:100F100010E009C080E892E00E94B403FE01E10FF6
:100F2000F11D80831F5F80E892E00E94AB03892B54
:100F300089F780E892E00E94660480E0101709F4C7
:100F400081E0DF91CF911F910F910895DF92EF9291
:100F5000FF920F931F93CF93DF93EC01F62E142F84
:100F6000D22E80E892E00E947B046AE070E080E08C
:100F700090E00E94E50DCE016AE043E09E010E94F0
:100F80006C07682F90E08881883409F091E020E0B8
:100F90008981843309F021E0922B292F30E040E051
:100FA00050E08A81833311F041E050E0242B352B4F
:100FB000232B11F0EE2404C0862F611181E0E82E6E
:100FC00081E0F81649F0F81648F082E0F81641F092
:100FD00083E0F81639F407C040E206C040E004C0E0
:100FE00040E402C0EE2440E6133099F0143028F4B7
:100FF000113059F0123058F413C0153071F015301B
:1010000050F04861163059F40BC0446009C0486084
:1010100007C04C6005C0406103C0446101C0EE24BC
:1010200081E0D81639F0D81640F082E0D81621F0C9
:10103000EE2403C0416001C04260CE0160E00E9426
:101040004D0762E370E080E090E00E94E50D033020
:1010500079F1043028F40130C1F00230F8F40BC00B
:101060000530D1F1053070F1063009F43FC007308A
:1010700009F050C045C086ED9FE2A0E0B0E08B8F44
:101080009C8FAD8FBE8F40E04FC08FE19CE3A0E00E
:10109000B0E08B8F9C8FAD8FBE8F45C08CEE9FE4F0
:1010A000A0E0B0E08B8F9C8FAD8FBE8F40E43CC042
:1010B0008CE493E6A0E0B0E08B8F9C8FAD8FBE8F69
:1010C00040E632C082EF94E9A0E0B0E08B8F9C8FC5
:1010D000AD8FBE8F40E828C08AE098EAA0E0B0E07B
:1010E0008B8F9C8FAD8FBE8F40EA1EC088E996EC37
:1010F000A0E0B0E08B8F9C8FAD8FBE8F40EC14C012
:1011000080EF9CE1A1E0B0E08B8F9C8FAD8FBE8F14
:1011100040EE0AC08FE19CE3A0E0B0E08B8F9C8F93
:10112000AD8FBE8FEE2440E2CE0161E00E944D07FC
:1011300062E370E080E090E00E94E50DCE0162E0A5
:1011400040E00E944D0762E370E080E090E00E9482
:10115000E50D81E062EF76E043E050E00E94EB0CA9
:101160008E2DDF91CF911F910F91FF90EF90DF9027
:1011700008950E94BF0D2091AA033091AB034091C6
:10118000AC035091AD03621B730B840B950B605441
:1011900072448F40904008F474C00E94BF0D609369
:1011A000AA037093AB038093AC039093AD0380E0EC
:1011B00090E0A0E0B1E08093AE039093AF03A093E2
:1011C000B003B093B10380E090E0A8E0B0E080937A
:1011D000B2039093B303A093B403B093B50360E05C
:1011E00070E080E091E020E030E048E050E00E94D4
:1011F0001E036093B6037093B7038093B803909374
:10120000B90382E494E060E071E00E94D50C409163
:10121000AE035091AF036091B0037091B10382E4CB
:1012200094E02AE030E00E94950C82E494E06AE0C9
:1012300071E00E94D50C4091B2035091B3036091CC
:10124000B4037091B50382E494E02AE030E00E9498
:10125000950C82E494E066E171E00E94D50C409127
:10126000B6035091B7036091B8037091B90382E45B
:1012700094E02AE030E00E94950C82E494E00E9421
:10128000F50B0895CF92DF92EF92FF920F931F9389
:1012900082E494E040E056E960E070E00E94440A95
:1012A0008CE892E060E971E040E022E001E00E9419
:1012B0005805882329F082E494E061E271E004C0DB
:1012C00082E494E065E471E00E94D80C8CE892E03E
:1012D00040E050E060E070E000E010E020E030E04E
:1012E000CC24DD2476010E94E8048CE892E040E002
:1012F00050E060E070E000E010E020E030E00E94AC
:10130000020582E893E063E046E020E001E00E940D
:10131000A607882329F082E494E066E671E004C021
:1013200082E494E06AE871E00E94D80C82E893E0DD
:1013300040E050E060E070E000E010E020E030E0ED
:10134000CC24DD2476010E94DE0682E893E040E0B2
:1013500050E060E070E00E94EC0682E494E06BEA0A
:1013600071E00E94D80C1F910F91FF90EF90DF90D9
:10137000CF90089508951F920F920FB60F921124E7
:101380002F933F934F938F939F93EF93FF9380916E
:10139000C00082FD1DC04091C6002091FA0330912B
:1013A000FB032F5F3F4F2F7330708091FC039091B0
:1013B000FD032817390771F0E091FA03F091FB0360
:1013C000E654FC4F40833093FB032093FA0302C0A2
:1013D0008091C600FF91EF919F918F914F913F9126
:1013E0002F910F900FBE0F901F901895E0914E0413
:1013F000F0914F04E05CFF4F819191912081318108
:10140000821B930B8F739070892B11F00E94BA0985
:1014100008951F920F920FB60F9211242F933F93AE
:101420008F939F93EF93FF9320913E0430913F045D
:1014300080914004909141042817390731F480913C
:10144000C1008F7D8093C10014C0E0914004F091F1
:101450004104E250FC4F208180914004909141046E
:1014600001968F7390709093410480934004209371
:10147000C600FF91EF919F918F913F912F910F9017
:101480000FBE0F901F901895AF92BF92DF92EF9210
:10149000FF920F931F93CF93DF93EC017A018B019F
:1014A000DD24403081EE580780E0680780E078074F
:1014B00011F0DD24D39491E0A92EB12CEC89FD89A3
:1014C000DD2069F0C50108A002C0880F991F0A94A9
:1014D000E2F7808360E079E08DE390E005C0108260
:1014E00060E874E88EE190E0A80197010E943F0F48
:1014F00021503040404050405695479537952795AC
:1015000080E12030380720F0DD2011F0DD24D6CF37
:10151000E889F9893083EA89FB89208319A2EE8959
:10152000FF89408121E030E0C9010C8C02C0880FA6
:10153000991F0A94E2F7482B4083EE89FF89408186
:10154000C9010D8C02C0880F991F0A94E2F7482B3D
:101550004083EE89FF894081C9010E8C02C0880F4B
:10156000991F0A94E2F7482B4083EE89FF89808116
:101570000F8C02C0220F331F0A94E2F72095282314
:101580002083DF91CF911F910F91FF90EF90DF901B
:10159000BF90AF900895DC011C96ED91FC911D97D2
:1015A000E05CFF4F2191319180819181281B390BA3
:1015B0002F733070C9010895DC011C96ED91FC91E8
:1015C0001D97E05CFF4F20813181E054F040DF0146
:1015D000AE5BBF4F8D919C9111972817390719F475
:1015E0002FEF3FEF07C08D919C91E80FF91F80818D
:1015F000282F30E0C9010895DC011C96ED91FC9183
:101600001D97E05CFF4F20813181E054F040DF0105
:10161000AE5BBF4F8D919C9111972817390719F434
:101620002FEF3FEF10C08D919C911197E80FF91F9C
:1016300020818D919C91119701968F7390701196D6
:101640009C938E9330E0C9010895DC0191968C91B2
:101650009197882339F05496ED91FC9155978081AC
:1016600086FFF9CF91961C920895CF93DF93EC01FA
:10167000EE85FF85E05CFF4F20813181E054F04032
:101680002F5F3F4F2F733070DF01AE5BBF4F8D91E7
:101690009C91119728173907D1F3E05CFF4F8081A7
:1016A0009181E054F040E80FF91F6083EE85FF85DB
:1016B000E05CFF4F31832083EE89FF89208181E048
:1016C00090E00F8C02C0880F991F0A94E2F7282B34
:1016D000208381E089A3EC89FD89808180648083F7
:1016E00081E090E0DF91CF9108951092450410922F
:1016F000440488EE93E0A0E0B0E080934604909329
:101700004704A0934804B093490480EC91E090937F
:101710004304809342048AEB93E090934F048093B8
:101720004E048EEF93E0909351048093500485EC27
:1017300090E0909353048093520484EC90E0909353
:1017400055048093540480EC90E090935704809368
:10175000560481EC90E0909359048093580482ECF5
:1017600090E090935B0480935A0486EC90E0909311
:101770005D0480935C0484E080935E0483E0809346
:101780005F0487E08093600485E08093610481E0DA
:10179000809362040895CF92DF92EF92FF920F93AD
:1017A0001F93CF93DF937C016B018A01C0E0D0E0EF
:1017B0000FC0D6016D916D01D701ED91FC910190A3
:1017C000F081E02DC7010995C80FD91F01501040C5
:1017D0000115110571F7CE01DF91CF911F910F9186
:1017E000FF90EF90DF90CF900895EF92FF920F93CC
:1017F0001F938C01DC01ED91FC910190F081E02DB3
:101800006DE009957C01D801ED91FC910190F0818A
:10181000E02DC8016AE009959C012E0D3F1DC9010C
:101820001F910F91FF90EF900895CF93DF93EC01FC
:101830006115710519F420E030E00FC0DB010D9057
:101840000020E9F71197A61BB70BE881F981028008
:10185000F381E02DAD0109959C01C901DF91CF9184
:1018600008954F925F927F928F929F92AF92BF9214
:10187000CF92DF92EF92FF920F931F93DF93CF935C
:10188000CDB7DEB7A1970FB6F894DEBF0FBECDBFC0
:101890002C01742ECB01223008F42AE019A231E287
:1018A000C32ED12CCC0EDD1E822E9924AA24BB245B
:1018B000672D752FA50194010E943F0F79018A01C0
:1018C000C801B701A50194010E940C0F472D461BCA
:1018D0000894C108D1084A3014F4405D01C0495C45
:1018E000F6014083E114F1040105110521F07E2C7D
:1018F0005F2DC801DDCFC201B6010E94150CA19673
:101900000FB6F894DEBF0FBECDBFCF91DF911F9110
:101910000F91FF90EF90DF90CF90BF90AF909F908E
:101920008F907F905F904F900895CF92DF92EF92CB
:10193000FF920F931F93CF93DF93EC016A017B011A
:101940002115310541F4E881F9810190F081E02D04
:10195000642F09951FC02A303105D1F477FF17C0D5
:10196000E881F9810190F081E02D6DE209958C010B
:1019700044275527BA014C195D096E097F09CE012C
:101980002AE00E94310C9801280F391F04C02AE078
:101990000E94310C9C01C901DF91CF911F910F91E1
:1019A000FF90EF90DF90CF9008950E94150C08955E
:1019B000EF92FF920F931F937C010E94150C8C01F4
:1019C000C7010E94F50B080F191FC8011F910F9145
:1019D000FF90EF900895823000F5E82FF0E0EE0FD1
:1019E000FF1FEC59FB4F71836083882319F081300E
:1019F000A1F408C0809169008C7F842B80936900DA
:101A0000E89A089580916900440F551F440F551FAF
:101A1000837F842B80936900E99A08951F920F9227
:101A20000FB60F9211242F933F934F935F936F93B1
:101A30007F938F939F93AF93BF93EF93FF93809187
:101A4000640490916504892B29F0E0916404F0917D
:101A500065040995FF91EF91BF91AF919F918F918F
:101A60007F916F915F914F913F912F910F900FBE9A
:101A70000F901F9018951F920F920FB60F9211247E
:101A80002F933F934F935F936F937F938F939F9386
:101A9000AF93BF93EF93FF93809166049091670497
:101AA000892B29F0E0916604F09167040995FF9174
:101AB000EF91BF91AF919F918F917F916F915F91C6
:101AC0004F913F912F910F900FBE0F901F9018953F
:101AD000CF93DF930E943E0E0E944209C6EFD9E0E9
:101AE0000E94B9082097E1F30E94F609F9CF1F92EE
:101AF0000F920FB60F9211242F933F938F939F93C2
:101B0000AF93BF9380916C0490916D04A0916E048B
:101B1000B0916F04309170040196A11DB11D232F67
:101B20002D5F2D3720F02D570196A11DB11D20935B
:101B3000700480936C0490936D04A0936E04B09332
:101B40006F048091680490916904A0916A04B09137
:101B50006B040196A11DB11D8093680490936904E4
:101B6000A0936A04B0936B04BF91AF919F918F9142
:101B70003F912F910F900FBE0F901F9018959FB718
:101B8000F894209168043091690440916A0450915E
:101B90006B0486B5A89B06C08F3F21F02F5F3F4F97
:101BA0004F4F5F4F9FBF542F432F322F2227280FB5
:101BB000311D411D511D82E0220F331F441F551F4F
:101BC0008A95D1F7B901CA0108959B01AC017FB78D
:101BD000F8948091680490916904A0916A04B0918E
:101BE0006B0466B5A89B05C06F3F19F00196A11D57
:101BF000B11D7FBFBA2FA92F982F8827860F911D5F
:101C0000A11DB11D62E0880F991FAA1FBB1F6A9515
:101C1000D1F7BC012DC0FFB7F89480916804909172
:101C20006904A0916A04B0916B04E6B5A89B05C055
:101C3000EF3F19F00196A11DB11DFFBFBA2FA92FCB
:101C4000982F88278E0F911DA11DB11DE2E0880FEE
:101C5000991FAA1FBB1FEA95D1F7861B970B885EB9
:101C60009340C8F2215030404040504068517C4F72
:101C7000211531054105510571F60895789484B513
:101C8000826084BD84B5816084BD85B5826085BD78
:101C900085B5816085BDEEE6F0E08081816080835E
:101CA000E1E8F0E010828081826080838081816041
:101CB0008083E0E8F0E0808181608083E1EBF0E008
:101CC000808184608083E0EBF0E0808181608083AC
:101CD000EAE7F0E080818460808380818260808395
:101CE0008081816080838081806880831092C100C0
:101CF0000895CF93DF93482F50E0CA0186569F4F37
:101D0000FC0134914A575F4FFA018491882369F1AD
:101D100090E0880F991FFC01E859FF4FA591B491FD
:101D2000FC01EE58FF4FC591D491662351F42FB7B3
:101D3000F8948C91932F909589238C938881892393
:101D40000BC0623061F42FB7F8948C91932F90956B
:101D500089238C938881832B88832FBF06C09FB7EC
:101D6000F8948C91832B8C939FBFDF91CF91089532
:101D7000482F50E0CA0182559F4FFC012491CA01AF
:101D800086569F4FFC0194914A575F4FFA01349158
:101D9000332309F440C0222351F1233071F0243061
:101DA00028F42130A1F0223011F514C02630B1F012
:101DB0002730C1F02430D9F404C0809180008F779F
:101DC00003C0809180008F7D8093800010C084B517
:101DD0008F7702C084B58F7D84BD09C08091B0002B
:101DE0008F7703C08091B0008F7D8093B000E32F88
:101DF000F0E0EE0FFF1FEE58FF4FA591B4912FB703
:101E0000F894662321F48C919095892302C08C91DB
:101E1000892B8C932FBF0895629FD001739FF0018F
:101E2000829FE00DF11D649FE00DF11D929FF00D6A
:101E3000839FF00D749FF00D659FF00D9927729FA1
:101E4000B00DE11DF91F639FB00DE11DF91FBD012C
:101E5000CF0111240895AA1BBB1B51E107C0AA1F83
:101E6000BB1FA617B70710F0A61BB70B881F991F3B
:101E70005A95A9F780959095BC01CD010895A1E2EE
:101E80001A2EAA1BBB1BFD010DC0AA1FBB1FEE1FF4
:101E9000FF1FA217B307E407F50720F0A21BB30B3F
:101EA000E40BF50B661F771F881F991F1A9469F7BB
:101EB00060957095809590959B01AC01BD01CF0117
:101EC000089597FB092E05260ED057FD04D0D7DFC5
:101ED0000AD0001C38F450954095309521953F4F1D
:101EE0004F4F5F4F0895F6F79095809570956195E7
:101EF0007F4F8F4F9F4F0895EE0FFF1F0590F49176
:081F0000E02D0994F894FFCFD5
:101F0800496E70757420313A20000909496E707560
:101F18007420323A200009094F75747075743A209C
:101F28000053756363657366756C6C7920496E69D7
:101F38007469616C697A656420746865204D5055D0
:101F480036303030004661696C656420746F204912
:101F58006E697469616C697A6520746865204D5092
:101F680055363030300053756363657366756C6C35
:101F78007920496E697469616C697A65642074684E
:101F88006520484D4335383833004661696C6564CF
:101F980020746F20496E697469616C697A65207470
:101FA800686520484D43353838330000000000008C
:101FB8002304F203AB03B403C903DA0300000000EF
:0C1FC800350BCB0BCB0AFC0ADC0A250B06
:00000001FF
