:100000000C9465000C946F070C949C070C948D0065
:100010000C948D000C948D000C948D000C948D002C
:100020000C948D000C948D000C948D000C948D001C
:100030000C948D000C948D000C948D000C948D000C
:100040000C94D8070C948D000C948D000C948D00AA
:100050000C948D000C948D000C948D000C948D00EC
:100060000C946E010C948D00000000002400270009
:100070002A0000000000250028002B0000000000DE
:1000800023002600290004040404040404040202DA
:100090000202020203030303030301020408102007
:1000A0004080010204081020010204081020000012
:1000B0000007000201000003040600000000000029
:1000C000000057032A043504A10511241FBECFEFF9
:1000D000D8E0DEBFCDBF11E0A0E0B1E0E6ECF2E198
:1000E00002C005900D92A031B107D9F712E0A0E14E
:1000F000B1E001C01D92AC30B107E1F710E0CAECED
:10010000D0E004C02297FE010E945D09C23CD107E5
:10011000C9F70E94C9070C9461090C940000880F6C
:100120008093BA000895382F413210F040E042C069
:10013000809110018823E1F791E0909310012093C2
:1001400012018FEF80937D0110923801415040934E
:1001500039014F5F9093110180911101330F832B6F
:100160008093110180911301813041F410921301A9
:10017000809111018093BB0085EC01C085EE8093D6
:10018000BC00809110018130E1F380913801841727
:1001900010F44091380120E030E00AC0FB01E20F8A
:1001A000F31FD901A85EBE4F8C9180832F5F3F4F14
:1001B0002417A0F3842F08950F931F93582F122F05
:1001C000413210F081E04AC0809110018823E1F7AC
:1001D00082E080931001009312018FEF80937D01E4
:1001E0001092380140933901A8E1B1E0FB0102C04F
:1001F00081918D938E2F861B8417D0F3109211015D
:1002000080911101550F852B80931101809113016D
:10021000813041F410921301809111018093BB0051
:1002200085EC01C085EE8093BC00112321F0809104
:1002300010018230E1F380917D018F3F11F480E065
:100240000DC080917D01803211F482E007C0809161
:100250007D01803311F084E001C083E01F910F9194
:100260000895482F613210F081E0089580911001C7
:10027000843011F082E0089560935B01AAE3B1E05D
:10028000842F9C01F90102C081918D938E2F841BD4
:100290008617D0F380E0089590931701809316019C
:1002A000089590931501809314010895882311F007
:1002B00085EC01C085E88093BC00089585ED8093AE
:1002C000BC008091BC0084FDFCCF10921001089509
:1002D00085EC8093BC001092100108951F920F923C
:1002E0000FB60F9211242F933F934F935F936F9309
:1002F0007F938F939F93AF93BF93EF93FF938091DF
:10030000B90090E0887F90708036910509F4F2C0C2
:1003100081369105CCF58832910509F47BC089328C
:100320009105B4F48031910509F46FC081319105D4
:100330003CF4009709F447C1089709F04FC165C024
:100340008831910509F466C0809709F047C182C0E1
:100350008034910509F4A4C08134910544F48033BC
:10036000910509F482C0C89709F038C189C0803569
:10037000910509F489C08835910509F496C088343F
:10038000910509F02BC1AEC08839910509F413C15C
:1003900089399105ECF48837910509F4ABC08937A8
:1003A00091054CF48836910509F4A4C08037910575
:1003B00009F014C19FC08838910509F4FCC0803948
:1003C000910509F49DC08038910509F007C198C0D6
:1003D000803B910509F4C6C0813B91054CF4803AFD
:1003E000910509F49FC0883A910509F0F7C0BAC099
:1003F000803C910509F4E3C0883C910509F4DFC015
:10040000883B910509F0EAC0C2C080911101809338
:10041000BB00CFC09091380180913901981768F4E2
:1004200090913801E92FF0E0E85EFE4F80818093E3
:10043000BB009F5F90933801BCC08091120188235C
:1004400009F44BC085ED8093BC008091BC0084FD15
:10045000FCCFC2C080E280937D0185ED8093BC001B
:100460008091BC0084FDFCCFB7C080E380937D0108
:1004700085ED8093BC008091BC0084FDFCCFACC0B6
:1004800088E380937D019BC0809138019091BB00EF
:10049000E82FF0E0E85EFE4F90838F5F8093380195
:1004A000909138018091390182C0809138019091FA
:1004B000BB00E82FF0E0E85EFE4F90838F5F8093F3
:1004C000380180911201882341F085ED8093BC00B2
:1004D0008091BC0084FDFCCF7FC081E0809313013C
:1004E00084EA6EC085ED8093BC008091BC0084FDE1
:1004F000FCCF72C083E08093100110927C0159C040
:1005000080917C01803208F056C080917C019091EE
:10051000BB00E82FF0E0E45AFE4F90838F5F80939A
:100520007C0147C080917C01803230F4E0917C01F5
:10053000F0E0E45AFE4F108285ED8093BC0080917C
:10054000BC0084FDFCCF1092100160917C01E09111
:100550001601F09117018CE591E070E00995109279
:100560007C012DC084E08093100110925A011092FA
:100570005B01E0911401F0911501099580915B01F7
:10058000882329F481E080935B0110923A019091D5
:100590005A01E92FF0E0E65CFE4F80818093BB00BA
:1005A0009F5F90935A0190915A0180915B01981737
:1005B00010F485EC01C085E88093BC000FC085EC89
:1005C0008093BC0009C010927D0185ED8093BC0032
:1005D0008091BC0084FDFCCF10921001FF91EF913F
:1005E000BF91AF919F918F917F916F915F914F914B
:1005F0003F912F910F900FBE0F901F901895109262
:10060000100181E0809312011092130182E161E0F8
:100610000E94F30883E161E00E94F308E9EBF0E057
:1006200080818E7F808380818D7F808388E480932A
:10063000B80085E48093BC00089581E08093C301F5
:100640006093A0011092C1011092C20108952091FF
:100650009F0130E080919E01281B3109C901089556
:1006600040919E0180919F01481718F02FEF3FEFB6
:100670000AC0E42FF0E0E258FE4F8081282F30E0DE
:100680004F5F40939E01C9010895E0919E018091C2
:100690009F01E81718F0EFEFFFEF06C0F0E0E25817
:1006A000FE4F8081E82FF0E0CF0108950895109269
:1006B000C7011092C60188EE93E0A0E0B0E08093FD
:1006C000C8019093C901A093CA01B093CB0184E003
:1006D00091E09093C5018093C4010895CF92DF9279
:1006E000EF92FF920F931F93CF93DF937C016B01E7
:1006F0008A018091C3018823A1F0C0E0D0E00DC041
:10070000D701ED91FC91D601AC0FBD1F0190F08196
:10071000E02DC7016C9109952196C017D10780F390
:1007200004C0CB01642F0E943101C801DF91CF9139
:100730001F910F91FF90EF90DF90CF900895DF937E
:10074000CF930F92CDB7DEB7FC0169838091C301CF
:100750008823C9F08091C201803238F081E090E0B6
:100760009383828320E030E015C08091C101E82F9F
:10077000F0E0EF55FE4F998190838F5F8093C10128
:100780008093C20105C0CE01019661E00E94310153
:1007900021E030E0C9010F90CF91DF9108950F93D0
:1007A000062F8091A00161EA71E04091C20121E031
:1007B0000E94DC001092C1011092C2011092C3018C
:1007C0000F91089561E00E94CF030895413208F02F
:1007D00040E2862F6EE771E00E94930010929E0126
:1007E00080939F01089521E00E94E60308951092EE
:1007F0009E0110929F011092C1011092C2010E94AD
:10080000FF0208952CB5382F33702C7F322B3CBD5E
:100810002DB590E0959587959595879581702E7F5C
:10082000822B8DBD08958AE061E00E94F3088AE082
:1008300061E00E94B4088CB580618CBD8CB5806489
:100840008CBD8DE061E00E94B4088BE061E00E9405
:10085000B40808950895FC0134832383089580919A
:10086000DF018F5F8093DF0108951092D001109215
:10087000D1011092D2011092D4011092D3011092A2
:10088000D6011092D5011092D8011092D701109282
:10089000DA011092D9011092DC011092DB01109262
:1008A000DE011092DD011092DF010895EF92FF92B8
:1008B0000F931F93162F042F84ECE82E81E0F82E5F
:1008C000C7016EE170E00E941D03C701612F0E9405
:1008D0009F03C701602F0E949F03C7010E94E2038C
:1008E0001F910F91FF90EF9008950F931F93CF9357
:1008F000DF93162F042FE90184EC91E06EE170E0A4
:100900000E941D0384EC91E0612F0E949F0384EC00
:1009100091E00E94E20384EC91E06EE1402F0E949E
:10092000F30310E009C084EC91E00E943003FE0163
:10093000E10FF11D80831F5F84EC91E00E9427038B
:10094000892B89F784EC91E00E94E20380E0101784
:1009500009F481E0DF91CF911F910F910895DF920B
:10096000EF92FF920F931F93CF93DF93EC01F62E3C
:10097000142FD22E84EC91E00E94F7036AE070E01D
:1009800080E090E00E942008CE016AE043E09E01F2
:100990000E947504682F90E08881883409F091E006
:1009A00020E08981843309F021E0922B292F30E067
:1009B00040E050E08A81833311F041E050E0242B85
:1009C000352B232B11F0EE2404C0862F611181E01A
:1009D000E82E81E0F81649F0F81648F082E0F816A3
:1009E00041F083E0F81639F407C040E206C040E069
:1009F00004C040E402C0EE2440E6133099F0143005
:100A000028F4113059F0123058F413C0153071F039
:100A1000153050F04861163059F40BC0446009C0DD
:100A2000486007C04C6005C0406103C0446101C01C
:100A3000EE2481E0D81639F0D81640F082E0D816BE
:100A400021F0EE2403C0416001C04260CE0160E0AD
:100A50000E94560462E370E080E090E00E9420086B
:100A60000330A1F0043028F40130D9F0023060F4F2
:100A700009C0053079F0053058F0063069F00730CC
:100A800079F40CC040E00EC040E40CC040E60AC05F
:100A900040E808C040EA06C040EC04C040EE02C096
:100AA000EE2440E2CE0161E00E94560462E370E071
:100AB00080E090E00E942008CE0162E040E00E94C9
:100AC000560462E370E080E090E00E94200881E03C
:100AD0006FE274E043E050E00E944C078E2DDF91FE
:100AE000CF911F910F91FF90EF90DF90089508959F
:100AF000EF92FF920F9380EE91E060E971E040E0A9
:100B000022E001E00E94130680EDE82E81E0F82E3D
:100B1000C70163E046E020E00E94AF04C70160E047
:100B200070E040E050E020E030E00E942B040F91A4
:100B3000FF90EF9008958091FA018F5F8093FA0102
:100B400008951092E0011092E1011092E2011092DA
:100B5000E3011092E4011092E5011092E601109277
:100B6000E7011092E8011092E9011092EA01109257
:100B7000EB011092EC011092ED011092EE01109237
:100B8000EF011092F0011092F1011092F201109217
:100B9000F3011092F4011092F5011092F6011092F7
:100BA000F7011092F9011092F8011092FA011092D7
:100BB000FB011092FC0182E08093FD0181E08093B3
:100BC000FE0108951F93162F106884E060E00E94D4
:100BD000F3081EBD0DB407FEFDCF8EB51EBC0DB4CF
:100BE00007FEFDCF1EB584E061E00E94F308812F6F
:100BF0001F9108950F931F93162F042F84E060E038
:100C00000E94F3081EBD0DB407FEFDCF8EB50EBDCC
:100C10000DB407FEFDCF8EB584E061E00E94F308BD
:100C20001F910F910895CF92DF92EF92FF920F9351
:100C30001F93CF93DF93EC017B01142FD22EC02E94
:100C40004C8F2D8F0E8F84E061E00E94B40884E009
:100C500061E00E94F3080E94130481E00E940204F4
:100C60006AE070E080E090E00E942008CE016BE630
:100C700040E80E94FA0564E670E080E090E00E949F
:100C80002008CE016BE643E00E94FA0561E070E0C7
:100C900080E090E00E942008CE016AE640E10E94D8
:100CA000FA0561E070E080E090E00E942008CE014B
:100CB00065E70E94E2058E778B8F1330F1F01430D8
:100CC00028F4113091F01230A0F407C01530E9F08B
:100CD0001530B8F01630A1F51CC0CE016AE140E035
:100CE0000E94FA0580E49FE11BC0CE016AE141E069
:100CF00013C0CE016AE142E00FC0CE016AE143E0D9
:100D00000BC0CE016AE144E007C0CE016AE145E0D4
:100D100003C0CE016AE146E00E94FA0588EE93E046
:100D2000B7010E9447096115710521F16F3F7105F7
:100D300019F010F06FEF70E0162F115001E01CC099
:100D4000CE016AE140E00E94FA0580E49FE1B7012C
:100D50000E9447096115710511F410E008C06F3F4A
:100D6000710519F010F06FEF70E0162F11501C8E06
:100D700000E002C001E010E061E070E080E090E09F
:100D80000E942008CE0169E1412F0E94FA0561E02E
:100D900070E080E090E00E94200881E0D81669F0C1
:100DA000D81638F082E0D81671F083E0D81699F49E
:100DB0000EC0CE016BE140E003C0CE016BE148E024
:100DC0000E94FA0510C0CE016BE140E1F9CFCE01DF
:100DD0006BE148E1F5CFCE016BE140E10E94FA05FD
:100DE00082E08D8F00E061E070E080E090E00E94A2
:100DF000200881E0C81669F0C81638F082E0C816ED
:100E000071F083E0C81699F40EC0CE016CE140E0A9
:100E100003C0CE016CE148E00E94FA0510C0CE018B
:100E20006CE140E1F9CFCE016CE148E1F5CFCE01B4
:100E30006CE148E00E94FA0581E08E8F00E061E0FD
:100E400070E080E090E00E942008CE0168E341E07D
:100E50000E94FA0561E070E080E090E00E942008C6
:100E6000CE0167E340E10E94FA0561E070E080E0B6
:100E700090E00E94200880E06BE975E043E050E0DC
:100E80000E944C07802FDF91CF911F910F91FF900F
:100E9000EF90DF90CF900895823000F5E82FF0E0DA
:100EA000EE0FFF1FE150FE4F71836083882319F01E
:100EB0008130A1F408C0809169008C7F842B8093DD
:100EC0006900E89A089580916900440F551F440F06
:100ED000551F837F842B80936900E99A08951F92A0
:100EE0000F920FB60F9211242F933F934F935F935E
:100EF0006F937F938F939F93AF93BF93EF93FF93E2
:100F00008091FF0190910002892B29F0E091FF016F
:100F1000F09100020995FF91EF91BF91AF919F91E0
:100F20008F917F916F915F914F913F912F910F9092
:100F30000FBE0F901F9018951F920F920FB60F9231
:100F400011242F933F934F935F936F937F938F93CE
:100F50009F93AF93BF93EF93FF9380910102909182
:100F60000202892B29F0E0910102F0910202099519
:100F7000FF91EF91BF91AF919F918F917F916F9171
:100F80005F914F913F912F910F900FBE0F901F9047
:100F90001895CF93DF930E9479080E947805C0E0EE
:100FA000D0E00E9477052097E1F30E940000F9CF7E
:100FB0001F920F920FB60F9211242F933F938F938E
:100FC0009F93AF93BF938091070290910802A091E5
:100FD0000902B0910A0230910B020196A11DB11DC8
:100FE000232F2D5F2D3720F02D570196A11DB11D08
:100FF00020930B028093070290930802A0930902AA
:10100000B0930A028091030290910402A09105021C
:10101000B09106020196A11DB11D80930302909329
:101020000402A0930502B0930602BF91AF919F9175
:101030008F913F912F910F900FBE0F901F90189599
:101040009B01AC017FB7F894809103029091040258
:10105000A0910502B091060266B5A89B05C06F3F3E
:1010600019F00196A11DB11D7FBFBA2FA92F982F8E
:101070008827860F911DA11DB11D62E0880F991F61
:10108000AA1FBB1F6A95D1F7BC012DC0FFB7F8940A
:101090008091030290910402A0910502B091060292
:1010A000E6B5A89B05C0EF3F19F00196A11DB11D43
:1010B000FFBFBA2FA92F982F88278E0F911DA11D32
:1010C000B11DE2E0880F991FAA1FBB1FEA95D1F757
:1010D000861B970B885E9340C8F2215030404040F9
:1010E000504068517C4F211531054105510571F67D
:1010F0000895789484B5826084BD84B5816084BD90
:1011000085B5826085BD85B5816085BDEEE6F0E080
:10111000808181608083E1E8F0E0108280818260DC
:101120008083808181608083E0E8F0E0808181605D
:101130008083E1EBF0E0808184608083E0EBF0E08D
:10114000808181608083EAE7F0E080818460808331
:1011500080818260808380818160808380818068DB
:1011600080831092C1000895CF93DF93482F50E001
:10117000CA0186569F4FFC0134914A575F4FFA01CE
:101180008491882369F190E0880F991FFC01E85948
:10119000FF4FA591B491FC01EE58FF4FC591D4913A
:1011A000662351F42FB7F8948C91932F909589234F
:1011B0008C93888189230BC0623061F42FB7F89437
:1011C0008C91932F909589238C938881832B88838E
:1011D0002FBF06C09FB7F8948C91832B8C939FBF31
:1011E000DF91CF910895482F50E0CA0182559F4F5B
:1011F000FC012491CA0186569F4FFC0194914A57E5
:101200005F4FFA013491332309F440C0222351F196
:10121000233071F0243028F42130A1F0223011F570
:1012200014C02630B1F02730C1F02430D9F404C006
:10123000809180008F7703C0809180008F7D8093A4
:10124000800010C084B58F7702C084B58F7D84BDC7
:1012500009C08091B0008F7703C08091B0008F7D6E
:101260008093B000E32FF0E0EE0FFF1FEE58FF4F2A
:10127000A591B4912FB7F894662321F48C919095A1
:10128000892302C08C91892B8C932FBF0895AA1BB0
:10129000BB1B51E107C0AA1FBB1FA617B70710F061
:1012A000A61BB70B881F991F5A95A9F78095909593
:1012B000BC01CD010895EE0FFF1F0590F491E02DC4
:0612C0000994F894FFCF31
:1012C600000000009F036E03270330034503560307
:00000001FF
