:100000000C9464000C94CE050C94FB050C948C00AD
:100010000C948C000C948C000C948C000C948C0030
:100020000C948C000C948C000C948C000C948C0020
:100030000C948C000C948C000C948C000C948C0010
:100040000C9437060C948C000C948C000C948C004F
:100050000C948C000C948C000C948C000C948C00F0
:100060000C946D010C948C0000000000240027000B
:100070002A0000000000250028002B0000000000DE
:1000800023002600290004040404040404040202DA
:100090000202020203030303030301020408102007
:1000A0004080010204081020010204081020000012
:1000B0000007000201000003040600000000000029
:1000C00000004C03EC03000411241FBECFEFD8E066
:1000D000DEBFCDBF11E0A0E0B1E0E4E8FFE002C088
:1000E00005900D92A031B107D9F711E0A0E1B1E080
:1000F00001C01D92AB3FB107E1F710E0C8ECD0E0C2
:1001000004C02297FE010E94BC07C23CD107C9F778
:100110000E9428060C94C0070C940000880F80935E
:10012000BA000895382F413210F040E042C080916B
:1001300010018823E1F791E09093100120931201C0
:100140008FEF80937D011092380141504093390127
:100150004F5F9093110180911101330F832B809396
:10016000110180911301813041F4109213018091AB
:1001700011018093BB0085EC01C085EE8093BC002B
:10018000809110018130E1F380913801841710F4DF
:100190004091380120E030E00AC0FB01E20FF31F7C
:1001A000D901A85EBE4F8C9180832F5F3F4F2417EB
:1001B000A0F3842F08950F931F93582F122F4132CD
:1001C00010F081E04AC0809110018823E1F782E0BD
:1001D00080931001009312018FEF80937D011092A4
:1001E000380140933901A8E1B1E0FB0102C08191DF
:1001F0008D938E2F861B8417D0F31092110180915E
:100200001101550F852B80931101809113018130CD
:1002100041F410921301809111018093BB0085EC91
:1002200001C085EE8093BC00112321F08091100164
:100230008230E1F380917D018F3F11F480E00DC0A9
:1002400080917D01803211F482E007C080917D01B0
:10025000803311F084E001C083E01F910F91089575
:10026000482F613210F081E00895809110018430B0
:1002700011F082E0089560935B01AAE3B1E0842F5E
:100280009C01F90102C081918D938E2F841B8617EA
:10029000D0F380E00895909317018093160108959C
:1002A00090931501809314010895882311F085EC33
:1002B00001C085E88093BC00089585ED8093BC0063
:1002C0008091BC0084FDFCCF10921001089585EC54
:1002D0008093BC001092100108951F920F920FB6E8
:1002E0000F9211242F933F934F935F936F937F93BC
:1002F0008F939F93AF93BF93EF93FF938091B90038
:1003000090E0887F90708036910509F4F2C08136C4
:100310009105CCF58832910509F47BC089329105AD
:10032000B4F48031910509F46FC0813191053CF43A
:10033000009709F447C1089709F04FC165C088319B
:10034000910509F466C0809709F047C182C08034E6
:10035000910509F4A4C08134910544F480339105DA
:1003600009F482C0C89709F038C189C08035910569
:1003700009F489C08835910509F496C0883491053F
:1003800009F02BC1AEC08839910509F413C1893930
:100390009105ECF48837910509F4ABC089379105D4
:1003A0004CF48836910509F4A4C08037910509F012
:1003B00014C19FC08838910509F4FCC080399105AB
:1003C00009F49DC08038910509F007C198C0803BB1
:1003D000910509F4C6C0813B91054CF4803A910522
:1003E00009F49FC0883A910509F0F7C0BAC0803C73
:1003F000910509F4E3C0883C910509F4DFC0883B0E
:10040000910509F0EAC0C2C0809111018093BB0040
:10041000CFC09091380180913901981768F490917C
:100420003801E92FF0E0E85EFE4F80818093BB0049
:100430009F5F90933801BCC080911201882309F41A
:100440004BC085ED8093BC008091BC0084FDFCCF47
:10045000C2C080E280937D0185ED8093BC008091D5
:10046000BC0084FDFCCFB7C080E380937D0185EDA7
:100470008093BC008091BC0084FDFCCFACC088E3BD
:1004800080937D019BC0809138019091BB00E82F43
:10049000F0E0E85EFE4F90838F5F8093380190918B
:1004A00038018091390182C0809138019091BB0060
:1004B000E82FF0E0E85EFE4F90838F5F8093380175
:1004C00080911201882341F085ED8093BC008091DA
:1004D000BC0084FDFCCF7FC081E08093130184EADF
:1004E0006EC085ED8093BC008091BC0084FDFCCF84
:1004F00072C083E08093100110927C0159C08091FA
:100500007C01803208F056C080917C019091BB0044
:10051000E82FF0E0E45AFE4F90838F5F80937C01D8
:1005200047C080917C01803230F4E0917C01F0E0A2
:10053000E45AFE4F108285ED8093BC008091BC0090
:1005400084FDFCCF1092100160917C01E0911601B6
:10055000F09117018CE591E070E0099510927C0113
:100560002DC084E08093100110925A0110925B011B
:10057000E0911401F0911501099580915B018823A8
:1005800029F481E080935B0110923A0190915A0125
:10059000E92FF0E0E65CFE4F80818093BB009F5F17
:1005A00090935A0190915A0180915B01981710F431
:1005B00085EC01C085E88093BC000FC085EC80937A
:1005C000BC0009C010927D0185ED8093BC00809134
:1005D000BC0084FDFCCF10921001FF91EF91BF9100
:1005E000AF919F918F917F916F915F914F913F91CB
:1005F0002F910F900FBE0F901F9018951092100121
:1006000081E0809312011092130182E161E00E9467
:10061000520783E161E00E945207E9EBF0E080813C
:100620008E7F808380818D7F808388E48093B80073
:1006300085E48093BC00089520919F0130E0809173
:100640009E01281B3109C901089540919E018091A6
:100650009F01481718F02FEF3FEF0AC0E42FF0E09A
:10066000E258FE4F8081282F30E04F5F40939E017B
:10067000C9010895E0919E0180919F01E81718F04B
:10068000EFEFFFEF06C0F0E0E258FE4F8081E82F69
:10069000F0E0CF01089508951092C6011092C501AF
:1006A00088EE93E0A0E0B0E08093C7019093C8018A
:1006B000A093C901B093CA0184E091E09093C40172
:1006C0008093C3010895CF92DF92EF92FF920F9330
:1006D0001F93CF93DF937C016B018A018091C2014C
:1006E0008823A1F0C0E0D0E00DC0D701ED91FC91CE
:1006F000D601AC0FBD1F0190F081E02DC7016C91B8
:1007000009952196C017D10780F304C0CB01642F4F
:100710000E943001C801DF91CF911F910F91FF908E
:10072000EF90DF90CF900895DF93CF930F92CDB7E6
:10073000DEB7FC0169838091C2018823C9F08091F2
:10074000C101803238F081E090E09383828320E021
:1007500030E015C08091C001E82FF0E0E056FE4F78
:10076000998190838F5F8093C0018093C10105C000
:10077000CE01019661E00E94300121E030E0C90124
:100780000F90CF91DF9108952CB5382F33702C7FC7
:10079000322B3CBD2DB590E0959587959595879525
:1007A00081702E7F822B8DBD08958AE061E00E94CA
:1007B00052078AE061E00E9413078CB580618CBD0E
:1007C0008CB580648CBD8DE061E00E9413078BE0E6
:1007D00061E00E9413070895089508950F938FEC28
:1007E00091E060E971E040E022E001E00E947204E3
:1007F0000F9108958091E9018F5F8093E901089539
:100800001092CF011092D0011092D1011092D2011A
:100810001092D3011092D4011092D5011092D601FA
:100820001092D7011092D8011092D9011092DA01DA
:100830001092DB011092DC011092DD011092DE01BA
:100840001092DF011092E0011092E1011092E2019A
:100850001092E3011092E4011092E5011092E6017A
:100860001092E8011092E7011092E9011092EA015A
:100870001092EB0182E08093EC0181E08093ED0126
:1008800008951F93162F106884E060E00E945207BD
:100890001EBD0DB407FEFDCF8EB51EBC0DB407FE08
:1008A000FDCF1EB584E061E00E945207812F1F91A9
:1008B00008950F931F93162F042F84E060E00E9489
:1008C00052071EBD0DB407FEFDCF8EB50EBD0DB493
:1008D00007FEFDCF8EB584E061E00E9452071F91B4
:1008E0000F910895CF92DF92EF92FF920F931F9393
:1008F000CF93DF93EC017B01142FD22EC02E4C8FAF
:100900002D8F0E8F84E061E00E94130784E061E088
:100910000E9452070E94D50381E00E94C4036AE04E
:1009200070E080E090E00E947F06CE016BE640E838
:100930000E94590464E670E080E090E00E947F0627
:10094000CE016BE643E00E94590461E070E080E074
:1009500090E00E947F06CE016AE640E10E945904C1
:1009600061E070E080E090E00E947F06CE0165E7E4
:100970000E9441048E778B8F1330F1F0143028F4ED
:10098000113091F01230A0F407C01530E9F01530A5
:10099000B8F01630A1F51CC0CE016AE140E00E941B
:1009A000590480E49FE11BC0CE016AE141E013C01D
:1009B000CE016AE142E00FC0CE016AE143E00BC024
:1009C000CE016AE144E007C0CE016AE145E003C020
:1009D000CE016AE146E00E94590488EE93E0B70137
:1009E0000E94A6076115710521F16F3F710519F08D
:1009F00010F06FEF70E0162F115001E01CC0CE0117
:100A00006AE140E00E94590480E49FE1B7010E943E
:100A1000A6076115710511F410E008C06F3F71055C
:100A200019F010F06FEF70E0162F11501C8E00E0DF
:100A300002C001E010E061E070E080E090E00E9420
:100A40007F06CE0169E1412F0E94590461E070E008
:100A500080E090E00E947F0681E0D81669F0D81609
:100A600038F082E0D81671F083E0D81699F40EC001
:100A7000CE016BE140E003C0CE016BE148E00E9493
:100A8000590410C0CE016BE140E1F9CFCE016BE11A
:100A900048E1F5CFCE016BE140E10E94590482E0CC
:100AA0008D8F00E061E070E080E090E00E947F06C2
:100AB00081E0C81669F0C81638F082E0C81671F0F7
:100AC00083E0C81699F40EC0CE016CE140E003C08B
:100AD000CE016CE148E00E94590410C0CE016CE1E7
:100AE00040E1F9CFCE016CE148E1F5CFCE016CE1F8
:100AF00048E00E94590481E08E8F00E061E070E0E0
:100B000080E090E00E947F06CE0168E341E00E9411
:100B1000590461E070E080E090E00E947F06CE0121
:100B200067E340E10E94590461E070E080E090E0FA
:100B30000E947F0680E06AEF73E043E050E00E948D
:100B4000AB05802FDF91CF911F910F91FF90EF9018
:100B5000DF90CF900895823000F5E82FF0E0EE0F9F
:100B6000FF1FE251FE4F71836083882319F08130AB
:100B7000A1F408C0809169008C7F842B8093690068
:100B8000E89A089580916900440F551F440F551F3E
:100B9000837F842B80936900E99A08951F920F92B6
:100BA0000FB60F9211242F933F934F935F936F9340
:100BB0007F938F939F93AF93BF93EF93FF93809116
:100BC000EE019091EF01892B29F0E091EE01F09177
:100BD000EF010995FF91EF91BF91AF919F918F9197
:100BE0007F916F915F914F913F912F910F900FBE29
:100BF0000F901F9018951F920F920FB60F9211240D
:100C00002F933F934F935F936F937F938F939F9314
:100C1000AF93BF93EF93FF938091F0019091F10117
:100C2000892B29F0E091F001F091F1010995FF91F4
:100C3000EF91BF91AF919F918F917F916F915F9154
:100C40004F913F912F910F900FBE0F901F901895CD
:100C5000CF93DF930E94D8060E94EE03C0E0D0E05D
:100C60000E94ED032097E1F30E940000F9CF1F924C
:100C70000F920FB60F9211242F933F938F939F9350
:100C8000AF93BF938091F6019091F701A091F80185
:100C9000B091F9013091FA010196A11DB11D232FE8
:100CA0002D5F2D3720F02D570196A11DB11D2093EA
:100CB000FA018093F6019093F701A093F801B093A5
:100CC000F9018091F2019091F301A091F401B091AA
:100CD000F5010196A11DB11D8093F2019093F301DE
:100CE000A093F401B093F501BF91AF919F918F91C3
:100CF0003F912F910F900FBE0F901F9018959B0161
:100D0000AC017FB7F8948091F2019091F301A0912A
:100D1000F401B091F50166B5A89B05C06F3F19F0CD
:100D20000196A11DB11D7FBFBA2FA92F982F88272B
:100D3000860F911DA11DB11D62E0880F991FAA1F8A
:100D4000BB1F6A95D1F7BC012DC0FFB7F894809105
:100D5000F2019091F301A091F401B091F501E6B593
:100D6000A89B05C0EF3F19F00196A11DB11DFFBF63
:100D7000BA2FA92F982F88278E0F911DA11DB11D65
:100D8000E2E0880F991FAA1FBB1FEA95D1F7861BC7
:100D9000970B885E9340C8F221503040404050404D
:100DA00068517C4F211531054105510571F60895B3
:100DB000789484B5826084BD84B5816084BD85B536
:100DC000826085BD85B5816085BDEEE6F0E08081FD
:100DD00081608083E1E8F0E010828081826080831E
:100DE000808181608083E0E8F0E0808181608083A1
:100DF000E1EBF0E0808184608083E0EBF0E08081D3
:100E000081608083EAE7F0E0808184608083808174
:100E1000826080838081816080838081806880831C
:100E20001092C1000895CF93DF93482F50E0CA017C
:100E300086569F4FFC0134914A575F4FFA018491C7
:100E4000882369F190E0880F991FFC01E859FF4F52
:100E5000A591B491FC01EE58FF4FC591D491662342
:100E600051F42FB7F8948C91932F909589238C93FC
:100E7000888189230BC0623061F42FB7F8948C917C
:100E8000932F909589238C938881832B88832FBF00
:100E900006C09FB7F8948C91832B8C939FBFDF91F2
:100EA000CF910895482F50E0CA0182559F4FFC0111
:100EB0002491CA0186569F4FFC0194914A575F4F77
:100EC000FA013491332309F440C0222351F1233035
:100ED00071F0243028F42130A1F0223011F514C033
:100EE0002630B1F02730C1F02430D9F404C080910D
:100EF00080008F7703C0809180008F7D8093800079
:100F000010C084B58F7702C084B58F7D84BD09C0C1
:100F10008091B0008F7703C08091B0008F7D809367
:100F2000B000E32FF0E0EE0FFF1FEE58FF4FA5914A
:100F3000B4912FB7F894662321F48C91909589236E
:100F400002C08C91892B8C932FBF0895AA1BBB1BC9
:100F500051E107C0AA1FBB1FA617B70710F0A61BB9
:100F6000B70B881F991F5A95A9F780959095BC01DA
:100F7000CD010895EE0FFF1F0590F491E02D099427
:040F8000F894FFCF13
:100F840000000000940363031C0325033A034B038E
:00000001FF
