:100000000C9467000C9426240C9453240C948F00B9
:100010000C948F000C948F000C948F000C948F0024
:100020000C948F000C948F000C948F000C948F0014
:100030000C948F000C948F000C948F000C948F0004
:100040000C948F240C948F000C94B1200C94FF20FE
:100050000C948F000C948F000C948F000C948F00E4
:100060000C9470010C948F00000000002400270005
:100070002A0000000000250028002B0000000000DE
:1000800023002600290004040404040404040202DA
:100090000202020203030303030301020408102007
:1000A0004080010204081020010204081020000012
:1000B0000007000201000003040600000000000029
:1000C00000006307E508590E981453186B22112499
:1000D0001FBECFEFD8E0DEBFCDBF13E0A0E0B1E0A0
:1000E000E8E3FDE402C005900D92A835B107D9F709
:1000F00016E0A8E5B3E001C01D92AC3CB107E1F702
:1001000010E0CEECD0E004C02297FE010E949626BB
:10011000C23CD107C9F70E9480240C949A260C9403
:100120000000880F8093BA000895382F413210F0F4
:1001300040E042C0809158038823E1F791E090931A
:10014000580320935A038FEF8093C50310928003C6
:100150004150409381034F5F90935903809159031D
:10016000330F832B8093590380915B03813041F4DB
:1001700010925B03809159038093BB0085EC01C012
:1001800085EE8093BC00809158038130E1F380912B
:100190008003841710F44091800320E030E00AC00F
:1001A000FB01E20FF31FD901A05ABC4F8C91808351
:1001B0002F5F3F4F2417A0F3842F08950F931F93B1
:1001C000582F122F413210F081E04AC0809158031D
:1001D0008823E1F782E08093580300935A038FEF5E
:1001E0008093C5031092800340938103A0E6B3E09F
:1001F000FB0102C081918D938E2F861B8417D0F353
:100200001092590380915903550F852B8093590300
:1002100080915B03813041F410925B03809159031C
:100220008093BB0085EC01C085EE8093BC00112358
:1002300021F0809158038230E1F38091C5038F3F14
:1002400011F480E00DC08091C503803211F482E08A
:1002500007C08091C503803311F084E001C083E0C2
:100260001F910F910895482F613210F081E0089599
:1002700080915803843011F082E008956093A303C5
:10028000A2E8B3E0842F9C01F90102C081918D9313
:100290008E2F841B8617D0F380E0089590935F0320
:1002A00080935E03089590935D0380935C030895AB
:1002B000882311F085EC01C085E88093BC00089587
:1002C00085ED8093BC008091BC0084FDFCCF109232
:1002D0005803089585EC8093BC001092580308954C
:1002E0001F920F920FB60F9211242F933F934F93AB
:1002F0005F936F937F938F939F93AF93BF93EF938E
:10030000FF938091B90090E0887F907080369105CE
:1003100009F4F2C081369105CCF58832910509F4D3
:100320007BC089329105B4F48031910509F46FC026
:10033000813191053CF4009709F447C1089709F011
:100340004FC165C08831910509F466C0809709F0F6
:1003500047C182C08034910509F4A4C0813491055D
:1003600044F48033910509F482C0C89709F038C17C
:1003700089C08035910509F489C08835910509F453
:1003800096C08834910509F02BC1AEC0883991051B
:1003900009F413C189399105ECF48837910509F402
:1003A000ABC0893791054CF48836910509F4A4C097
:1003B0008037910509F014C19FC08838910509F470
:1003C000FCC08039910509F49DC08038910509F081
:1003D00007C198C0803B910509F4C6C0813B9105D7
:1003E0004CF4803A910509F49FC0883A910509F0D0
:1003F000F7C0BAC0803C910509F4E3C0883C910580
:1004000009F4DFC0883B910509F0EAC0C2C08091C1
:1004100059038093BB00CFC09091800380918103EA
:10042000981768F490918003E92FF0E0E05AFC4FB0
:1004300080818093BB009F5F90938003BCC08091BC
:100440005A03882309F44BC085ED8093BC0080914A
:10045000BC0084FDFCCFC2C080E28093C50385ED63
:100460008093BC008091BC0084FDFCCFB7C080E3CA
:100470008093C50385ED8093BC008091BC0084FD12
:10048000FCCFACC088E38093C5039BC08091800300
:100490009091BB00E82FF0E0E05AFC4F90838F5F13
:1004A00080938003909180038091810382C080912A
:1004B00080039091BB00E82FF0E0E05AFC4F90835E
:1004C0008F5F8093800380915A03882341F085EDEC
:1004D0008093BC008091BC0084FDFCCF7FC081E094
:1004E00080935B0384EA6EC085ED8093BC008091AD
:1004F000BC0084FDFCCF72C083E08093580310924F
:10050000C40359C08091C403803208F056C0809162
:10051000C4039091BB00E82FF0E0EC55FC4F9083B2
:100520008F5F8093C40347C08091C403803230F44E
:10053000E091C403F0E0EC55FC4F108285ED809310
:10054000BC008091BC0084FDFCCF109258036091E8
:10055000C403E0915E03F0915F0384EA93E070E0EE
:1005600009951092C4032DC084E080935803109223
:10057000A2031092A303E0915C03F0915D0309953F
:100580008091A303882329F481E08093A303109230
:1005900082039091A203E92FF0E0EE57FC4F808197
:1005A0008093BB009F5F9093A2039091A2038091E0
:1005B000A303981710F485EC01C085E88093BC0074
:1005C0000FC085EC8093BC0009C01092C50385ED77
:1005D0008093BC008091BC0084FDFCCF1092580336
:1005E000FF91EF91BF91AF919F918F917F916F910B
:1005F0005F914F913F912F910F900FBE0F901F90E1
:1006000018951092580381E080935A0310925B036F
:1006100082E161E00E94D02583E161E00E94D02563
:10062000E9EBF0E080818E7F808380818D7F808305
:1006300088E48093B80085E48093BC0008952F92ED
:100640003F924F925F926F927F928F929F92AF9262
:10065000BF92CF92DF92EF92FF920F931F93CF93AF
:10066000DF93CDB7DEB72C970FB6F894DEBF0FBE81
:10067000CDBF69837A838B839C832D833E834F8395
:1006800058878C81992787FD9095A92FB92FBC0198
:10069000CD010E9424267B018C018885992787FD46
:1006A0009095A92FB92F29813A814B815C81507097
:1006B000BC01CD010E942426DC01CB01E80EF91E0D
:1006C0000A1F1B1F8B81682E7724882499248F8111
:1006D000282E332444245524C401B301A2019101DE
:1006E0000E942426DC01CB01AA24B82EC92EDA2EC2
:1006F000AE0CBF1CC01ED11E8D819E819C01442763
:10070000552729873A874B875C87C401B3010E942C
:1007100024267B018C0189819A813C0188249924BB
:10072000C401B301A20191010E942426DC01CB0186
:10073000E80EF91E0A1F1B1FBB27A12F902F8F2D1C
:100740008A0D9B1DAC1DBD1D37E016950795F794CE
:10075000E7943A95D1F721E030E040E050E0E22222
:10076000F32204231523E80EF91E0A1F1B1FC401E0
:10077000B30129853A854B855C850E942426DC01DE
:10078000CB018B2F9927AA27BB278E0D9F1DA01F5A
:10079000B11FBC01CD012C960FB6F894DEBF0FBE81
:1007A000CDBFDF91CF911F910F91FF90EF90DF9020
:1007B000CF90BF90AF909F908F907F906F905F9001
:1007C0004F903F902F900895FF920F931F93CF93D8
:1007D000DF9300E010E0FF2497FF02C057FD0AC03E
:1007E00016161706180619063CF4121613061406F8
:1007F000150614F4F1E0FF2E97FF07C09095809541
:10080000709561957F4F8F4F9F4F57FF07C0509551
:100810004095309521953F4F4F4F5F4FC0E0D0E05E
:100820006F3FEFEF7E07EFEF8E07EFE39E0744F495
:10083000660F771F881F991F2196C831D10584F351
:1008400020FD08C055954795379527950F5F1F4F99
:1008500020FFF8CF0E947926D095C195DF4FC01BAD
:10086000D10B68961C161D0644F404C0220F331FDA
:10087000441F551FCA95D2F719C0D7FF17C0C0959E
:10088000D09504C05595479537952795CA95D2F7C9
:10089000DA01C901B595A7959795879521703070B4
:1008A00040705070280F391F4A1F5B1FFF2039F41A
:1008B00050954095309521953F4F4F4F5F4FCA015E
:1008C000B901DF91CF911F910F91FF900895EF92A1
:1008D000FF920F931F93CF93DF93CDB7DEB72C9783
:1008E0000FB6F894DEBF0FBECDBF6D837E838F83BE
:1008F00098877A0119861A861B861C8611E0452B7B
:1009000021F47E010894E11CF11C60E02D813E8100
:100910004F815885263D7EE7370778E4470776E024
:100920005707FCF0DA01C901865D9E47A844B6402E
:10093000613041F460E0DA01C901855D9E47A84459
:10094000B64001C06F5F9C01AD01863DEEE79E079A
:10095000E8E4AE07E6E0BE072CF78D839E83AF8305
:10096000B88760E08D819E81AF81B885BB23BCF4E0
:100970009C01AD012A523148474B594F613031F447
:1009800060E0215030404040504001C06F5FDA01CC
:10099000C90157FDEDCF2D833E834F8358878D814D
:1009A0009E81AF81B8858C36FFE39F07F4E2AF07E5
:1009B000F3E0BF074CF08B569F43A442B3408D83B6
:1009C0009E83AF83B88713E02D813E814F81588588
:1009D000263B7FE1370772E9470771E057076CF064
:1009E0008BE69FE3A4E2B3E0821B930BA40BB50B51
:1009F0008D839E83AF83B8871F5F8D819E81AF817A
:100A0000B8850097A105B105B1F41250123028F451
:100A100080E090E0A0E0BFEF04C080E090E0A0E0C4
:100A2000B1E0F70180839183A283B38360E070E03B
:100A300080E090E055C08CEE94E7ABE9B0E0F701C0
:100A400080839183A283B38300E028E1AE014B5FF2
:100A50005F4FBE01675F7F4FC7010E945306812F22
:100A600099278330910549F0843091051CF4029751
:100A700099F032C0049709F12FC089859A85AB851A
:100A8000BC85B095A095909581959F4FAF4FBF4F76
:100A900089879A87AB87BC87F70180819181A28182
:100AA000B381B095A095909581959F4FAF4FBF4F63
:100AB00080839183A283B3830FC089859A85AB8598
:100AC000BC85B095A095909581959F4FAF4FBF4F36
:100AD00089879A87AB87BC8769857A858B859C8552
:100AE0002C960FB6F894DEBF0FBECDBFDF91CF912D
:100AF0001F910F91FF90EF9008958F929F92AF9268
:100B0000BF92CF92DF92EF92FF920F931F93CF93FA
:100B1000DF93CDB7DEB72C970FB6F894DEBF0FBECC
:100B2000CDBF69837A838B839C832D833E834F83E0
:100B3000588719861A861B861C8659016A01211559
:100B400031054105510519F4CA01B90199C079016E
:100B50008A01E094F09400951095EE2417FDE3943B
:100B6000FF24002711278E2C29813A814B815C813B
:100B7000211531054105510561F4EE2029F06FEF93
:100B80007FEF8FEF9FE77CC061E070E080E090E84E
:100B900077C0DA01C90180959095A095B095882716
:100BA000B7FD83959927AA27BB27982E882359F448
:100BB00088279927DC01821B930BA40BB50B898333
:100BC0009A83AB83BC83EE2059F488279927DC01F4
:100BD0008A199B09AC09BD098D839E83AF83B887B1
:100BE0008C8186FD03C0888586FF18C089819A8123
:100BF000AB81BC81B595A7959795879589839A8395
:100C0000AB83BC838D819E81AF81B885B595A79557
:100C1000979587958D839E83AF83B88701E028E100
:100C2000AE01475F5F4FBE016B5F7F4FCE01019604
:100C30000E945306882059F069857A858B859C85AA
:100C40009920F1F46B54704E8D469E4F19C0698502
:100C50007A858B859C85992041F09095809570953B
:100C600061957F4F8F4F9F4F0BC0909580957095EA
:100C700061957F4F8F4F9F4F655B7F4182499140C8
:100C80002C960FB6F894DEBF0FBECDBFDF91CF918B
:100C90001F910F91FF90EF90DF90CF90BF90AF909A
:100CA0009F908F9008952F923F924F925F926F92F4
:100CB0007F928F929F92AF92BF92CF92DF92EF92EC
:100CC000FF920F931F93CF93DF93CDB7DEB7C75635
:100CD000D0400FB6F894DEBF0FBECDBF2C011B0174
:100CE000A7964EAF5FAFA797A8962FAFA897602E95
:100CF00084E6DE011196E4EDF2E001900D928A9512
:100D0000E1F7F201C080D180E280F380FB014081F5
:100D1000518162817381A796EEADFFADA797808068
:100D20009180A280B380772497018601662029F004
:100D3000141615061606170624F4662069F5B7FC86
:100D40002BC0E72DFF27DB01CA010E2E04C0B5958D
:100D5000A795979587950A94D2F7C81AD90AEA0AEF
:100D6000FB0A0E2E04C035952795179507950A9412
:100D7000D2F7400F511F621F731FEE0FFF1FEE0FC0
:100D8000FF1FEC0FFD1F81819281A381B481881A1E
:100D9000990AAA0ABB0A2AC0E72DFF27DB01CA016C
:100DA0000E2E04C0B595A795979587950A94D2F70E
:100DB000C80ED91EEA1EFB1E0E2E04C035952795BF
:100DC000179507950A94D2F7401B510B620B730BD2
:100DD000EE0FFF1FEE0FFF1FEC0FFD1F81819281B1
:100DE000A381B481880E991EAA1EBB1E7394A89677
:100DF000FFADA897F71508F097CFF201C082D18216
:100E0000E282F382F1014083518362837383A79668
:100E1000EEADFFADA79780829182A282B382C959BD
:100E2000DF4F0FB6F894DEBF0FBECDBFDF91CF917D
:100E30001F910F91FF90EF90DF90CF90BF90AF90F8
:100E40009F908F907F906F905F904F903F902F90EA
:100E5000089581E080930B046093E80310920904E5
:100E600010920A0408952091E70330E08091E60390
:100E7000281B3109C90108954091E6038091E703D9
:100E8000481718F02FEF3FEF0AC0E42FF0E0EA53C5
:100E9000FC4F8081282F30E04F5F4093E603C9016B
:100EA0000895E091E6038091E703E81718F0EFEF6B
:100EB000FFEF06C0F0E0EA53FC4F8081E82FF0E03E
:100EC000CF010895089510920F0410920E0488EE39
:100ED00093E0A0E0B0E08093100490931104A093FD
:100EE0001204B09313048CE393E090930D04809369
:100EF0000C040895CF92DF92EF92FF920F931F930D
:100F0000CF93DF937C016B018A0180910B048823CE
:100F1000A1F0C0E0D0E00DC0D701ED91FC91D60169
:100F2000AC0FBD1F0190F081E02DC7016C910995B8
:100F30002196C017D10780F304C0CB01642F0E9413
:100F40003301C801DF91CF911F910F91FF90EF9076
:100F5000DF90CF900895DF93CF930F92CDB7DEB798
:100F6000FC01698380910B048823C9F080910A04F5
:100F7000803238F081E090E09383828320E030E09B
:100F800015C080910904E82FF0E0E751FC4F9981EA
:100F900090838F5F8093090480930A0405C0CE017B
:100FA000019661E00E94330121E030E0C9010F9019
:100FB000CF91DF9108950F93062F8091E80369EE9A
:100FC00073E040910A0421E00E94DE0010920904BF
:100FD00010920A0410920B040F91089561E00E9490
:100FE000DB070895413208F040E2862F66EC73E09B
:100FF0000E9495001092E6038093E703089521E094
:101000000E94F20708951092E6031092E7031092EF
:10101000090410920A040E94010308952CB5382F88
:1010200033702C7F322B3CBD2DB590E09595879584
:101030009595879581702E7F822B8DBD08958AE0CE
:1010400061E00E94D0258AE061E00E9491258CB584
:1010500080618CBD8CB580648CBD8DE061E00E94A8
:1010600091258BE061E00E9491250895FC0110829A
:1010700011821282138214821582168217821086C0
:101080001186128613861486158616861786108A90
:10109000118A128A138A148A158A168A178A108E60
:1010A000118E128E138E148E158E168E178E10A220
:1010B00011A212A213A214A215A216A217A210A680
:1010C00011A612A613A614A615A616A617A610AA50
:1010D00011AA12AA13AA14AA15AA16AA17AA11AE1F
:1010E00010AE12AE13AE82E084AF81E085AF0895FA
:1010F000CF92DF92EF92FF920F931F93FC0144A3D4
:1011000055A366A377A300A711A722A733A7C4A658
:10111000D5A6E6A6F7A61F910F91FF90EF90DF905E
:10112000CF900895CF92DF92EF92FF920F931F938B
:10113000FC014487558766877787008B118B228B4C
:10114000338BC48AD58AE68AF78A1F910F91FF9064
:10115000EF90DF90CF900895FC01608171818281D2
:1011600093810895FC01648175818681978108953A
:10117000FC0160857185828593850895FC01608DF1
:10118000718D828D938D0895FC01648D758D868D92
:10119000978D0895FC0160A171A182A193A108958A
:1011A000FC0160A971A982A993A90895FC0164A911
:1011B00075A986A997A90895FC0182AD089580912B
:1011C00052048F5F80935204089588E194E00E9456
:1011D000360808951F93162F106884E060E00E947F
:1011E000D0251EBD0DB407FEFDCF8EB51EBC0DB4BF
:1011F00007FEFDCF1EB584E061E00E94D025812F5F
:101200001F9108957F928F929F92AF92BF92CF923B
:10121000DF92EF92FF920F931F93CF93DF93EC0136
:1012200063E40E94EA08D82ECE0164E40E94EA0832
:10123000FD2CEE2490E0E82AF92A0027F7FC00951F
:10124000102F8CAD43E0842E912C9401281B310982
:1012500030EDA32E35E4B32EC12CD12CD601C5011F
:1012600004C0B595A795979587952A95D2F79C01C7
:10127000AD01C801B7010E9424262CA13DA14EA1B9
:101280005FA1260F371F481F591F288F398F4A8F9C
:101290005B8FCE0165E40E94EA08782ECE0166E4F9
:1012A0000E94EA08F72CEE2490E0E82AF92A0027A9
:1012B000F7FC0095102F10950095F094E094E11C38
:1012C000F11C011D111D8CAD9401281B3109D601A3
:1012D000C50104C0B595A795979587952A95D2F72E
:1012E0009C01AD01C801B7010E94242628A539A59B
:1012F0004AA55BA5260F371F481F591F2C8F3D8F0E
:101300004E8F5F8FCE0167E40E94EA08182FCE014E
:1013100068E40E94EA08312F20E090E0282B392B66
:10132000442737FD4095542F509540953095219591
:101330003F4F4F4F5F4F8CAD881A910804C0D59432
:10134000C794B794A7948A94D2F7CA01B901A601A9
:1013500095010E9424262CA53DA54EA55FA5260F2C
:10136000371F481F591F28A339A34AA35BA38AAD7F
:10137000882319F08AAD81508AAFDF91CF911F91F8
:101380000F91FF90EF90DF90CF90BF90AF909F9024
:101390008F907F9008950F931F93162F042F84E052
:1013A00060E00E94D0251EBD0DB407FEFDCF8EB5B6
:1013B0000EBD0DB407FEFDCF8EB584E061E00E9446
:1013C000D0251F910F910895EF92FF920F931F93D5
:1013D000CF93DF93EC01288539854A855B85EC80C6
:1013E000FD800E811F8157FD24C0CA01B901A801EB
:1013F00097010E947D056659704C8B4D9C4F68ABE0
:1014000079AB8AAB9BAB688579858A859B8528817A
:1014100039814A815B8150954095309521953F4FA8
:101420004F4F5F4F0E947D056659704C8B4D9C4F0E
:1014300025C066277727CB01621B730B840B950BA6
:1014400022273327A9012E193F09400B510B0E9477
:101450007D0568AB79AB8AAB9BAB688579858A855E
:101460009B8590958095709561957F4F8F4F9F4F8D
:10147000288139814A815B810E947D056CAB7DABFF
:101480008EAB9FAB88A999A9AAA9BBA98B362FE3DC
:10149000920724E2A20723E0B2072CF0855D9E4765
:1014A000A844B6400CC0863920EC92072BEDA20769
:1014B0002CEFB20744F48B529148A74BB94F88AB3D
:1014C00099ABAAABBBAB8CA99DA9AEA9BFA98B3622
:1014D0002FE3920724E2A20723E0B2072CF0855DF8
:1014E0009E47A844B6400CC0863920EC92072BEDED
:1014F000A2072CEFB20744F48B529148A74BB94F87
:101500008CAB9DABAEABBFABDF91CF911F910F9179
:10151000FF90EF9008951F93CF93DF93EC016BE35F
:101520000E94EA08182FCE016CE30E94EA08282FD7
:1015300030E04DAD433081F5912F80E0282B392BE1
:1015400087E9263938072CF426E737E241E050E8EE
:1015500016C088E62B3638072CF02AE838ED4EEF17
:101560005FE70DC0B901882777FD8095982F21EDA1
:1015700039E341E050E00E9424269B01AC018C85B8
:101580009D85AE85BF85820F931FA41FB51F8883DD
:101590009983AA83BB8325C0712F60E0622B732BD4
:1015A000882777FD8095982FE3E0F0E0E41BF109B0
:1015B00021ED39E341E050E004C05595479537955A
:1015C0002795EA95D2F70E9424262C853D854E85E5
:1015D0005F85260F371F481F591F288339834A8389
:1015E0005B83CE016DE30E94EA08182FCE016EE303
:1015F0000E94EA08282F30E04DAD433009F03FC08B
:10160000912F80E0822B932BAA2797FDA095BA2FCC
:1016100022273327A901281B390B4A0B5B0B2639DC
:1016200087E938078FEF48078FEF58072CF426E734
:1016300037E241E050E816C0CA01B9016B3628E62E
:10164000720720E0820720E0920724F06AE678E63D
:1016500080E090E021ED39E341E050E00E94242653
:101660009B01AC0188899989AA89BB89820F931F44
:10167000A41FB51F8C839D83AE83BF832CC0712FA5
:1016800060E0622B732B882777FD8095982F9095CB
:101690008095709561957F4F8F4F9F4FE3E0F0E00D
:1016A000E41BF10921ED39E341E050E004C0559518
:1016B000479537952795EA95D2F70E9424262889E1
:1016C00039894A895B89260F371F481F591F2C8388
:1016D0003D834E835F83CE016FE30E94EA08182F9B
:1016E000CE0160E40E94EA08282F30E04DAD43307F
:1016F00009F03FC0912F80E0822B932BAA2797FD02
:10170000A095BA2F22273327A901281B390B4A0B92
:101710005B0B263987E938078FEF48078FEF5807AB
:101720002CF426E737E241E050E816C0CA01B901BF
:101730006B3628E6720720E0820720E0920724F04B
:101740006AE678E680E090E021ED39E341E050E0A0
:101750000E9424269B01AC018C899D89AE89BF899A
:10176000820F931FA41FB51F88879987AA87BB87FD
:101770002CC0712F60E0622B732B882777FD80953A
:10178000982F90958095709561957F4F8F4F9F4FC3
:10179000E3E0F0E0E41BF10921ED39E341E050E042
:1017A00004C05595479537952795EA95D2F70E943D
:1017B00024262C893D894E895F89260F371F481FB3
:1017C000591F288739874A875B87CE010E94E40921
:1017D0008AAD882319F08AAD81508AAFDF91CF910D
:1017E0001F910895CF93DF93EC010E948B0A8AAD7D
:1017F0008F5F8AAFCE010E9402098AAD8F5F8AAFE8
:101800008AAD882319F08AAD81508AAFDF91CF91DC
:101810000895CF92DF92EF92FF920F931F93CF9391
:10182000DF93EC017B01142FD22EC02E2CAF0DAF15
:1018300084E061E00E94912584E061E00E94D0256F
:101840000E941F0881E00E940E086AE070E080E0BC
:1018500090E00E94FD24CE016BE640E80E94CB0997
:1018600064E670E080E090E00E94FD24CE016BE62B
:1018700043E00E94CB0961E070E080E090E00E94CC
:10188000FD24CE016AE640E10E94CB0961E070E0F0
:1018900080E090E00E94FD24CE0165E70E94EA0806
:1018A0008E778BAF1330F1F0143028F4113091F0B3
:1018B0001230A0F407C01530E9F01530B8F016303A
:1018C000A1F51CC0CE016AE140E00E94CB0980E492
:1018D0009FE11BC0CE016AE141E013C0CE016AE185
:1018E00042E00FC0CE016AE143E00BC0CE016AE1E5
:1018F00044E007C0CE016AE145E003C0CE016AE1E1
:1019000046E00E94CB0988EE93E0B7010E9443268F
:101910006115710519F16F3F710519F010F06FEF46
:1019200070E0162F115001E01BC0CE016AE140E0CB
:101930000E94CB0980E49FE1B7010E944326611514
:10194000710511F400E00BC06F3F710519F010F044
:101950006FEF70E0162F115000E002C001E010E0C0
:1019600061E070E080E090E00E94FD24CE0169E13A
:10197000412F0E94CB0961E070E080E090E00E947E
:10198000FD2481E0D81669F0D81638F082E0D81628
:1019900071F083E0D81699F40EC0CE016BE140E0FF
:1019A00003C0CE016BE148E00E94CB0910C0CE011C
:1019B0006BE140E1F9CFCE016BE148E1F5CFCE011B
:1019C0006BE140E10E94CB0982E08CAF00E061E076
:1019D00070E080E090E00E94FD2481E0C81669F08C
:1019E000C81638F082E0C81671F083E0C81699F482
:1019F0000EC0CE016CE140E003C0CE016CE148E0D6
:101A00000E94CB0910C0CE016CE140E1F9CFCE01BC
:101A10006CE148E1F5CFCE016CE148E00E94CB09D2
:101A200081E08DAF00E061E070E080E090E00E9436
:101A3000FD24CE0168E341E00E94CB0961E070E043
:101A400080E090E00E94FD24CE0167E340E10E9427
:101A5000CB0961E070E080E090E00E94FD2480E02E
:101A60006FED78E043E050E00E940324802FDF9187
:101A7000CF911F910F91FF90EF90DF90CF9008953D
:101A8000FC0114821582168217821486158616862A
:101A90001786108211821282138210861186128696
:101AA000138610AA11AA12AA13AA10AE11AE12AE72
:101AB00013AE14AA15AA16AA17AA14AE15AE16AE1E
:101AC00017AE108A118A128A138A148A158A168A06
:101AD000178A108E118E128E138E148E158E168EFE
:101AE000178E10A211A212A213A214A215A216A25E
:101AF00017A210A611A612A613A614A615A616A61E
:101B000017A608954F925F926F927F928F929F9245
:101B1000AF92BF92CF92DF92EF92FF920F931F93FB
:101B2000DF93CF93CDB7DEB7FC014083518362834F
:101B300073838B899C89AD89BE894F88588C698C49
:101B40007A8C048315832683378384869586A686BC
:101B5000B786C086D186E286F38680AB91ABA2AB16
:101B6000B3AB80AF91AFA2AFB3AF44AA55AA66AAF8
:101B700077AA44AE55AE66AE77AE2B8D3C8D4D8DBB
:101B80005E8D208B318B428B538B148A158A168A7B
:101B9000178A108E118E128E138E4F8D58A169A147
:101BA0007AA1448F558F668F778F6B8D7C8D8D8D4D
:101BB0009E8D60A371A382A393A314A215A216A263
:101BC00017A210A611A612A613A68F8D98A1A9A1DF
:101BD000BAA184A795A7A6A7B7A7CF91DF911F9118
:101BE0000F91FF90EF90DF90CF90BF90AF909F90BC
:101BF0008F907F906F905F904F900895FC0160AD43
:101C000071AD82AD93AD0895FC0164AD75AD86AD47
:101C100097AD0895FC0120A931A942A953A920AF8D
:101C200031AF42AF53AF84A995A9A6A9B7A984AF94
:101C300095AFA6AFB7AF2B368FE3380784E24807DE
:101C400083E058072CF0255D3E47484456400CC0C1
:101C5000263980EC38078BED48078CEF580744F4A1
:101C60002B523148474B594F20AF31AF42AF53AFA2
:101C700080899189A289B38980A391A3A2A3B3A3E8
:101C800084899589A689B78984A395A3A6A3B7A3B8
:101C9000808D918DA28DB38D80A791A7A2A7B3A7A8
:101CA000848D958DA68DB78D84A795A7A6A7B7A778
:101CB000089586E594E00E94400D86E994E00E9434
:101CC000400D86ED94E00E94400D08952F923F92C2
:101CD0004F925F926F927F928F929F92AF92BF923C
:101CE000CF92DF92EF92FF920F931F93DF93CF93E8
:101CF00000D000D000D0CDB7DEB79E838D837801B1
:101D0000890114161506160617062CF020E130E09E
:101D100040E050E01AC0493332E453073FE0630724
:101D200030E0730724F048E352E46FE070E0CB0149
:101D3000BA0127EC30E140E050E00E942426272F32
:101D4000382F492F552747FD5A9529833A834B83CE
:101D50005C83E114F1040105110519F5AD81BE8123
:101D6000D896ED90FD900D911C91DB97DC966D91CE
:101D70007D918D919C91DF9729813A814B815C8186
:101D80000E941F03E60EF71E081F191FED81FE813A
:101D9000E0AAF1AA02AB13AB84AD95ADA6ADB7AD89
:101DA0003EC0C801B70129813A814B815C810E9404
:101DB0001F033B014C01AD81BE81D896AD90BD9013
:101DC000CD90DC90DB97DC966D917D918D919C910F
:101DD000DF9729813A814B815C810E941F037B013F
:101DE0008C01C401B30129813A814B815C810E943D
:101DF0001F03E60EF71E081F191FAE0CBF1CC01EE6
:101E0000D11EED81FE81A0AAB1AAC2AAD3AA84AD37
:101E100095ADA6ADB7AD860D971DA81DB91D84ABB8
:101E200095ABA6ABB7ABED81FE8180A991A9A2A924
:101E3000B3A98B36FFE39F07F4E2AF07F3E0BF07D8
:101E40002CF0855D9E47A844B6400CC08639F0EC66
:101E50009F07FBEDAF07FCEFBF0754F48B5291488F
:101E6000A74BB94FED81FE8180AB91ABA2ABB3AB79
:101E7000AD81BE819C966D917D918D919C919F9736
:101E800029813A814B815C810E941F035B016C01B7
:101E9000ED81FE81E0A0F1A002A113A164A175A1D2
:101EA00086A197A129813A814B815C810E941F0301
:101EB0001B012C01AD81BE8198966D917D918D9114
:101EC0009C919B9729813A814B815C810E941F03E1
:101ED0003B014C0169817A818B819C81A60195012E
:101EE0000E941F03ED81FE81208131814281538157
:101EF000E20EF31E041F151FE20CF31C041D151D3A
:101F0000E60CF71C081D191DE60EF71E081F191F09
:101F1000E08AF18A028B138B84A195A1A6A1B7A1B7
:101F20008A0D9B1DAC1DBD1D848B958BA68BB78B1D
:101F300080A591A5A2A5B3A58A0D9B1DAC1DBD1DB5
:101F4000808F918FA28FB38F84819581A681B78175
:101F500024A535A546A557A5820F931FA41FB51F1D
:101F6000848F958FA68FB78F26960FB6F894DEBF15
:101F70000FBECDBFCF91DF911F910F91FF90EF90DA
:101F8000DF90CF90BF90AF909F908F907F906F9099
:101F90005F904F903F902F9008950F931F9300E014
:101FA00010E020E030E00E94660E1F910F9108952E
:101FB0000F931F938C010E94CD0FC8010E940A0E3F
:101FC0001F910F9108952F923F924F925F926F92BF
:101FD0007F928F929F92AF92BF92CF92DF92EF92B9
:101FE000FF920F931F93DF93CF93CDB7DEB7A297E6
:101FF0000FB6F894DEBF0FBECDBF9AA389A31A0116
:102000002B01FC0180A991A9A2A9B3A9281A390A18
:102010004A0A5B0A84A995A9A6A9B7A9A9019801AA
:10202000281B390B4A0B5B0B2D8F3E8F4F8F58A30C
:10203000608571858285938520893189428953899C
:10204000620F731F841F951F24853585468557852C
:10205000E48CF58C068D178D2E0D3F1D401F511FF2
:102060000E941F037B018C01A9A1BAA154966D9116
:102070007D918D919C91579758962D913D914D91C1
:102080005C915B970E941F03E61AF70A080B190B75
:1020900060E070E080E091E0A80197010E94E40315
:1020A0003B014C01E9A1FAA1608971898289938978
:1020B000248D358D468D578D0E941F035B016C0169
:1020C000A9A1BAA154966D917D918D919C9157973C
:1020D00058962D913D914D915C915B970E941F0305
:1020E0007B018C01E9A1FAA16089718982899389B8
:1020F00024853585468557850E941F039B01AC01C9
:102100002A0D3B1D4C1D5D1D2E193F09400B510B27
:10211000C401B3010E941F03698F7A8F8B8F9C8F3C
:1021200069837A838B839C83A9A1BAA154966D910C
:102130007D918D919C91579718962D913D914D9140
:102140005C911B970E941F039B01AC01C401B3016A
:102150000E941F036D8B7E8B8F8B988F6D837E8388
:102160008F839887E9A1FAA1608D718D828D938DFF
:1021700024853585468557850E941F039B01AC0148
:10218000C401B3010E941F03698B7A8B8B8B9C8BDC
:1021900069877A878B879C87A9A1BAA150966D9190
:1021A0007D918D919C9153975C962D913D914D9190
:1021B0005C915F970E941F035B016C01E9A1FAA18A
:1021C0006489758986899789208D318D428D538DDB
:1021D0000E941F037B018C01A9A1BAA15C966D919D
:1021E0007D918D919C915F9718962D913D914D9188
:1021F0005C911B970E941F039B01AC012A0D3B1DA4
:102200004C1D5D1D2E193F09400B510BC401B3013C
:102210000E941F033B014C016D877E878F87988B3F
:10222000E9A1FAA1A0A8B1A8C2A8D3A8698D7A8D06
:102230008B8D9C8DA20191010E941F037B018C015B
:102240006D897E898F89988D2D8D3E8D4F8D58A1FA
:102250000E941F03E60EF71E081F191FAE0CBF1CBD
:10226000C01ED11EA9A1BAA1D896AD92BD92CD92A1
:10227000DC92DB97D496AD90BD90CD90DC90D79753
:10228000C401B301A20191010E941F037B018C01D3
:1022900069897A898B899C892D8D3E8D4F8D58A1B6
:1022A0000E941F03E60EF71E081F191FAE0CBF1C6D
:1022B000C01ED11EE9A1FAA1A4AEB5AEC6AED7AE7E
:1022C00080AD91ADA2ADB3AD8B36FFE39F07F4E2D5
:1022D000AF07F3E0BF072CF0855D9E47A844B640EA
:1022E0000CC08639F0EC9F07FBEDAF07FCEFBF0792
:1022F00054F48B529148A74BB94FE9A1FAA180AF92
:1023000091AFA2AFB3AFA9A1BAA15096ED90FD9045
:102310000D911C915397C801B701298D3A8D4B8DB2
:102320005C8D0E941F035B016C01E9A1FAA1608D25
:10233000718D828D938D2D893E894F89588D0E9494
:102340001F03EA18FB080C091D09E61AF70A080B17
:10235000190BA9A1BAA19096ED92FD920D931C9331
:1023600093975496ED90FD900D911C915797C8014D
:10237000B701298D3A8D4B8D5C8D0E941F035B0147
:102380006C01E9A1FAA1648D758D868D978D2D89DB
:102390003E894F89588D0E941F03EA18FB080C09DB
:1023A0001D09E61AF70A080B190BA9A1BAA1949600
:1023B000ED92FD920D931C9397975896ED90FD909A
:1023C0000D911C915B9750966D917D918D919C9193
:1023D000539729893A894B895C890E941F035B01C5
:1023E0006C01E9A1FAA1608D718D828D938DA4019C
:1023F00093010E941F03EA18FB080C091D09E61A45
:10240000F70A080B190BA9A1BAA19896ED92FD92B3
:102410000D931C939B975C96ED90FD900D911C91F4
:102420005F9754966D917D918D919C9157972989D5
:102430003A894B895C890E941F035B016C01E9A109
:10244000FAA1648D758D868D978DA40193010E94EC
:102450001F03EA18FB080C091D09E61AF70A080B06
:10246000190BA9A1BAA19C96ED92FD920D931C9314
:102470009F97A2960FB6F894DEBF0FBECDBFCF9147
:10248000DF911F910F91FF90EF90DF90CF90BF9061
:10249000AF909F908F907F906F905F904F903F9004
:1024A0002F9008956F927F928F929F92AF92BF92DA
:1024B000CF92DF92EF92FF920F931F933C0148015E
:1024C00059010E94CD0FC301B501A40197018601F6
:1024D0000E94E30F1F910F91FF90EF90DF90CF903C
:1024E000BF90AF909F908F907F906F9008952F92A4
:1024F0003F924F925F926F927F928F929F92AF9294
:10250000BF92CF92DF92EF92FF920F931F93CF93E0
:10251000DF93EC015A016B018CA99DA9AEA9BFA95B
:10252000A81AB90ACA0ADB0A2C853D854E855F8543
:102530008C8D9D8DAE8DBF8D280F391F4A1F5B1F5F
:1025400060E070E080E091E00E94E4037B018C0198
:102550002C893D894E895F890E941F033B014C01F4
:102560002C8D3D8D4E8D5F8DC801B7010E941F03DC
:102570001B012C01E8A8F9A80AA91BA9C401B301F1
:10258000A60195010E941F03E60EF71E081F191FE2
:10259000E8AEF9AE0AAF1BAFECA8FDA80EA91FA9C3
:1025A000C201B101A60195010E941F03E60EF71EAC
:1025B000081F191FECAEFDAE0EAF1FAF88AD99AD71
:1025C000AAADBBAD8B362FE3920724E2A20723E02E
:1025D000B2072CF0855D9E47A844B6400CC08639F2
:1025E00020EC92072BEDA2072CEFB20744F48B529C
:1025F0009148A74BB94F88AF99AFAAAFBBAFE88856
:10260000F9880A891B89688D798D8A8D9B8DA40133
:1026100093010E941F03E61AF70A080B190BE8A2A0
:10262000F9A20AA31BA3EC88FD880E891F896C8D73
:102630007D8D8E8D9F8DA40193010E941F03E61A4C
:10264000F70A080B190BECA2FDA20EA31FA3E88C3E
:10265000F98C0A8D1B8DC801B701A20191010E945E
:102660001F03E61AF70A080B190BE8A6F9A60AA732
:102670001BA7EC8CFD8C0E8D1F8DC801B701A2012C
:1026800091010E941F03E61AF70A080B190BECA62A
:10269000FDA60EA71FA7DF91CF911F910F91FF906D
:1026A000EF90DF90CF90BF90AF909F908F907F90F2
:1026B0006F905F904F903F902F900895AF92BF9290
:1026C000CF92DF92EF92FF920F931F937C015801FC
:1026D00069010E94CD0FC701B601A5010E947712C2
:1026E0001F910F91FF90EF90DF90CF90BF90AF9030
:1026F00008952F923F924F925F926F927F928F92A6
:102700009F92AF92BF92CF92DF92EF92FF920F9380
:102710001F93CF93DF93EC015A016B0188A999A90C
:10272000AAA9BBA9A81AB90ACA0ADB0A2885398549
:102730004A855B8588899989AA89BB89280F391FB1
:102740004A1F5B1F60E070E080E091E00E94E403BC
:102750007B018C01288939894A895B890E941F0382
:102760003B014C01288D398D4A8D5B8DC801B70125
:102770000E941F031B012C01E8A8F9A80AA91BA9A4
:10278000C401B301A60195010E941F03E60EF71EC6
:10279000081F191FE8AEF9AE0AAF1BAFECA8FDA8E1
:1027A0000EA91FA9C201B101A60195010E941F0334
:1027B000E60EF71E081F191FECAEFDAE0EAF1FAFE1
:1027C00088AD99ADAAADBBAD8B362FE3920724E25D
:1027D000A20723E0B2072CF0855D9E47A844B640CF
:1027E0000CC0863920EC92072BEDA2072CEFB20724
:1027F00044F48B529148A74BB94F88AF99AFAAAF19
:10280000BBAFE888F9880A891B89C801B701A40110
:1028100093010E941F03E61AF70A080B190BE8A29E
:10282000F9A20AA31BA3EC88FD880E891F89C801A1
:10283000B701A40193010E941F03E61AF70A080BCF
:10284000190BECA2FDA20EA31FA3E88CF98C0A8D34
:102850001B8D688979898A899B89A20191010E94CF
:102860001F03E61AF70A080B190BE8A6F9A60AA730
:102870001BA7EC8CFD8C0E8D1F8D6C897D898E893C
:102880009F89A20191010E941F03E61AF70A080B13
:10289000190BECA6FDA60EA71FA7DF91CF911F91E4
:1028A0000F91FF90EF90DF90CF90BF90AF909F90EF
:1028B0008F907F906F905F904F903F902F900895F2
:1028C000AF92BF92CF92DF92EF92FF920F931F933E
:1028D0007C01580169010E94CD0FC701B601A50115
:1028E0000E9479131F910F91FF90EF90DF90CF908E
:1028F000BF90AF900895CF92DF92EF92FF92FC01CC
:10290000C786D08AE18AF28AFF90EF90DF90CF905D
:102910000895FC0143A354A365A376A30895FC0185
:1029200087A1089580913D058F5F80933D050895AF
:102930001092160510921705109218051092250591
:10294000109226051092270510922805109229054D
:1029500010922A0510922B0510922C0510922D052D
:1029600010922E0510922F05109230051092190525
:1029700010921A0510921B0510921C0510921D054D
:1029800010921E0510921F0510922005109221052D
:1029900010922205109223051092240510923905F9
:1029A00010923A0510923B0510923C0510923505A5
:1029B0001092360510923705109238058FE19CE38E
:1029C000A0E0B0E08093310590933205A0933305E9
:1029D000B093340510923D050895EF92FF920F9346
:1029E0001F93162F042F8CE0E82E84E0F82EC701E9
:1029F0006EE170E00E942907C701612F0E94AB07BA
:102A0000C701602F0E94AB07C7010E94EE071F910C
:102A10000F91FF90EF9008950F931F93CF93DF9343
:102A2000162F042FE9018CE094E06EE170E00E9423
:102A300029078CE094E0612F0E94AB078CE094E0C2
:102A40000E94EE078CE094E06EE1402F0E94FF07A9
:102A500010E009C08CE094E00E943C07FE01E10F09
:102A6000F11D80831F5F8CE094E00E943307892B67
:102A700089F78CE094E00E94EE0780E0101709F4DB
:102A800081E0DF91CF911F910F910895FF920F93F5
:102A90001F93DF93CF9300D000D000D0CDB7DEB727
:102AA0008C0163E046E09E012F5F3F4F0E940C15B2
:102AB000882309F47AC0998180E02A8130E0822B52
:102AC000932B22273327281B390BC9018050984F9D
:102AD0008050904110F0FF241BC0B901882777FD7A
:102AE0008095982FF801238D348D458D568D0E9449
:102AF0002426F8012785308941895289260F371FFE
:102B0000481F591F2383348345835683FF24F3943E
:102B10009D8180E02E8130E0282B392BC901805027
:102B2000984F8050904110F0FF2419C0B9018827B8
:102B300077FD8095982FF801238D348D458D568D26
:102B40000E942426F8012389348945895689260F55
:102B5000371F481F591F27833087418752879B8122
:102B600080E02C8130E0282B392BC9018050984F10
:102B700080509041D0F4B901882777FD8095982F37
:102B8000F801238D348D458D568D0E942426F80141
:102B90002789308D418D528D260F371F481F591FB1
:102BA000238734874587568701C0FF24F80187A112
:102BB000882319F087A1815087A38F2D26960FB601
:102BC000F894DEBF0FBECDBFCF91DF911F910F9163
:102BD000FF9008952F923F924F925F926F927F9253
:102BE0008F929F92AF92BF92CF92DF92EF92FF921D
:102BF0000F931F93DF93CF93CDB7DEB72E970FB60A
:102C0000F894DEBF0FBECDBF9E878D877801890106
:102C1000CB01BA01AE014F5F5F4F0E946704698725
:102C20007A878B879C87C801B701AE014B5F5F4FE6
:102C30000E9467041B012C01ED85FE8527813085EC
:102C40004185528569857A858B859C850E941F0305
:102C50003B014C0169817A818B819C81ED85FE85E8
:102C600023853485458556850E941F035B016C01D1
:102C7000ED85FE8563817481858196812D813E81FC
:102C80004F8158850E941F037B018C01C401B30151
:102C9000A20191010E941F033B014C01C601B50135
:102CA000A20191010E941F036E0C7F1C801E911EC9
:102CB000660E771E881E991EED85FE8567817085DC
:102CC0008185928529813A814B815C810E941F0315
:102CD0007B018C01ED85FE856385748585859685F0
:102CE00029853A854B855C850E941F03E61AF70A01
:102CF000080B190B97FC16C022273327A9012E19A0
:102D00003F09400B510BC401B3010E947D05ED85C5
:102D1000FE8523A134A145A156A1621B730B840B30
:102D2000950B19C066277727CB01661977098809A3
:102D30009909A80197010E947D05ED85FE8523A1D3
:102D400034A145A156A1621B730B840B950B6659E8
:102D5000704C8B4D9C4F678F70A381A392A3ED8520
:102D6000FE85878D90A1A1A1B2A18639F0EC9F07C5
:102D7000FBEDAF07FCEFBF072CF48B529148A74B3C
:102D8000B94F0CC08B36FFE39F07F4E2AF07F3E0C7
:102D9000BF0754F0855D9E47A844B640ED85FE858B
:102DA000878F90A3A1A3B2A3ED85FE85678D70A147
:102DB00081A192A12E960FB6F894DEBF0FBECDBFB3
:102DC000CF91DF911F910F91FF90EF90DF90CF9007
:102DD000BF90AF909F908F907F906F905F904F903B
:102DE0003F902F900895DF92EF92FF920F931F93E1
:102DF000CF93DF93EC01F62E142FD22E8CE094E0CB
:102E00000E9403086AE070E080E090E00E94FD24E8
:102E1000CE016AE043E09E010E940C15682F90E00D
:102E20008881883409F091E020E08981843309F0B9
:102E300021E0922B292F30E040E050E08A8183335B
:102E400011F041E050E0242B352B232B11F0EE2420
:102E500004C0862F611181E0E82E81E0F81649F068
:102E6000F81648F082E0F81641F083E0F81639F4DD
:102E700007C040E206C040E004C040E402C0EE24C7
:102E800040E6133099F0143028F4113059F0123024
:102E900058F413C0153071F0153050F048611630F9
:102EA00059F40BC0446009C0486007C04C6005C0BD
:102EB000406103C0446101C0EE2481E0D81639F0BE
:102EC000D81640F082E0D81621F0EE2403C041600D
:102ED00001C04260CE0160E00E94ED1462E370E048
:102EE00080E090E00E94FD24033079F1043028F462
:102EF0000130C1F00230F8F40BC00530D1F10530DB
:102F000070F1063009F43FC0073009F050C045C0E9
:102F100086ED9FE2A0E0B0E08B8F9C8FAD8FBE8FDF
:102F200040E04FC08FE19CE3A0E0B0E08B8F9C8F2E
:102F3000AD8FBE8F45C08CEE9FE4A0E0B0E08B8FDC
:102F40009C8FAD8FBE8F40E43CC08CE493E6A0E044
:102F5000B0E08B8F9C8FAD8FBE8F40E632C082EF8A
:102F600094E9A0E0B0E08B8F9C8FAD8FBE8F40E8DE
:102F700028C08AE098EAA0E0B0E08B8F9C8FAD8FEC
:102F8000BE8F40EA1EC088E996ECA0E0B0E08B8FCF
:102F90009C8FAD8FBE8F40EC14C080EF9CE1A1E010
:102FA000B0E08B8F9C8FAD8FBE8F40EE0AC08FE15B
:102FB0009CE3A0E0B0E08B8F9C8FAD8FBE8FEE24A2
:102FC00040E2CE0161E00E94ED1462E370E080E037
:102FD00090E00E94FD24CE0162E040E00E94ED14EA
:102FE00062E370E080E090E00E94FD2481E062E90D
:102FF00074E143E050E00E9403248E2DDF91CF91D5
:103000001F910F91FF90EF90DF9008950E94D724B9
:1030100020913E0530913F0540914005509141057A
:10302000621B730B840B950B60517742804090407C
:1030300030F10E94D72420913E0530913F05409108
:10304000400550914105621B730B840B950B6093F7
:1030500042057093430580934405909345050E9473
:10306000D72460933E0570933F058093400590936D
:1030700041050E94651D0E94201C0E94F1190895BF
:103080000E94251E65E070E080E090E00E94FD2433
:103090000E94D72460933E0570933F0580934005BE
:1030A00090934105089581E090E0A0E0B0E0809326
:1030B000840590938505A0938605B09387051092AB
:1030C00088051092890510928A0510928B0510923E
:1030D0008C0510928D0510928E0510928F0510921E
:1030E000900510929105109292051092930580938D
:1030F000940590939505A0939605B093970510922B
:1031000098051092990510929A0510929B051092BD
:103110009C0510929D0510929E0510929F0510929D
:10312000A0051092A1051092A2051092A30580930C
:10313000A4059093A505A093A605B093A7051092AA
:10314000A8051092A9051092AA051092AB0510923D
:10315000AC051092AD051092AE051092AF0510921D
:10316000B0051092B1051092B2051092B30580938C
:10317000B4059093B505A093B605B093B70510922A
:10318000B8051092B9051092BA051092BB051092BD
:10319000BC051092BD051092BE051092BF0510929D
:1031A000C0051092C1051092C2051092C30580930C
:1031B000C4059093C505A093C605B093C7051092AA
:1031C000C8051092C9051092CA051092CB0510923D
:1031D000CC051092CD051092CE051092CF0510921D
:1031E000D0051092D1051092D2051092D30580938C
:1031F000D4059093D505A093D605B093D70510922A
:10320000D8051092D9051092DA051092DB051092BC
:10321000DC051092DD051092DE051092DF0510929C
:10322000E0051092E1051092E2051092E30580930B
:10323000E4059093E505A093E605B093E7051092A9
:10324000E8051092E9051092EA051092EB0510923C
:10325000EC051092ED051092EE051092EF0510921C
:10326000F0051092F1051092F2051092F30580938B
:10327000F4059093F505A093F605B093F705109229
:10328000F8051092F9051092FA051092FB051092BC
:10329000FC051092FD051092FE051092FF0510929C
:1032A0000006109201061092020610920306809307
:1032B000040690930506A0930606B09307061092A5
:1032C00008061092090610920A0610920B06109238
:1032D0000C0610920D0610920E0610920F06109218
:1032E00010061092110610921206109213060895FD
:1032F0002F923F924F925F926F927F928F929F9206
:10330000AF92BF92CF92DF92EF92FF920F931F93F3
:103310008C016A017B011901FC012081318142810C
:1033200053812F5F3F4F4F4F5F4F20833183428345
:10333000538384809580A680B78026013701481882
:1033400059086A087B08C301B2010E947926280D3A
:10335000391D4A1D5B1DF80124833583468357833D
:1033600084849584A684B784C21AD30AE40AF50A31
:10337000C301B201A70196010E941F03680D791DC8
:103380008A1D9B1DF8016487758786879787208132
:1033900031814281538121503040404050400E9451
:1033A0007926F8012087318742875387F1012083EE
:1033B000318342835383F8016481758186819781CB
:1033C0001F910F91FF90EF90DF90CF90BF90AF9043
:1033D0009F908F907F906F905F904F903F902F9035
:1033E0000895809114068F5F80931406893108F444
:1033F00026C2109214068DE996E060E071E00E940A
:10340000F02340914205509143056091440570912D
:1034100045058DE996E02AE030E00E948B238DE996
:1034200096E068EF71E00E94ED236091480570918D
:10343000490580914A0590914B05AFE09595879598
:1034400077956795AA95D1F727E932E740E050E0F4
:103450000E9424269B01AC01F2E1559547953795D2
:103460002795FA95D1F78DE996E0B9014AE050E049
:103470000E94DA238DE996E06FEF71E00E94ED2360
:1034800060914C0570914D0580914E0590914F05CE
:10349000EFE09595879577956795EA95D1F727E9B8
:1034A00032E740E050E00E9424269B01AC0162E13B
:1034B00055954795379527956A95D1F78DE996E00B
:1034C000B9014AE050E00E94DA238DE996E06FEFFF
:1034D00071E00E94ED23609150057091510580913B
:1034E0005205909153052FE09595879577956795AF
:1034F0002A95D1F727E932E740E050E00E942426E0
:103500009B01AC01B2E15595479537952795BA9542
:10351000D1F78DE996E0B9014AE050E00E94DA2344
:103520008DE996E06FEF71E00E94ED2360916005F8
:10353000709161058091620590916305AFE095956A
:10354000879577956795AA95D1F727E932E740E007
:1035500050E00E9424269B01AC01F2E1559547956D
:1035600037952795FA95D1F78DE996E0B9014AE0AC
:1035700050E00E94DA238DE996E06BE072E00E9451
:10358000ED236091640570916505809166059091C9
:103590006705EFE09595879577956795EA95D1F75B
:1035A00027E932E740E050E00E9424269B01AC016D
:1035B00062E155954795379527956A95D1F78DE93D
:1035C00096E0B9014AE050E00E94DA238DE996E0E6
:1035D0006BE072E00E94ED236091680570916905CF
:1035E00080916A0590916B052FE095958795779569
:1035F00067952A95D1F727E932E740E050E00E942D
:1036000024269B01AC01B2E1559547953795279546
:10361000BA95D1F78DE996E0B9014AE050E00E94F1
:10362000DA238DE996E064E172E00E94ED23609177
:1036300078057091790580917A0590917B05AFE0CE
:103640009595879577956795AA95D1F727E932E7FC
:1036500040E050E00E9424269B01AC01F2E1559528
:10366000479537952795FA95D1F78DE996E0B901F9
:103670004AE050E00E94DA238DE996E06CE172E0C6
:103680000E94ED2360917C0570917D0580917E05FF
:1036900090917F05EFE09595879577956795EA95E9
:1036A000D1F727E932E740E050E00E9424269B0151
:1036B000AC0162E155954795379527956A95D1F705
:1036C0008DE996E0B9014AE050E00E94DA238DE9E5
:1036D00096E06FEF71E00E94ED236091800570919C
:1036E000810580918205909183052FE095958795BE
:1036F000779567952A95D1F727E932E740E050E0C2
:103700000E9424269B01AC01B2E15595479537955F
:103710002795BA95D1F78DE996E0B9014AE050E0D6
:103720000E94DA238DE996E066E272E00E94ED23C2
:1037300060916C0570916D0580916E0590916F059B
:10374000AFE09595879577956795AA95D1F727E985
:1037500032E740E050E00E9424269B01AC01F2E1F8
:103760005595479537952795FA95D1F78DE996E0C8
:10377000B9014AE050E00E94DA238DE996E06BE05F
:1037800072E00E94ED236091700570917105809147
:10379000720590917305EFE09595879577956795FC
:1037A000EA95D1F727E932E740E050E00E9424266D
:1037B0009B01AC0162E155954795379527956A9530
:1037C000D1F78DE996E0B9014AE050E00E94DA2392
:1037D0008DE996E06CE172E00E94ED236091740542
:1037E0007091750580917605909177052FE09595FC
:1037F0008795779567952A95D1F727E932E740E0D5
:1038000050E00E9424269B01AC0182E1559547952A
:10381000379527958A95D1F78DE996E0B9014AE069
:1038200050E00E94DA238DE996E061E372E00E94A5
:10383000F0238DE996E061E372E00E94F0230895A1
:10384000CF92DF92EF92FF920F931F9380914605E4
:1038500090914705882309F47DC04091420550911D
:1038600043056091440570914505992309F44DC0C5
:10387000009160051091610520916205309163050A
:10388000C0904805D0904905E0904A05F0904B055E
:1038900086E594E00E945212409142055091430502
:1038A000609144057091450500916405109165058E
:1038B0002091660530916705C0904C05D0904D056C
:1038C000E0904E05F0904F0586E994E00E94521278
:1038D0004091420550914305609144057091450522
:1038E000009168051091690520916A0530916B057A
:1038F000C0905005D0905105E0905205F0905305CE
:1039000086ED94E00E94521291C086E594E00E94F8
:10391000D80F409142055091430560914405709144
:10392000450586E994E00E94D80F409142055091E8
:10393000430560914405709145050091680510911B
:10394000690520916A0530916B0586ED94E00E942F
:1039500060146CC04091420550914305609144054C
:1039600070914505992309F445C0009160051091B7
:1039700061052091620530916305C0904805D090A3
:103980004905E0904A05F0904B0586E594E00E94D9
:103990005212409142055091430560914405709147
:1039A00045050091640510916505209166053091EB
:1039B0006705C0904C05D0904D05E0904E05F09005
:1039C0004F0586E994E00E945212409142055091C1
:1039D0004305609144057091450500915005109193
:1039E0005105209152053091530586ED94E00E94D7
:1039F0005E131CC086E594E00E94D80F40914205FA
:103A000050914305609144057091450586E994E025
:103A10000E94D80F409142055091430560914405A2
:103A20007091450586ED94E00E94D80F86E594E0FC
:103A30000E94FE0D60936C0570936D0580936E057A
:103A400090936F0586E994E00E94FE0D60937005E7
:103A500070937105809372059093730586ED94E0E1
:103A60000E94FE0D60937405709375058093760532
:103A70009093770586E594E00E94040E60937805A4
:103A80007093790580937A0590937B0586E994E09D
:103A90000E94040E60937C0570937D0580937E05E3
:103AA00090937F0586ED94E00E94040E609380055C
:103AB0007093810580938205909383051F910F91E8
:103AC000FF90EF90DF90CF9008950F931F9386E1C2
:103AD00095E00E948F14882309F441C086E195E0A7
:103AE0000E9446158823D9F140916C0550916D05CF
:103AF00060916E0570916F05DB01CA01895E984A7D
:103B0000A94EBF4F8F529E4AAC42B04040F5009143
:103B1000700510917105209172053091730508317F
:103B200087E5180786E1280780E03807C4F4093ED6
:103B300088EA180789EE28078FEF380784F086E1B6
:103B400095E00E94EA15609368057093690580937B
:103B50006A0590936B0581E08093460502C0109240
:103B6000460588E194E00E94DC08882309F468C0D7
:103B700088E194E00E94F20B88E194E00E94BE0884
:103B8000609348057093490580934A0590934B05CF
:103B900088E194E00E94C40860934C0570934D0541
:103BA00080934E0590934F0588E194E00E94CA08E7
:103BB000609350057093510580935205909353057F
:103BC00088E194E00E94AC08609354057093550519
:103BD000809356059093570588E194E00E94B208BF
:103BE000609358057093590580935A0590935B052F
:103BF00088E194E00E94B80860935C0570935D05CD
:103C000080935E0590935F0588E194E00E94D00860
:103C100060936005709361058093620590936305DE
:103C200088E194E00E94D60860936405709365056E
:103C3000809366059093670581E08093470502C0F5
:103C4000109247051F910F9108952F923F924F9226
:103C50005F926F927F928F929F92AF92BF92CF921C
:103C6000DF92EF92FF920F931F93DF93CF93CDB725
:103C7000DEB7A8970FB6F894DEBF0FBECDBF19828E
:103C80001A821B821C821D821E821F821886198640
:103C90001A861B861C861D861E861F86188A198A10
:103CA0001A8A1B8A1C8A1D8A1E8A1F8A188E8DE911
:103CB00096E040E056E960E070E00E943A2188E139
:103CC00094E064E670E040E022E001E00E94090C2C
:103CD000882329F08DE996E062E372E004C08DE963
:103CE00096E066E572E00E94F02386E195E063E0ED
:103CF00046E020E001E00E94F316882351F18DE9AF
:103D000096E067E772E00E94F0231DA21EA21FA2A8
:103D100018A619A21AA21BA21CA21D8E1E8E1F8EEF
:103D200018A2198E1A8E1B8E1C8E44245524320123
:103D3000882499245401EE24FF24870185E1282E4C
:103D4000312C2C0E3D1EB9E0CB2ED12CCC0EDD1E1D
:103D500005C08DE996E06BE972E0D5CF0E94D724CB
:103D600020913E0530913F0540914005509141051D
:103D7000621B730B840B950B60517742804090401F
:103D800068F30E94D72420913E0530913F05409171
:103D9000400550914105621B730B840B950B60939A
:103DA00042057093430580934405909345050E9416
:103DB000D72460933E0570933F0580934005909310
:103DC00041050894E11CF11C011D111D0E94651D97
:103DD00080914605882369F04091680550916905F6
:103DE00060916A0570916B0584EA95E096010E94E6
:103DF000781980914705882309F487C040916005B0
:103E000050916105609162057091630584E895E0C9
:103E10009E012F5F3F4F0E94781940916405509199
:103E20006505609166057091670584E995E09E01DE
:103E30002B5F3F4F0E9478194091540550915505D2
:103E4000609156057091570584EE95E020E030E0D2
:103E50000E9478196DA37EA38FA398A7409158055F
:103E60005091590560915A0570915B0584EF95E07A
:103E700020E030E00E94781969A37AA38BA39CA369
:103E800040915C0550915D0560915E0570915F0504
:103E900084E096E020E030E00E9478196D8F7E8FFC
:103EA0008F8F98A3409148055091490560914A052C
:103EB00070914B0584EB95E09E01235F3F4F0E947C
:103EC0007819698F7A8F8B8F9C8F40914C05509118
:103ED0004D0560914E0570914F0584EC95E09E0173
:103EE0002F5E3F4F0E9478192B013C0140915005F5
:103EF00050915105609152057091530584ED95E004
:103F000091010E9478194B015C0182EEE81684E071
:103F1000F80680E0080780E018070CF41FCF498DF1
:103F20005A8D6B8D7C8D70956095509541955F4F46
:103F30006F4F7F4F00271127980104191509260993
:103F40003709CC24DD247601C818D908EA08FB0813
:103F500088E194E00E9478084DA15EA16FA178A548
:103F600070956095509541955F4F6F4F7F4F09A1B8
:103F70001AA12BA13CA130952095109501951F4FBA
:103F80002F4F3F4FA3E6CA2EAFE7DA2EA1E3EA2E6A
:103F9000A6EFFA2E8D8D9E8DAF8DB8A1C81AD90AC5
:103FA000EA0AFB0A88E194E00E94920886E195E023
:103FB00040E050E060E070E000E010E020E030E041
:103FC000CC24DD2476010E947B1486E195E040E05C
:103FD00050E060E070E00E948914ADB7BEB7509722
:103FE0000FB6F894BEBF0FBEADBFEDB7FEB73196AA
:103FF00011961D921D921D921C9214971482158287
:104000001682178289819A81AB81BC8180879187D2
:10401000A287B3878D859E85AF85B889848795876C
:10402000A687B78786E594E040E050E060E470E062
:1040300000E010E020E430E0C12CD12CF0E1EF2EC4
:10404000F12C812C912CE4E0AE2EB12C0E94820D3B
:10405000EDB7FEB73196ADB7BEB711961D921D9262
:104060001D921C92149714821582168217828D81DC
:104070009E81AF81B88580879187A287B387898920
:104080009A89AB89BC8984879587A687B78786E993
:1040900094E040E050E060E470E000E010E020E4F4
:1040A00030E00E94820DEDB7FEB73196ADB7BEB7D6
:1040B00011961D921D921D921C92149714821582C6
:1040C0001682178289859A85AB85BC858087918702
:1040D000A287B3878D899E89AF89B88D848795879C
:1040E000A687B78786ED94E040E050E060E470E09A
:1040F00000E010E020E430E0C12CD12CE12CB2E053
:10410000FB2E0E94820D8DB79EB740960FB6F89495
:104110009EBF0FBE8DBF8DE996E06CEB72E00E94F2
:10412000F0238DE996E061E372E00E94F023A89607
:104130000FB6F894DEBF0FBECDBFCF91DF911F91B8
:104140000F91FF90EF90DF90CF90BF90AF909F9036
:104150008F907F906F905F904F903F902F90089539
:1041600008951F920F920FB60F9211242F933F9331
:104170004F938F939F93EF93FF938091C00082FDA5
:104180001DC04091C60020915506309156062F5F04
:104190003F4F2F7330708091570690915806281723
:1041A000390771F0E0915506F0915606EB5EF94F34
:1041B0004083309356062093550602C08091C60076
:1041C000FF91EF919F918F914F913F912F910F9080
:1041D0000FBE0F901F901895E091A906F091AA06C6
:1041E000E05CFF4F8191919120813181821B930B83
:1041F0008F739070892B11F00E94B02008951F9248
:104200000F920FB60F9211242F933F938F939F938A
:10421000EF93FF932091990630919A0680919B0627
:1042200090919C062817390731F48091C1008F7D49
:104230008093C10014C0E0919B06F0919C06E75A60
:10424000F94F208180919B0690919C0601968F7377
:10425000907090939C0680939B062093C600FF91DC
:10426000EF919F918F913F912F910F900FBE0F90E3
:104270001F901895AF92BF92DF92EF92FF920F932B
:104280001F93CF93DF93EC017A018B01DD24403043
:1042900081EE580780E0680780E0780711F0DD24A0
:1042A000D39491E0A92EB12CEC89FD89DD2069F031
:1042B000C50108A002C0880F991F0A94E2F7808305
:1042C00060E079E08DE390E005C0108260E874E87A
:1042D0008EE190E0A80197010E94572621503040BE
:1042E00040405040569547953795279580E12030BE
:1042F000380720F0DD2011F0DD24D6CFE889F989D8
:104300003083EA89FB89208319A2EE89FF894081E5
:1043100021E030E0C9010C8C02C0880F991F0A947B
:10432000E2F7482B4083EE89FF894081C9010D8C5B
:1043300002C0880F991F0A94E2F7482B4083EE8948
:10434000FF894081C9010E8C02C0880F991F0A9411
:10435000E2F7482B4083EE89FF8980810F8C02C0F1
:10436000220F331F0A94E2F7209528232083DF9140
:10437000CF911F910F91FF90EF90DF90BF90AF9082
:104380000895DC011C96ED91FC911D97E05CFF4FB8
:104390002191319180819181281B390B2F733070CD
:1043A000C9010895DC011C96ED91FC911D97E05C1C
:1043B000FF4F20813181E054F040DF01AE5BBF4F01
:1043C0008D919C9111972817390719F42FEF3FEF22
:1043D00007C08D919C91E80FF91F8081282F30E054
:1043E000C9010895DC011C96ED91FC911D97E05CDC
:1043F000FF4F20813181E054F040DF01AE5BBF4FC1
:104400008D919C9111972817390719F42FEF3FEFE1
:1044100010C08D919C911197E80FF91F20818D910B
:104420009C91119701968F73907011969C938E9327
:1044300030E0C9010895DC0191968C919197882311
:1044400039F05496ED91FC915597808186FFF9CF14
:1044500091961C920895CF93DF93EC01EE85FF8532
:10446000E05CFF4F20813181E054F0402F5F3F4FEF
:104470002F733070DF01AE5BBF4F8D919C91119710
:1044800028173907D1F3E05CFF4F80819181E05418
:10449000F040E80FF91F6083EE85FF85E05CFF4F79
:1044A00031832083EE89FF89208181E090E00F8CA9
:1044B00002C0880F991F0A94E2F7282B208381E01D
:1044C00089A3EC89FD8980818064808381E090E00C
:1044D000DF91CF9108951092A00610929F0688EE6A
:1044E00093E0A0E0B0E08093A1069093A206A09391
:1044F000A306B093A4068CE493E090939E06809369
:104500009D0685E196E09093AA068093A90689E529
:1045100096E09093AC068093AB0685EC90E0909388
:10452000AE068093AD0684EC90E09093B006809345
:10453000AF0680EC90E09093B2068093B10681ECD8
:1045400090E09093B4068093B30682EC90E0909351
:10455000B6068093B50686EC90E09093B8068093FB
:10456000B70684E08093B90683E08093BA0687E0BB
:104570008093BB0685E08093BC0681E08093BD06F6
:104580000895CF92DF92EF92FF920F931F93CF93F4
:10459000DF937C016B018A01C0E0D0E00FC0D6013F
:1045A0006D916D01D701ED91FC910190F081E02DAD
:1045B000C7010995C80FD91F0150104001151105F9
:1045C00071F7CE01DF91CF911F910F91FF90EF9086
:1045D000DF90CF900895EF92FF920F931F938C017D
:1045E000DC01ED91FC910190F081E02D6DE00995E9
:1045F0007C01D801ED91FC910190F081E02DC80182
:104600006AE009959C012E0D3F1DC9011F910F9174
:10461000FF90EF900895CF93DF93EC016115710542
:1046200019F420E030E00FC0DB010D900020E9F725
:104630001197A61BB70BE881F9810280F381E02D69
:10464000AD0109959C01C901DF91CF9108954F9269
:104650005F927F928F929F92AF92BF92CF92DF92A2
:10466000EF92FF920F931F93DF93CF93CDB7DEB7F7
:10467000A1970FB6F894DEBF0FBECDBF2C01742EEC
:10468000CB01223008F42AE019A231E2C32ED12C4A
:10469000CC0EDD1E822E9924AA24BB24672D752FF3
:1046A000A50194010E94572679018A01C801B7012A
:1046B000A50194010E942426472D461B0894C10899
:1046C000D1084A3014F4405D01C0495CF6014083D2
:1046D000E114F1040105110521F07E2C5F2DC801C4
:1046E000DDCFC201B6010E940B23A1960FB6F8944C
:1046F000DEBF0FBECDBFCF91DF911F910F91FF9015
:10470000EF90DF90CF90BF90AF909F908F907F9071
:104710005F904F900895DC012115310541F4ED9132
:10472000FC910190F081E02D642F099508950E947D
:1047300027230895CF92DF92EF92FF920F931F935A
:10474000CF93DF93EC016A017B012115310541F420
:10475000E881F9810190F081E02D642F09951FC057
:104760002A303105D1F477FF17C0E881F981019033
:10477000F081E02D6DE209958C0144275527BA019F
:104780004C195D096E097F09CE012AE00E9427239A
:104790009801280F391F04C02AE00E9427239C019A
:1047A000C901DF91CF911F910F91FF90EF90DF90A2
:1047B000CF900895EF92FF920F931F937B019A0180
:1047C0000027F7FC0095102FB801A7010E949A233B
:1047D0001F910F91FF90EF9008950E940B23089571
:1047E000EF92FF920F931F937C010E940B238C0189
:1047F000C7010E94EB22080F191FC8011F910F91DA
:10480000FF90EF900895823000F5E82FF0E0EE0F72
:10481000FF1FE154F94F71836083882319F08130C1
:10482000A1F408C0809169008C7F842B809369007B
:10483000E89A089580916900440F551F440F551F51
:10484000837F842B80936900E99A08951F920F92C9
:104850000FB60F9211242F933F934F935F936F9353
:104860007F938F939F93AF93BF93EF93FF93809129
:10487000BF069091C006892B29F0E091BF06F09108
:10488000C0060995FF91EF91BF91AF919F918F91D4
:104890007F916F915F914F913F912F910F900FBE3C
:1048A0000F901F9018951F920F920FB60F92112420
:1048B0002F933F934F935F936F937F938F939F9328
:1048C000AF93BF93EF93FF938091C1069091C2067F
:1048D000892B29F0E091C106F091C2060995FF915C
:1048E000EF91BF91AF919F918F917F916F915F9168
:1048F0004F913F912F910F900FBE0F901F901895E1
:10490000CF93DF930E9456250E944018CCEED0E250
:104910000E9406182097E1F30E94EC20F9CF1F9225
:104920000F920FB60F9211242F933F938F939F9363
:10493000AF93BF938091C7069091C806A091C90616
:10494000B091CA063091CB060196A11DB11D232F4F
:104950002D5F2D3720F02D570196A11DB11D2093FD
:10496000CB068093C7069093C806A093C906B09360
:10497000CA068091C3069091C406A091C506B09165
:10498000C6060196A11DB11D8093C3069093C4066F
:10499000A093C506B093C606BF91AF919F918F912A
:1049A0003F912F910F900FBE0F901F9018959FB7BA
:1049B000F8942091C3063091C4064091C5065091E9
:1049C000C60686B5A89B06C08F3F21F02F5F3F4FDC
:1049D0004F4F5F4F9FBF542F432F322F2227280F57
:1049E000311D411D511D82E0220F331F441F551FF1
:1049F0008A95D1F7B901CA0108959B01AC017FB72F
:104A0000F8948091C3069091C406A091C506B09118
:104A1000C60666B5A89B05C06F3F19F00196A11D9B
:104A2000B11D7FBFBA2FA92F982F8827860F911D00
:104A3000A11DB11D62E0880F991FAA1FBB1F6A95B7
:104A4000D1F7BC012DC0FFB7F8948091C3069091B7
:104A5000C406A091C506B091C606E6B5A89B05C0E0
:104A6000EF3F19F00196A11DB11DFFBFBA2FA92F6D
:104A7000982F88278E0F911DA11DB11DE2E0880F90
:104A8000991FAA1FBB1FEA95D1F7861B970B885E5B
:104A90009340C8F2215030404040504068517C4F14
:104AA000211531054105510571F60895789484B5B5
:104AB000826084BD84B5816084BD85B5826085BD1A
:104AC00085B5816085BDEEE6F0E080818160808300
:104AD000E1E8F0E0108280818260808380818160E3
:104AE0008083E0E8F0E0808181608083E1EBF0E0AA
:104AF000808184608083E0EBF0E08081816080834E
:104B0000EAE7F0E080818460808380818260808336
:104B10008081816080838081806880831092C10061
:104B20000895CF93DF93482F50E0CA0186569F4FD8
:104B3000FC0134914A575F4FFA018491882369F14F
:104B400090E0880F991FFC01E859FF4FA591B4919F
:104B5000FC01EE58FF4FC591D491662351F42FB755
:104B6000F8948C91932F909589238C938881892335
:104B70000BC0623061F42FB7F8948C91932F90950D
:104B800089238C938881832B88832FBF06C09FB78E
:104B9000F8948C91832B8C939FBFDF91CF910895D4
:104BA000482F50E0CA0182559F4FFC012491CA0151
:104BB00086569F4FFC0194914A575F4FFA013491FA
:104BC000332309F440C0222351F1233071F0243003
:104BD00028F42130A1F0223011F514C02630B1F0B4
:104BE0002730C1F02430D9F404C0809180008F7741
:104BF00003C0809180008F7D8093800010C084B5B9
:104C00008F7702C084B58F7D84BD09C08091B000CC
:104C10008F7703C08091B0008F7D8093B000E32F29
:104C2000F0E0EE0FFF1FEE58FF4FA591B4912FB7A4
:104C3000F894662321F48C919095892302C08C917D
:104C4000892B8C932FBF0895629FD001739FF00131
:104C5000829FE00DF11D649FE00DF11D929FF00D0C
:104C6000839FF00D749FF00D659FF00D9927729F43
:104C7000B00DE11DF91F639FB00DE11DF91FBD01CE
:104C8000CF0111240895AA1BBB1B51E107C0AA1F25
:104C9000BB1FA617B70710F0A61BB70B881F991FDD
:104CA0005A95A9F780959095BC01CD010895A1E290
:104CB0001A2EAA1BBB1BFD010DC0AA1FBB1FEE1F96
:104CC000FF1FA217B307E407F50720F0A21BB30BE1
:104CD000E40BF50B661F771F881F991F1A9469F75D
:104CE00060957095809590959B01AC01BD01CF01B9
:104CF000089597FB092E05260ED057FD04D0D7DF67
:104D00000AD0001C38F450954095309521953F4FBE
:104D10004F4F5F4F0895F6F7909580957095619588
:104D20007F4F8F4F9F4F0895EE0FFF1F0590F49117
:084D3000E02D0994F894FFCF77
:104D380054696D6553746570202875732909095283
:104D4800617720526F6C6C726174652028646567A6
:104D58002F73290909526177205069746368726159
:104D6800746520286465672F7329090952617720C3
:104D78005961777261746520286465672F73290902
:104D88000952617720526F6C6C2028646567290985
:104D9800095261772050697463682028646567291F
:104DA80009095261772059617720286465672909C4
:104DB8000946696C7420526F6C6C726174652028A6
:104DC8006465672F7329090946696C7420506974F2
:104DD80063687261746520286465672F73290909FF
:104DE80046696C742059617772617465202864651E
:104DF800672F7329090946696C7420526F6C6C20FF
:104E08002864656729090946696C742050697463C8
:104E180068202864656729090946696C7420596106
:104E28007720286465672900090909090909000923
:104E380009090909090909090909000909090909E3
:104E480009090900090909090909090009090909DC
:104E580009090909090009090909090909090909C3
:104E6800000053756363657366756C6C7920496ED1
:104E7800697469616C697A656420746865204D504D
:104E88005536303030004661696C656420746F2097
:104E9800496E697469616C697A6520746865204D2A
:104EA8005055363030300053756363657366756CE2
:104EB8006C7920496E697469616C697A65642074DB
:104EC800686520484D4335383833004661696C655C
:104ED8006420746F20496E697469616C697A652011
:104EE80074686520484D43353838330046696E6923
:104EF8007368656420496E697469616C697A617464
:104F0800696F6E00DB0FC9009CB17600ECB63E00FD
:104F1800BBD51F00AEFA0F0055FF0700EBFF0300DB
:104F2800FDFF0100000001000080000000400000BB
:104F3800002000000010000000080000000400002D
:104F48000002000000010000800000004000000096
:104F5800200000001000000008000000040000000D
:104F6800020000000100000000000000AB077A0703
:104F780033073C0751076207000000002B22C122BB
:084F8800C121F221D2211B22FC
:00000001FF
