:100000000C9466000C944B120C9478120C948E0095
:100010000C948E000C948E000C948E000C948E0028
:100020000C948E000C948E000C948E000C948E0018
:100030000C948E000C948E000C948E000C948E0008
:100040000C94B4120C948E000C94B80E0C94060F01
:100050000C948E000C948E000C948E000C948E00E8
:100060000C946F010C948E00000000002400270007
:100070002A0000000000250028002B0000000000DE
:1000800023002600290004040404040404040202DA
:100090000202020203030303030301020408102007
:1000A0004080010204081020010204081020000012
:1000B0000007000201000003040600000000000029
:1000C0000000DF0626089309C309721011241FBE21
:1000D000CFEFD8E0DEBFCDBF12E0A0E0B1E0ECE4AE
:1000E000F9E202C005900D92A83BB107D9F714E0E0
:1000F000A8EBB2E001C01D92A43AB107E1F710E00D
:10010000CCECD0E004C02297FE010E94A014C23CB7
:10011000D107C9F70E94A5120C94A4140C940000F6
:10012000880F8093BA000895382F413210F040E0D4
:1001300042C08091B8028823E1F791E09093B80221
:100140002093BA028FEF809325031092E002415072
:100150004093E1024F5F9093B9028091B902330F4F
:10016000832B8093B9028091BB02813041F41092BD
:10017000BB028091B9028093BB0085EC01C085EE83
:100180008093BC008091B8028130E1F38091E0025D
:10019000841710F44091E00220E030E00AC0FB0137
:1001A000E20FF31FD901A054BD4F8C9180832F5FC4
:1001B0003F4F2417A0F3842F08950F931F93582FB8
:1001C000122F413210F081E04AC08091B80288239A
:1001D000E1F782E08093B8020093BA028FEF809338
:1001E00025031092E0024093E102A0ECB2E0FB0193
:1001F00002C081918D938E2F861B8417D0F31092AD
:10020000B9028091B902550F852B8093B902809174
:10021000BB02813041F41092BB028091B9028093FD
:10022000BB0085EC01C085EE8093BC00112321F05A
:100230008091B8028230E1F3809125038F3F11F461
:1002400080E00DC080912503803211F482E007C068
:1002500080912503803311F084E001C083E01F9179
:100260000F910895482F613210F081E00895809138
:10027000B802843011F082E0089560930303A2EE87
:10028000B2E0842F9C01F90102C081918D938E2FE1
:10029000841B8617D0F380E008959093BF0280936B
:1002A000BE0208959093BD028093BC0208958823F6
:1002B00011F085EC01C085E88093BC00089585EDC0
:1002C0008093BC008091BC0084FDFCCF1092B802EA
:1002D000089585EC8093BC001092B80208951F9297
:1002E0000F920FB60F9211242F933F934F935F936A
:1002F0006F937F938F939F93AF93BF93EF93FF93EE
:100300008091B90090E0887F90708036910509F463
:10031000F2C081369105CCF58832910509F47BC095
:1003200089329105B4F48031910509F46FC08131AF
:1003300091053CF4009709F447C1089709F04FC1B3
:1003400065C08831910509F466C0809709F047C1FE
:1003500082C08034910509F4A4C08134910544F42D
:100360008033910509F482C0C89709F038C189C06B
:100370008035910509F489C08835910509F496C046
:100380008834910509F02BC1AEC08839910509F474
:1003900013C189399105ECF48837910509F4ABC094
:1003A000893791054CF48836910509F4A4C080374B
:1003B000910509F014C19FC08838910509F4FCC06B
:1003C0008039910509F49DC08038910509F007C175
:1003D00098C0803B910509F4C6C0813B91054CF45F
:1003E000803A910509F49FC0883A910509F0F7C059
:1003F000BAC0803C910509F4E3C0883C910509F43A
:10040000DFC0883B910509F0EAC0C2C08091B90203
:100410008093BB00CFC09091E0028091E1029817D9
:1004200068F49091E002E92FF0E0E054FD4F808104
:100430008093BB009F5F9093E002BCC08091BA02A2
:10044000882309F44BC085ED8093BC008091BC00EB
:1004500084FDFCCFC2C080E28093250385ED8093AC
:10046000BC008091BC0084FDFCCFB7C080E38093CA
:10047000250385ED8093BC008091BC0084FDFCCFFA
:10048000ACC088E3809325039BC08091E0029091EB
:10049000BB00E82FF0E0E054FD4F90838F5F809326
:1004A000E0029091E0028091E10282C08091E0023E
:1004B0009091BB00E82FF0E0E054FD4F90838F5FF8
:1004C0008093E0028091BA02882341F085ED809309
:1004D000BC008091BC0084FDFCCF7FC081E0809394
:1004E000BB0284EA6EC085ED8093BC008091BC00A5
:1004F00084FDFCCF72C083E08093B8021092240385
:1005000059C080912403803208F056C080912403A2
:100510009091BB00E82FF0E0EC5FFC4F90838F5F81
:100520008093240347C080912403803230F4E0910B
:100530002403F0E0EC5FFC4F108285ED8093BC005B
:100540008091BC0084FDFCCF1092B802609124031E
:10055000E091BE02F091BF0284E093E070E0099563
:10056000109224032DC084E08093B80210920203FD
:1005700010920303E091BC02F091BD0209958091B5
:100580000303882329F481E0809303031092E2029D
:1005900090910203E92FF0E0EE51FD4F80818093AE
:1005A000BB009F5F9093020390910203809103032D
:1005B000981710F485EC01C085E88093BC000FC04B
:1005C00085EC8093BC0009C01092250385ED8093D3
:1005D000BC008091BC0084FDFCCF1092B802FF915A
:1005E000EF91BF91AF919F918F917F916F915F91AB
:1005F0004F913F912F910F900FBE0F901F90189524
:100600001092B80281E08093BA021092BB0282E19C
:1006100061E00E94F51383E161E00E94F513E9EBCC
:10062000F0E080818E7F808380818D7F808388E46D
:100630008093B80085E48093BC0008952F923F9288
:100640004F925F926F927F928F929F92AF92BF92E2
:10065000CF92DF92EF92FF920F931F93CF93DF938E
:10066000CDB7DEB72C970FB6F894DEBF0FBECDBF67
:1006700069837A838B839C832D833E834F83588742
:100680008C81992787FD9095A92FB92FBC01CD01A9
:100690000E9449147B018C018885992787FD9095DC
:1006A000A92FB92F29813A814B815C815070BC01FF
:1006B000CD010E944914DC01CB01E80EF91E0A1F8E
:1006C0001B1F8B81682E7724882499248F81282EE4
:1006D000332444245524C401B301A20191010E9492
:1006E0004914DC01CB01AA24B82EC92EDA2EAE0C97
:1006F000BF1CC01ED11E8D819E819C0144275527A1
:1007000029873A874B875C87C401B3010E9449144B
:100710007B018C0189819A813C0188249924C40140
:10072000B301A20191010E944914DC01CB01E80E42
:10073000F91E0A1F1B1FBB27A12F902F8F2D8A0D7B
:100740009B1DAC1DBD1D37E016950795F794E794EA
:100750003A95D1F721E030E040E050E0E222F32288
:1007600004231523E80EF91E0A1F1B1FC401B30141
:1007700029853A854B855C850E944914DC01CB01B3
:100780008B2F9927AA27BB278E0D9F1DA01FB11F56
:10079000BC01CD012C960FB6F894DEBF0FBECDBFC5
:1007A000DF91CF911F910F91FF90EF90DF90CF904D
:1007B000BF90AF909F908F907F906F905F904F9081
:1007C0003F902F900895EF92FF920F931F93CF9336
:1007D000DF93CDB7DEB72C970FB6F894DEBF0FBE10
:1007E000CDBF6D837E838F8398877A0119861A86A1
:1007F0001B861C8611E0452B21F47E010894E11C28
:10080000F11C60E02D813E814F815885263D7EE7B9
:10081000370778E4470776E05707FCF0DA01C901AB
:10082000865D9E47A844B640613041F460E0DA013D
:10083000C901855D9E47A844B64001C06F5F9C0119
:10084000AD01863DEEE79E07E8E4AE07E6E0BE07B1
:100850002CF78D839E83AF83B88760E08D819E8166
:10086000AF81B885BB23BCF49C01AD012A5231484D
:10087000474B594F613031F460E0215030404040E7
:10088000504001C06F5FDA01C90157FDEDCF2D83E4
:100890003E834F8358878D819E81AF81B8858C368A
:1008A000FFE39F07F4E2AF07F3E0BF074CF08B567E
:1008B0009F43A442B3408D839E83AF83B88713E0E8
:1008C0002D813E814F815885263B7FE1370772E9B4
:1008D000470771E057076CF08BE69FE3A4E2B3E0B3
:1008E000821B930BA40BB50B8D839E83AF83B887BC
:1008F0001F5F8D819E81AF81B8850097A105B105ED
:10090000B1F41250123028F480E090E0A0E0BFEF84
:1009100004C080E090E0A0E0B1E0F7018083918323
:10092000A283B38360E070E080E090E055C08CEE7D
:1009300094E7ABE9B0E0F70180839183A283B383AE
:1009400000E028E1AE014B5F5F4FBE01675F7F4F64
:10095000C7010E94CF05812F99278330910549F067
:10096000843091051CF4029799F032C0049709F184
:100970002FC089859A85AB85BC85B095A09590954B
:1009800081959F4FAF4FBF4F89879A87AB87BC87B1
:10099000F70180819181A281B381B095A095909556
:1009A00081959F4FAF4FBF4F80839183A283B383C5
:1009B0000FC089859A85AB85BC85B095A09590952B
:1009C00081959F4FAF4FBF4F89879A87AB87BC8771
:1009D00069857A858B859C852C960FB6F894DEBF49
:1009E0000FBECDBFDF91CF911F910F91FF90EF9080
:1009F00008958F929F92AF92BF92CF92DF92EF9223
:100A0000FF920F931F93CF93DF93CDB7DEB72C9751
:100A10000FB6F894DEBF0FBECDBF69837A838B8398
:100A20009C832D833E834F83588719861A861B86A5
:100A30001C8659016A01211531054105510519F43A
:100A4000CA01B90199C079018A01E094F094009536
:100A50001095EE2417FDE394FF24002711278E2C18
:100A600029813A814B815C81211531054105510570
:100A700061F4EE2029F06FEF7FEF8FEF9FE77CC0EE
:100A800061E070E080E090E877C0DA01C90180950C
:100A90009095A095B0958827B7FD83959927AA27AB
:100AA000BB27982E882359F488279927DC01821BBD
:100AB000930BA40BB50B89839A83AB83BC83EE2085
:100AC00059F488279927DC018A199B09AC09BD09CB
:100AD0008D839E83AF83B8878C8186FD03C0888514
:100AE00086FF18C089819A81AB81BC81B595A79595
:100AF0009795879589839A83AB83BC838D819E81EB
:100B0000AF81B885B595A795979587958D839E8379
:100B1000AF83B88701E028E1AE01475F5F4FBE01B8
:100B20006B5F7F4FCE0101960E94CF05882059F060
:100B300069857A858B859C859920F1F46B54704E7C
:100B40008D469E4F19C069857A858B859C85992035
:100B500041F090958095709561957F4F8F4F9F4F95
:100B60000BC090958095709561957F4F8F4F9F4FEB
:100B7000655B7F41824991402C960FB6F894DEBFA9
:100B80000FBECDBFDF91CF911F910F91FF90EF90DE
:100B9000DF90CF90BF90AF909F908F9008952F924D
:100BA0003F924F925F926F927F928F929F92AF92FD
:100BB000BF92CF92DF92EF92FF920F931F93CF934A
:100BC000DF93CDB7DEB7C756D0400FB6F894DEBF7F
:100BD0000FBECDBF2C011B01A7964EAF5FAFA797ED
:100BE000A8962FAFA897602E84E6DE011196E3E366
:100BF000F2E001900D928A95E1F7F201C080D18078
:100C0000E280F380FB014081518162817381A7966C
:100C1000EEADFFADA79780809180A280B38077244E
:100C200097018601662029F0141615061606170688
:100C300024F4662069F5B7FC2BC0E72DFF27DB0104
:100C4000CA010E2E04C0B595A795979587950A946D
:100C5000D2F7C81AD90AEA0AFB0A0E2E04C0359543
:100C60002795179507950A94D2F7400F511F621FD9
:100C7000731FEE0FFF1FEE0FFF1FEC0FFD1F818193
:100C80009281A381B481881A990AAA0ABB0A2AC050
:100C9000E72DFF27DB01CA010E2E04C0B595A795ED
:100CA000979587950A94D2F7C80ED91EEA1EFB1EA7
:100CB0000E2E04C035952795179507950A94D2F7FF
:100CC000401B510B620B730BEE0FFF1FEE0FFF1F4C
:100CD000EC0FFD1F81819281A381B481880E991E42
:100CE000AA1EBB1E7394A896FFADA897F71508F02F
:100CF00097CFF201C082D182E282F382F101408378
:100D0000518362837383A796EEADFFADA797808270
:100D10009182A282B382C959DF4F0FB6F894DEBF29
:100D20000FBECDBFDF91CF911F910F91FF90EF903C
:100D3000DF90CF90BF90AF909F908F907F906F90FB
:100D40005F904F903F902F90089581E080936B03C8
:100D5000609348031092690310926A0308952091EA
:100D6000470330E080914603281B3109C9010895EB
:100D70004091460380914703481718F02FEF3FEF4B
:100D80000AC0E42FF0E0EA5DFC4F8081282F30E0BC
:100D90004F5F40934603C9010895E0914603809157
:100DA0004703E81718F0EFEFFFEF06C0F0E0EA5D49
:100DB000FC4F8081E82FF0E0CF0108950895109254
:100DC0006F0310926E0388EE93E0A0E0B0E0809392
:100DD000700390937103A0937203B09373038BE934
:100DE00092E090936D0380936C030895CF92DF920D
:100DF000EF92FF920F931F93CF93DF937C016B01D0
:100E00008A0180916B038823A1F0C0E0D0E00DC07F
:100E1000D701ED91FC91D601AC0FBD1F0190F0817F
:100E2000E02DC7016C9109952196C017D10780F379
:100E300004C0CB01642F0E943201C801DF91CF9121
:100E40001F910F91FF90EF90DF90CF900895DF9367
:100E5000CF930F92CDB7DEB7FC01698380916B030E
:100E60008823C9F080916A03803238F081E090E0F5
:100E70009383828320E030E015C080916903E82FDE
:100E8000F0E0E75BFC4F998190838F5F809369036B
:100E900080936A0305C0CE01019661E00E94320191
:100EA00021E030E0C9010F90CF91DF9108950F93B9
:100EB000062F8091480369E473E040916A0321E0C2
:100EC0000E94DD001092690310926A0310926B0376
:100ED0000F91089561E00E9457070895413208F08C
:100EE00040E2862F66E273E00E949400109246036F
:100EF00080934703089521E00E946E0708951092A1
:100F00004603109247031092690310926A030E94ED
:100F1000000308952CB5382F33702C7F322B3CBD45
:100F20002DB590E0959587959595879581702E7F45
:100F3000822B8DBD08958AE061E00E94F5138AE05E
:100F400061E00E94B6138CB580618CBD8CB5806465
:100F50008CBD8DE061E00E94B6138BE061E00E94E1
:100F6000B6130895FC01108211821282138214823A
:100F700015821682178210861186128613861486B1
:100F8000158616861786108A118A128A138A148A81
:100F9000158A168A178A108E118E128E138E148E51
:100FA000158E168E178E10A211A212A213A214A2D1
:100FB00015A216A217A210A611A612A613A614A671
:100FC00015A616A617A611AA10AA12AA13AA82E09D
:100FD00084AB81E085AB0895CF92DF92EF92FF92D0
:100FE0000F931F93FC0144A355A366A377A300A707
:100FF00011A722A733A7C4A6D5A6E6A6F7A61F91D8
:101000000F91FF90EF90DF90CF900895CF92DF92F5
:10101000EF92FF920F931F93FC01448755876687D9
:101020007787008B118B228B338BC48AD58AE68A13
:10103000F78A1F910F91FF90EF90DF90CF90089566
:101040008091AA038F5F8093AA03089588E793E0B5
:101050000E94B20708951F93162F106884E060E085
:101060000E94F5131EBD0DB407FEFDCF8EB51EBC4C
:101070000DB407FEFDCF1EB584E061E00E94F513BC
:10108000812F1F9108950F931F93162F042F84E033
:1010900060E00E94F5131EBD0DB407FEFDCF8EB5B6
:1010A0000EBD0DB407FEFDCF8EB584E061E00E9459
:1010B000F5131F910F910895CF92DF92EF92FF9257
:1010C0000F931F93CF93DF93EC017B01142FD22E4C
:1010D000C02E2CAB0DAB84E061E00E94B61384E01F
:1010E00061E00E94F5130E949B0781E00E948A073D
:1010F0006AE070E080E090E00E942213CE016BE68F
:1011000040E80E94430864E670E080E090E00E94BE
:101110002213CE016BE643E00E94430861E070E0D9
:1011200080E090E00E942213CE016AE640E10E9436
:10113000430861E070E080E090E00E942213CE015D
:1011400065E70E942B088E778BAB1330F1F01430DB
:1011500028F4113091F01230A0F407C01530E9F0F6
:101160001530B8F01630A1F51CC0CE016AE140E0A0
:101170000E94430880E49FE11BC0CE016AE141E088
:1011800013C0CE016AE142E00FC0CE016AE143E044
:101190000BC0CE016AE144E007C0CE016AE145E040
:1011A00003C0CE016AE146E00E94430888EE93E066
:1011B000B7010E9468146115710519F16F3F71053F
:1011C00019F010F06FEF70E0162F115001E01BC006
:1011D000CE016AE140E00E94430880E49FE1B7014C
:1011E0000E9468146115710511F400E00BC06F3F97
:1011F000710519F010F06FEF70E0162F115000E03C
:1012000002C001E010E061E070E080E090E00E9448
:101210002213CE0169E1412F0E94430861E070E092
:1012200080E090E00E94221381E0D81669F0D81681
:1012300038F082E0D81671F083E0D81699F40EC029
:10124000CE016BE140E003C0CE016BE148E00E94BB
:10125000430810C0CE016BE140E1F9CFCE016BE154
:1012600048E1F5CFCE016BE140E10E94430882E006
:101270008CAB00E061E070E080E090E00E9422131F
:1012800081E0C81669F0C81638F082E0C81671F01F
:1012900083E0C81699F40EC0CE016CE140E003C0B3
:1012A000CE016CE148E00E94430810C0CE016CE121
:1012B00040E1F9CFCE016CE148E1F5CFCE016CE120
:1012C00048E00E94430881E08DAB00E061E070E0FF
:1012D00080E090E00E942213CE0168E341E00E948A
:1012E000430861E070E080E090E00E942213CE01AC
:1012F00067E340E10E94430861E070E080E090E035
:101300000E94221380E060E278E043E050E00E9417
:101310002812802FDF91CF911F910F91FF90EF90B6
:10132000DF90CF9008950895CF92DF92EF92FF92D1
:10133000FC01C786D08AE18AF28AFF90EF90DF90A5
:10134000CF900895FC0143A354A365A376A3089509
:10135000FC0163817481858196810895FC01678118
:101360007085818592850895FC01638574858585E6
:1013700096850895FC0187A108958091D5038F5F1C
:101380008093D50308951092AE031092AF0310928C
:10139000B0031092BD031092BE031092BF031092CF
:1013A000C0031092C1031092C2031092C3031092A3
:1013B000C4031092C5031092C6031092C703109283
:1013C000C8031092B1031092B2031092B3031092AB
:1013D000B4031092B5031092B6031092B7031092A3
:1013E000B8031092B9031092BA031092BB03109283
:1013F000BC031092D1031092D2031092D303109227
:10140000D4031092CD031092CE031092CF0310920A
:10141000D0038FE19CE3A0E0B0E08093C9039093F8
:10142000CA03A093CB03B093CC031092D5030895C5
:10143000EF92FF920F931F93162F042F8CE6E82E46
:1014400083E0F82EC7016EE170E00E94A506C70197
:10145000612F0E942707C701602F0E942707C7013D
:101460000E946A071F910F91FF90EF9008950F93CC
:101470001F93CF93DF93162F042FE9018CE693E09F
:101480006EE170E00E94A5068CE693E0612F0E9459
:1014900027078CE693E00E946A078CE693E06EE1F2
:1014A000402F0E947B0710E009C08CE693E00E9469
:1014B000B806FE01E10FF11D80831F5F8CE693E00B
:1014C0000E94AF06892B89F78CE693E00E946A0799
:1014D00080E0101709F481E0DF91CF911F910F9107
:1014E0000895BF92CF92DF92EF92FF920F931F93D6
:1014F000DF93CF9300D000D000D0CDB7DEB76C0122
:1015000063E046E09E012F5F3F4F0E94370A882329
:1015100009F480C0998180E02A8130E0822B932BEE
:1015200022273327281B390BC9018050984F805040
:10153000904110F0BB241BC0B901882777FD80952E
:10154000982FF601238D348D458D568D0E944914B8
:10155000F6012785308941895289260F371F481F98
:10156000591F2383348345835683BB24B394F601E8
:10157000E388F488058916899D8180E02E8130E01A
:10158000282B392B2E0D3F1DC9018050984F8050BC
:10159000904110F0BB2415C0B901882777FD8095D4
:1015A000982FF601238D348D458D568D0E94491458
:1015B000E60EF71E081F191FF601E782F086018765
:1015C0001287F601E788F08C018D128D9B8180E0F7
:1015D0002C8130E0282B392B2E0D3F1DC901805066
:1015E000984F80509041B0F4B901882777FD8095DD
:1015F000982FF601238D348D458D568D0E94491408
:10160000E60EF71E081F191FF601E386F48605870C
:10161000168701C0BB24F60187A1882319F087A192
:10162000815087A38B2D26960FB6F894DEBF0FBE90
:10163000CDBFCF91DF911F910F91FF90EF90DF9081
:10164000CF90BF9008952F923F924F925F926F92EA
:101650007F928F929F92AF92BF92CF92DF92EF9242
:10166000FF920F931F93DF93CF93CDB7DEB72E97E3
:101670000FB6F894DEBF0FBECDBF9E878D87780171
:101680008901CB01BA01AE014F5F5F4F0E94E303B6
:1016900069877A878B879C87C801B701AE014B5F4A
:1016A0005F4F0E94E3031B012C01ED85FE8527811E
:1016B00030854185528569857A858B859C850E9418
:1016C0001E033B014C0169817A818B819C81ED85F0
:1016D000FE8523853485458556850E941E035B0162
:1016E0006C01ED85FE8563817481858196812D81F4
:1016F0003E814F8158850E941E037B018C01C401ED
:10170000B301A20191010E941E033B014C01C601DD
:10171000B501A20191010E941E036E0C7F1C801E68
:10172000911E660E771E881E991EED85FE856781C7
:1017300070858185928529813A814B815C810E94E7
:101740001E037B018C01ED85FE856385748585858F
:10175000968529853A854B855C850E941E03E61A8D
:10176000F70A080B190B97FC16C022273327A9018B
:101770002E193F09400B510BC401B3010E94F9041B
:10178000ED85FE8523A134A145A156A1621B730BF3
:10179000840B950B19C066277727CB01661977094B
:1017A00088099909A80197010E94F904ED85FE8531
:1017B00023A134A145A156A1621B730B840B950B89
:1017C0006659704C8B4D9C4F678F70A381A392A379
:1017D000ED85FE85878D90A1A1A1B2A18639F0EC9F
:1017E0009F07FBEDAF07FCEFBF072CF48B5291482E
:1017F000A74BB94F0CC08B36FFE39F07F4E2AF074E
:10180000F3E0BF0754F0855D9E47A844B640ED85E0
:10181000FE85878F90A3A1A3B2A3ED85FE85678D7A
:1018200070A181A192A12E960FB6F894DEBF0FBED3
:10183000CDBFCF91DF911F910F91FF90EF90DF907F
:10184000CF90BF90AF909F908F907F906F905F9060
:101850004F903F902F900895DF92EF92FF920F9359
:101860001F93CF93DF93EC01F62E142FD22E8CE62C
:1018700093E00E947F076AE070E080E090E00E94C1
:101880002213CE016AE043E09E010E94370A682FCE
:1018900090E08881883409F091E020E089818433E8
:1018A00009F021E0922B292F30E040E050E08A81BE
:1018B000833311F041E050E0242B352B232B11F022
:1018C000EE2404C0862F611181E0E82E81E0F81635
:1018D00049F0F81648F082E0F81641F083E0F81677
:1018E00039F407C040E206C040E004C040E402C052
:1018F000EE2440E6133099F0143028F4113059F0FA
:10190000123058F413C0153071F0153050F04861A2
:10191000163059F40BC0446009C0486007C04C60E1
:1019200005C0406103C0446101C0EE2481E0D816C7
:1019300039F0D81640F082E0D81621F0EE2403C02A
:10194000416001C04260CE0160E00E94180A62E37B
:1019500070E080E090E00E942213033079F10430BF
:1019600028F40130C1F00230F8F40BC00530D1F199
:10197000053070F1063009F43FC0073009F050C05F
:1019800045C086ED9FE2A0E0B0E08B8F9C8FAD8FCD
:10199000BE8F40E04FC08FE19CE3A0E0B0E08B8FB2
:1019A0009C8FAD8FBE8F45C08CEE9FE4A0E0B0E071
:1019B0008B8F9C8FAD8FBE8F40E43CC08CE493E650
:1019C000A0E0B0E08B8F9C8FAD8FBE8F40E632C021
:1019D00082EF94E9A0E0B0E08B8F9C8FAD8FBE8F3B
:1019E00040E828C08AE098EAA0E0B0E08B8F9C8FA6
:1019F000AD8FBE8F40EA1EC088E996ECA0E0B0E053
:101A00008B8F9C8FAD8FBE8F40EC14C080EF9CE11C
:101A1000A1E0B0E08B8F9C8FAD8FBE8F40EE0AC0EF
:101A20008FE19CE3A0E0B0E08B8F9C8FAD8FBE8FE9
:101A3000EE2440E2CE0161E00E94180A62E370E009
:101A400080E090E00E942213CE0162E040E00E941C
:101A5000180A62E370E080E090E00E94221381E0C7
:101A60006DEB79E043E050E00E9428128E2DDF916B
:101A7000CF911F910F91FF90EF90DF9008950F93FA
:101A80001F930E94FC122091D6033091D7034091FE
:101A9000D8035091D903621B730B840B950B6054D0
:101AA00072448F40904008F4E7C00E94FC1260939B
:101AB000D6037093D7038093D8039093D9038EEA0B
:101AC00093E00E94BA09882309F4D0C08EEA93E01B
:101AD0000E94BA098093EC038EEA93E00E94710A97
:101AE000882309F4BEC08EEA93E00E94A80960939F
:101AF000E0037093E1038093E2039093E3038EEAA3
:101B000093E00E94AE096093E4037093E503809331
:101B1000E6039093E7038EEA93E00E94B409609392
:101B2000E8037093E9038093EA039093EB038EEA52
:101B300093E040E050E060E070E000E010E020E082
:101B400030E00E94230B6093DA037093DB038093F1
:101B5000DC039093DD034FE0959587957795679526
:101B60004A95D1F727E932E740E050E00E94491456
:101B700032E195958795779567953A95D1F770936A
:101B8000DF036093DE0385E794E060E071E00E948C
:101B9000151285E794E06091EC034AE050E00E9462
:101BA000A11185E794E067E571E00E94121240916F
:101BB000E0035091E1036091E2037091E303AB0114
:101BC000772757FD7095672F85E794E02AE030E08E
:101BD0000E94B31185E794E060E671E00E94121262
:101BE0004091E4035091E5036091E6037091E703AF
:101BF000AB01772757FD7095672F85E794E02AE0C2
:101C000030E00E94B31185E794E060E671E00E9445
:101C100012124091E8035091E9036091EA03709138
:101C2000EB03AB01772757FD7095672F85E794E0AD
:101C30002AE030E00E94B31185E794E06BE671E0A2
:101C40000E9412126091DE037091DF0385E794E039
:101C50004AE050E00E94F31185E794E065E771E007
:101C600009C085E794E066E771E004C085E794E089
:101C700062E971E00E9415121F910F910895CF92B1
:101C8000DF92EF92FF920F931F9385E794E040E07D
:101C900056E960E070E00E94410F88E793E060E958
:101CA00071E040E022E001E00E945C08882329F016
:101CB00085E794E069EA71E004C085E794E06DECA3
:101CC00071E00E94151288E793E040E050E060E088
:101CD00070E000E010E020E030E0CC24DD2476016C
:101CE0000E94EC0788E793E040E050E060E070E09D
:101CF00000E010E020E030E00E9406088EEA93E069
:101D000063E046E020E001E00E942C0C882329F0EB
:101D100085E794E06EEE71E004C085E794E062E14F
:101D200072E00E9415128EEA93E040E050E060E01D
:101D300070E000E010E020E030E0CC24DD2476010B
:101D40000E9494098EEA93E040E050E060E070E089
:101D50000E94A20985E794E065E771E00E941512F0
:101D60001F910F91FF90EF90DF90CF90089508950D
:101D70001F920F920FB60F9211242F933F934F9300
:101D80008F939F93EF93FF938091C00082FD1DC0BE
:101D90004091C60020912D0430912E042F5F3F4FBB
:101DA0002F73307080912F049091300428173907D9
:101DB00071F0E0912D04F0912E04E351FC4F40832B
:101DC00030932E0420932D0402C08091C600FF9111
:101DD000EF919F918F914F913F912F910F900FBE57
:101DE0000F901F901895E0918104F0918204E05CBF
:101DF000FF4F8191919120813181821B930B8F73D1
:101E00009070892B11F00E94B70E08951F920F92C7
:101E10000FB60F9211242F933F938F939F93EF93BD
:101E2000FF9320917104309172048091730490911A
:101E300074042817390731F48091C1008F7D809395
:101E4000C10014C0E0917304F0917404EF5CFB4F87
:101E50002081809173049091740401968F73907027
:101E600090937404809373042093C600FF91EF91C4
:101E70009F918F913F912F910F900FBE0F901F90C8
:101E80001895AF92BF92DF92EF92FF920F931F933C
:101E9000CF93DF93EC017A018B01DD24403081EE9A
:101EA000580780E0680780E0780711F0DD24D394BC
:101EB00091E0A92EB12CEC89FD89DD2069F0C501E6
:101EC00008A002C0880F991F0A94E2F7808360E09F
:101ED00079E08DE390E005C0108260E874E88EE15F
:101EE00090E0A80197010E947C14215030404040AE
:101EF0005040569547953795279580E12030380713
:101F000020F0DD2011F0DD24D6CFE889F989308377
:101F1000EA89FB89208319A2EE89FF89408121E0AB
:101F200030E0C9010C8C02C0880F991F0A94E2F7B7
:101F3000482B4083EE89FF894081C9010D8C02C086
:101F4000880F991F0A94E2F7482B4083EE89FF8996
:101F50004081C9010E8C02C0880F991F0A94E2F7D4
:101F6000482B4083EE89FF8980810F8C02C0220FAD
:101F7000331F0A94E2F7209528232083DF91CF9125
:101F80001F910F91FF90EF90DF90BF90AF90089559
:101F9000DC011C96ED91FC911D97E05CFF4F2191B7
:101FA000319180819181281B390B2F733070C901C9
:101FB0000895DC011C96ED91FC911D97E05CFF4FAC
:101FC00020813181E054F040DF01AE5BBF4F8D9145
:101FD0009C9111972817390719F42FEF3FEF07C08D
:101FE0008D919C91E80FF91F8081282F30E0C90165
:101FF0000895DC011C96ED91FC911D97E05CFF4F6C
:1020000020813181E054F040DF01AE5BBF4F8D9104
:102010009C9111972817390719F42FEF3FEF10C043
:102020008D919C911197E80FF91F20818D919C91C2
:10203000119701968F73907011969C938E9330E058
:10204000C9010895DC0191968C919197882339F00C
:102050005496ED91FC915597808186FFF9CF91962A
:102060001C920895CF93DF93EC01EE85FF85E05C31
:10207000FF4F20813181E054F0402F5F3F4F2F739D
:102080003070DF01AE5BBF4F8D919C911197281787
:102090003907D1F3E05CFF4F80819181E054F0403B
:1020A000E80FF91F6083EE85FF85E05CFF4F318309
:1020B0002083EE89FF89208181E090E00F8C02C0AF
:1020C000880F991F0A94E2F7282B208381E089A3C7
:1020D000EC89FD8980818064808381E090E0DF91DC
:1020E000CF910895109278041092770488EE93E0CF
:1020F000A0E0B0E08093790490937A04A0937B04ED
:10210000B0937C048BEA92E09093760480937504FC
:102110008DEE93E0909382048093810481E394E0B8
:10212000909384048093830485EC90E090938604DC
:102130008093850484EC90E09093880480938704D6
:1021400080EC90E090938A048093890481EC90E085
:1021500090938C0480938B0482EC90E090938E0497
:1021600080938D0486EC90E09093900480938F048C
:1021700084E08093910483E08093920487E08093CD
:10218000930485E08093940481E0809395040895FE
:10219000CF92DF92EF92FF920F931F93CF93DF9333
:1021A0007C016B018A01C0E0D0E00FC0D6016D91C7
:1021B0006D01D701ED91FC910190F081E02DC701F7
:1021C0000995C80FD91F015010400115110571F76D
:1021D000CE01DF91CF911F910F91FF90EF90DF9093
:1021E000CF900895EF92FF920F931F938C01DC0123
:1021F000ED91FC910190F081E02D6DE009957C015D
:10220000D801ED91FC910190F081E02DC8016AE0C8
:1022100009959C012E0D3F1DC9011F910F91FF9043
:10222000EF900895CF93DF93EC016115710519F4D8
:1022300020E030E00FC0DB010D900020E9F711979E
:10224000A61BB70BE881F9810280F381E02DAD0177
:1022500009959C01C901DF91CF9108954F925F923A
:102260007F928F929F92AF92BF92CF92DF92EF9226
:10227000FF920F931F93DF93CF93CDB7DEB7A19754
:102280000FB6F894DEBF0FBECDBF2C01742ECB016C
:10229000223008F42AE019A231E2C32ED12CCC0E50
:1022A000DD1E822E9924AA24BB24672D752FA5013B
:1022B00094010E947C1479018A01C801B701A5012B
:1022C00094010E944914472D461B0894C108D10867
:1022D0004A3014F4405D01C0495CF6014083E114CA
:1022E000F1040105110521F07E2C5F2DC801DDCF21
:1022F000C201B6010E941211A1960FB6F894DEBF7A
:102300000FBECDBFCF91DF911F910F91FF90EF9046
:10231000DF90CF90BF90AF909F908F907F905F9015
:102320004F900895DC012115310541F4ED91FC91A8
:102330000190F081E02D642F099508950E942E11DF
:102340000895EF92FF920F931F939A01E62EFF24B8
:1023500000E010E0B801A7010E9492111F910F91B7
:10236000FF90EF900895CF92DF92EF92FF920F933C
:102370001F93CF93DF93EC016A017B012115310597
:1023800041F4E881F9810190F081E02D642F0995F5
:102390001FC02A303105D1F477FF17C0E881F981D9
:1023A0000190F081E02D6DE209958C0144275527BD
:1023B000BA014C195D096E097F09CE012AE00E941D
:1023C0002E119801280F391F04C02AE00E942E11F7
:1023D0009C01C901DF91CF911F910F91FF90EF9068
:1023E000DF90CF900895CF92DF92EF92FF920F93FC
:1023F0001F936C017B019A010027F7FC0095102FB9
:10240000B801A7010E94B3118C01C6010E94F2100D
:10241000080F191FC8011F910F91FF90EF90DF90D7
:10242000CF9008950E9412110895EF92FF920F939A
:102430001F937C010E9412118C01C7010E94F210AF
:10244000080F191FC8011F910F91FF90EF90089579
:10245000823000F5E82FF0E0EE0FFF1FE956FB4F4A
:1024600071836083882319F08130A1F408C08091C2
:1024700069008C7F842B80936900E89A089580918D
:102480006900440F551F440F551F837F842B809391
:102490006900E99A08951F920F920FB60F921124C6
:1024A0002F933F934F935F936F937F938F939F935C
:1024B000AF93BF93EF93FF9380919704909198040B
:1024C000892B29F0E0919704F09198040995FF91E8
:1024D000EF91BF91AF919F918F917F916F915F919C
:1024E0004F913F912F910F900FBE0F901F90189515
:1024F0001F920F920FB60F9211242F933F934F9379
:102500005F936F937F938F939F93AF93BF93EF935B
:10251000FF938091990490919A04892B29F0E0917E
:102520009904F0919A040995FF91EF91BF91AF91B1
:102530009F918F917F916F915F914F913F912F91DB
:102540000F900FBE0F901F901895CF93DF930E94AE
:102550007B130E943F0EC3EFDEE00E943F0D2097E9
:10256000E1F30E94F30EF9CF1F920F920FB60F9274
:1025700011242F933F938F939F93AF93BF93809199
:102580009F049091A004A091A104B091A204309165
:10259000A3040196A11DB11D232F2D5F2D3720F01F
:1025A0002D570196A11DB11D2093A30480939F0474
:1025B0009093A004A093A104B093A20480919B04E3
:1025C00090919C04A0919D04B0919E040196A11D40
:1025D000B11D80939B0490939C04A0939D04B093A1
:1025E0009E04BF91AF919F918F913F912F910F903A
:1025F0000FBE0F901F9018959FB7F89420919B04E1
:1026000030919C0440919D0450919E0486B5A89BF6
:1026100006C08F3F21F02F5F3F4F4F4F5F4F9FBF4F
:10262000542F432F322F2227280F311D411D511DBA
:1026300082E0220F331F441F551F8A95D1F7B9013D
:10264000CA0108959B01AC017FB7F89480919B0467
:1026500090919C04A0919D04B0919E0466B5A89BA6
:1026600005C06F3F19F00196A11DB11D7FBFBA2FA4
:10267000A92F982F8827860F911DA11DB11D62E0FB
:10268000880F991FAA1FBB1F6A95D1F7BC012DC0E7
:10269000FFB7F89480919B0490919C04A0919D04B5
:1026A000B0919E04E6B5A89B05C0EF3F19F00196D6
:1026B000A11DB11DFFBFBA2FA92F982F88278E0FFC
:1026C000911DA11DB11DE2E0880F991FAA1FBB1F1C
:1026D000EA95D1F7861B970B885E9340C8F221508C
:1026E00030404040504068517C4F21153105410534
:1026F000510571F60895789484B5826084BD84B5DF
:10270000816084BD85B5826085BD85B5816085BDEC
:10271000EEE6F0E0808181608083E1E8F0E0108205
:10272000808182608083808181608083E0E8F0E046
:10273000808181608083E1EBF0E080818460808330
:10274000E0EBF0E0808181608083EAE7F0E0808167
:1027500084608083808182608083808181608083C7
:102760008081806880831092C1000895CF93DF93A9
:10277000482F50E0CA0186569F4FFC0134914A57BA
:102780005F4FFA018491882369F190E0880F991FC7
:10279000FC01E859FF4FA591B491FC01EE58FF4FA1
:1027A000C591D491662351F42FB7F8948C91932F4F
:1027B000909589238C93888189230BC0623061F4C2
:1027C0002FB7F8948C91932F909589238C938881BF
:1027D000832B88832FBF06C09FB7F8948C91832BDF
:1027E0008C939FBFDF91CF910895482F50E0CA018D
:1027F00082559F4FFC012491CA0186569F4FFC01D0
:1028000094914A575F4FFA013491332309F440C041
:10281000222351F1233071F0243028F42130A1F02B
:10282000223011F514C02630B1F02730C1F0243029
:10283000D9F404C0809180008F7703C0809180001C
:102840008F7D8093800010C084B58F7702C084B5DF
:102850008F7D84BD09C08091B0008F7703C08091C7
:10286000B0008F7D8093B000E32FF0E0EE0FFF1FEC
:10287000EE58FF4FA591B4912FB7F894662321F439
:102880008C919095892302C08C91892B8C932FBFBA
:102890000895629FD001739FF001829FE00DF11DAA
:1028A000649FE00DF11D929FF00D839FF00D749FCA
:1028B000F00D659FF00D9927729FB00DE11DF91F76
:1028C000639FB00DE11DF91FBD01CF0111240895D3
:1028D000AA1BBB1B51E107C0AA1FBB1FA617B70746
:1028E00010F0A61BB70B881F991F5A95A9F7809562
:1028F0009095BC01CD010895A1E21A2EAA1BBB1B25
:10290000FD010DC0AA1FBB1FEE1FFF1FA217B307BB
:10291000E407F50720F0A21BB30BE40BF50B661FD1
:10292000771F881F991F1A9469F760957095809595
:1029300090959B01AC01BD01CF010895EE0FFF1FE3
:0C2940000590F491E02D0994F894FFCF6D
:10294C004461746120436F756E740909582D417888
:10295C006973204D61672847612A325E382909095D
:10296C00592D41786973204D61672847612A325E81
:10297C00382909095A2D41786973204D616720283F
:10298C0047612A325E3829090948656164696E67B6
:10299C002028646567290009090909090909090042
:1029AC000909090909090909090900090909090994
:1029BC000909090900004572726F72207265616421
:1029CC00696E67206D61676E6574696320646174FC
:1029DC0061004E6F204D61676E65746963204461C0
:1029EC007461205265616479005375636365736625
:1029FC00756C6C7920496E697469616C697A65646F
:102A0C0020746865204D5055363030300046616971
:102A1C006C656420746F20496E697469616C697AA5
:102A2C006520746865204D50553630303000537534
:102A3C006363657366756C6C7920496E6974696142
:102A4C006C697A65642074686520484D4335383864
:102A5C0033004661696C656420746F20496E69743B
:102A6C0069616C697A652074686520484D43353816
:102A7C00383300DB0FC9009CB17600ECB63E00BBCE
:102A8C00D51F00AEFA0F0055FF0700EBFF0300FD4A
:102A9C00FF01000000010000800000004000000069
:102AAC0020000000100000000800000004000000DE
:102ABC000200000001000080000000400000002027
:102ACC0000000010000000080000000400000002DC
:102ADC0000000001000000000000002707F606AF10
:102AEC0006B806CD06DE06000000003210C810C87D
:082AFC000FF90FD90F221000A1
:00000001FF
